:1000000000000110A70101003501010047010100B6
:1000100037010100390101003B01010032F8F8EF1E
:100020000000000000000000000000003D01010091
:100030003F010100000000004101010061090100D1
:1000400045010100199A0300450101004501010025
:10005000450101001D53010045010100450101005A
:10006000F553010045010100450101004501010072
:100070004501010045010100450101004501010064
:100080004501010045010100450101004501010054
:100090004501010045010100450101004501010044
:1000A0004501010045010100450101004501010034
:1000B0004501010045010100450101004501010024
:1000C0004501010045010100450101004501010014
:1000D000159A03000DF80100C598030045010100C1
:1000E00045010100E41B0600000000108034000000
:1000F000E41B06000000002000000000E41B0600D6
:100100000020002000000000E41B0600004000204A
:100110000000000080340010344400000000002083
:10012000000000000020002000000000004000202F
:1001300000000000FEE7FEE7FEE7FEE7FEE7FEE761
:10014000FEE7FEE7FEE708B5084805F0E7FA0220FB
:1001500010F046FCBFF34F8F0549CA6802F4E06215
:10016000044B1343CB60BFF34F8FFEE7109D050098
:1001700000ED00E00400FA050023934209D210B418
:1001800050F8044B41F8044B04339342F8D310BCAD
:100190007047704700238B4204D2002240F8042BA2
:1001A0000433F8E7704710B50F4B07E003F10C0478
:1001B0009A6859681868FFF7DFFF23460B4A934295
:1001C000F4D306E01C46596854F8080BFFF7E2FF29
:1001D0002346074A9342F5D300F014F900F0F0FBF0
:1001E0002CF07AFFFEE700BFE400010014010100DB
:1001F0003401010080B400AF7D4BD3F8043103F427
:100200008073002B57D17A4BD3F80C3103F00103E4
:10021000002B1FD1764BD3F8043103F01F03754A2E
:10022000B2FBF3F3744A1360714BD3F8A83103F0B7
:100230001F03704AB2FBF3F3704A13606C4BD3F8A0
:10024000003103F0010301336A4AB2FBF3F36C4A55
:100250001360C8E0664BD3F8A03103F04003002BD5
:1002600009D1654B00221A60644B00221A60644B6E
:1002700000221A60B7E05E4BD3F8043103F01F038D
:100280005C4AB2FBF3F35C4A1360594BD3F8A831D4
:1002900003F01F03574AB2FBF3F3584A1360544B61
:1002A000D3F8003103F001030133524AB2FBF3F3F8
:1002B000534A136097E04E4BD3F8883003F48073B1
:1002C000002B09D14C4B00221A604C4B00221A60C3
:1002D0004B4B00221A6086E0454BD3F80C3103F0FB
:1002E0000103002B37D1424BD3F8883003F01F03B2
:1002F0000133404A02FB03F23D4BD3F8043103F0D3
:100300001F03B2FBF3F33C4A1360394BD3F8883038
:1003100003F01F030133374A02FB03F2344BD3F8D7
:10032000A83103F01F03B2FBF3F3344A1360304BE0
:10033000D3F8883003F01F0301332E4A02FB03F287
:100340002B4BD3F8003103F001030133B2FBF3F37D
:100350002B4A136047E0264BD3F8A03103F040034B
:10036000002B09D1244B00221A60244B00221A6072
:10037000234B00221A6036E01D4BD3F8883003F07F
:100380001F0301331B4A02FB03F2194BD3F804315C
:1003900003F01F03B2FBF3F3174A1360144BD3F8B7
:1003A000883003F01F030133124A02FB03F2104BA3
:1003B000D3F8A83103F01F03B2FBF3F30F4A136025
:1003C0000B4BD3F8883003F01F030133094A02FBBB
:1003D00003F2074BD3F8003103F001030133B2FB02
:1003E000F3F3074A136000BFBD4680BC704700BFEF
:1003F00000C00F40001BB7000000001004000010F8
:100400000800001080B400AF244B2122C3F8A021C3
:1004100000BF224BD3F8A03103F04003002BF8D0EB
:100420001E4B0122C3F80C211C4B0922C3F8842067
:100430001A4B0122C3F88020184BAA22C3F88C2043
:10044000164B5522C3F88C2000BF144BD3F88830CC
:1004500003F48063002BF8D0104B40F20112C3F874
:1004600004210E4B0122C3F800210C4B0222C3F8D9
:10047000A8210A4B0A4AC3F8C420084B4FF48072E3
:10048000C3F8C821054B45F23A021A60054B4FF4F8
:1004900080329A6000BFBD4680BC704700C00F40EC
:1004A000DE87280400ED00E04FF040220223536075
:1004B0000023D3600E4BD3F8A81101F01F010D4BA0
:1004C0001B68B3FBF1F30C49A1FB03139B09013B30
:1004D00000FB03F09061FF231360042353610123A9
:1004E00053604FF040235B6813F0010FF9D1704760
:1004F00000C00F4000000010D34D621030B4002443
:100500004FF0204000E00134FF2C0DD80022FF2ADC
:10051000F9D8A3189BB2014621F8043B01339BB2E2
:10052000438001320846F2E700214FF02043FF29C3
:100530000FD80020FF280AD853F8044B0A18551C7E
:1005400092B242EA0542A24205D10130F2E70131FE
:10055000EDE7002000E0012030BC7047F8B506460A
:10056000FF273D4600240DE0204AD2F8DC3123F479
:10057000F85343EA0423C2F8DC310FE0FF2D00D02A
:10058000274601341F2C11D8002EEDD1174AD2F87E
:10059000DC3123F01F032343C2F8DC31FFF7AEFF49
:1005A0000028EBD1FF2DECD12546EAE7FF2F0BD039
:1005B000EB195B087EB90D49D1F8DC2122F01F024E
:1005C0001343C1F8DC31F8BDFF2D03D005F11F0343
:1005D0005B08EFE7FEE70549D1F8DC2122F4F85289
:1005E00042EA0323C1F8DC31EDE700BF00C00F4051
:1005F0000022114602E0DBB219440132092A0DD86B
:10060000094B4FF48040C3F8E001D3F8E03113F414
:10061000004FF0D1044BD3F8E031F8E7034BA3FBD4
:100620000131C808704700BF00C00F40CDCCCCCC12
:1006300038B50446FFF7DCFF0D49D1F8DC3103F093
:100640001F0204FB02F2B2FBF0F202F01F0203F4FD
:10065000F85504FB05F4B4FBF0F404F4F85423F467
:10066000F85323F01F0323431343C1F8DC3138BD93
:1006700000C00F40FFFFFFFF2DE9F04385B0AC4BFA
:10068000D3F8C42042F40062C3F8C42041F210023F
:10069000C3F8DC21A74D01242C604FF00009C5F8F8
:1006A0000890A3F55023C3F88041C3F88441C3F8F0
:1006B0008841C3F88C41C3F89041C3F89441C3F812
:1006C0009841C3F89C41C3F8A041C3F8A441C3F8C2
:1006D000A841C3F8AC41C3F8B041C3F8B441C3F872
:1006E000B841C3F8BC41C3F8C041C3F8C441C3F822
:1006F000C841C3F8CC41C3F8D041C3F8D441C3F8D2
:10070000D841C3F8DC41C3F8E041C3F8E441C3F881
:10071000E841C3F8EC41C3F8F041C3F8F441C3F831
:10072000F841C3F8FC41C3F80042C3F80442C3F8DF
:100730000842C3F80C42C3F81042C3F81442C3F88D
:100740001842C3F81C42C3F82042C3F82442C3F83D
:100750002842C3F82C42C3F83042C3F83442C3F8ED
:100760003842C3F83C42C3F84042C3F84442C3F89D
:100770004842C3F84C42C3F85042C3F85442C3F84D
:100780005842C3F85C42C3F86042C3F86442C3F8FD
:100790006842C3F86C42C3F87842C3F87C42C3F89D
:1007A0003841C3F83C41C3F84041C3F84441C3F861
:1007B0004841C3F84C41C3F85041C3F85441C3F811
:1007C0005841C3F85C41C3F86041C3F86441C3F8C1
:1007D0006841C3F86C41C3F87041C3F87441C3F871
:1007E0007841C3F87C414FF48643C5F8003140F2AC
:1007F0000223C5F80431AC624F4B186830F04BFC53
:1008000047A3D3E9002330F0C1F906460F46002282
:100810004A4B30F035F930F0F9FB8046286300226E
:10082000474B3046394630F02BF930F0EFFB686328
:100830000022444B3046394630F022F930F0E6FBD6
:10084000A863C5F83C8008F102032B6400223E4BEC
:100850003046394630F014F930F0D8FB2044686453
:1008600000223A4B3046394630F00AF930F0CEFBE0
:10087000A864E86428650022354B3046394630F0DC
:10088000FFF830F0C3FB68650223AB656420FFF717
:100890000BFE40F283132B62C820FFF705FE40F2E7
:1008A00003132B626C62CDF80490019B7F2B03D85D
:1008B000019B01330193F8E71F4B186830F0EBFB05
:1008C00017A3D3E9002330F061F917A3D3E900237C
:1008D00030F0D6F830F09AFB0009164B58628322AC
:1008E0001A621C4A1268029200221A621A4AC3F85B
:1008F0000021FFF77DFE0390184B1B786BB9002099
:10090000FFF72CFE0120FFF729FE0FF09BFD039857
:10091000FFF78EFE05B0BDE8F0830FF0A3FDF6E70C
:100920000000000065CDCD41000000008084CE4075
:1009300000C00F4000C00920080000100000344033
:10094000000045400040534000001C4000805140E2
:1009500000002C40002002A00043080038330010A3
:10096000024A136801331360704700BF7C700010A7
:1009700008B5FFF73FFC0E4B1B680E4AA2FB032392
:100980009B09013B0C494B600C4AF82382F8233049
:10099000002088600720086082F8233092F8233016
:1009A000DB08013BDB00DBB282F8233008BD00BF6F
:1009B00000000010D34D621010E000E000ED00E0F8
:1009C00008B5FFF717FC0FF01DFC0FF011FD0FF03D
:1009D00063FDFFF751FE012008BD80B483B000AF76
:1009E000786039607B683A681A6000BF0C37BD4692
:1009F00080BC704780B485B000AFF860B9607A60A1
:100A0000BB689A017B681A43FB685A6000BF1437C1
:100A1000BD4680BC704780B483B000AF7860396059
:100A20007B683A689A6000BF0C37BD4680BC70474F
:100A300080B483B000AF78607B68DB6818460C3701
:100A4000BD4680BC704780B483B000AF7860396029
:100A50007B683A681A6100BF0C37BD4680BC70479E
:100A600080B483B000AF78607B6800229A6100BFD9
:100A70000C37BD4680BC704780B483B000AF78604F
:100A80007B68D3F8603F18460C37BD4680BC704782
:100A900080B483B000AF786039607B683A68C3F88F
:100AA000682F00BF0C37BD4680BC704780B584B04E
:100AB00000AF7860244B1B68FB607868FFF7D0FFBD
:100AC000FB68224AA2FB0323DB0B5A1E7B685A6198
:100AD000FB681F4AA2FB03239A0C13461B019B1AB7
:100AE0001C4AA2FB03239B090133BB60FB68184A25
:100AF000A2FB03239A0C1346DB009B1ADB009B1A14
:100B0000144AA2FB03239B0901331B02BA68134357
:100B1000BB60FB680E4AA2FB03239A0C13469B00A2
:100B20001344DA00D31A0B4AA2FB03239B090133B7
:100B30001B04BA681343BB60B9687868FFF783FF8A
:100B400000BF1037BD4680BD00000010819F5E16BB
:100B500083DE1B43D34D621080B584B000AF786054
:100B600039607868FFF788FFF860FA683B681340DF
:100B70003A689A4200D0F4E700BF39687868FFF716
:100B800087FF00BF1037BD4680BD80B586B000AF7F
:100B9000F8607A601A460B467B8113467B7200230D
:100BA0007B617B7ADB00012202FA03F3013B3B61AC
:100BB0004FF08061F868FFF76BFF7B7A012B04D15F
:100BC0000321F868FFF709FF0BE07B7A022B04D1C1
:100BD0000421F868FFF701FF03E00521F868FFF73B
:100BE000FCFE7B891A460021F868FFF703FF00230B
:100BF0007B6112E07A687B6913441A683B69134091
:100C00001946F868FFF707FF4FF08061F868FFF7B3
:100C1000A3FF7B7A7A6913447B617A693B6A9A42C3
:100C2000E8D37B6918461837BD4680BD80B582B0D1
:100C300000AF78600B467B8006217868FFF728FFBD
:100C40007B88002219467868FFF7D4FE0621786871
:100C5000FFF7C3FE4FF080517868FFF77DFF00BFBC
:100C60000837BD4680BD80B586B000AFF8607B60B8
:100C70000B467B8113463B8197F82030DB00012235
:100C800002FA03F3013B3B614FF08061F868FFF724
:100C9000FFFE3B897A891946F868FFF7ABFE97F8A3
:100CA0002030012B04D10821F868FFF796FE0CE0F4
:100CB00097F82030022B04D10921F868FFF78DFE48
:100CC00003E00A21F868FFF788FE00237B6124E037
:100CD0007A687B69134419683B69DA4378687B69F1
:100CE00003440A401A60F868FFF7A2FE02463B6917
:100CF00002EA03017A687B6913441A6878687B69A1
:100D000003440A431A604FF08061F868FFF724FF3C
:100D100097F820307A6913447B617A697B6A9A423A
:100D2000D6D37B6918461837BD4680BD80B58AB0DA
:100D300002AFF8607B600B467B8113463B8100234A
:100D4000FB617B8903F03F03BB61BB69C3F14003D7
:100D50007B6126E07A69FB6A9A4201D9FB6A7B6172
:100D6000BB6999B27A68FB691A4497F828007B69D5
:100D700000930346F868FFF708FF3B891946F868B7
:100D8000FFF754FFFA697B691344FB61FA6A7B69D8
:100D9000D31AFB623B8901333B810023BB614023B3
:100DA0007B61FB6A002BD5D1012318462037BD4655
:100DB00080BD80B58AB002AFF8607B600B467B8156
:100DC00013463B810023FB617B8903F03F03BB613A
:100DD000BB69C3F140037B6123E07A69FB6A9A42F5
:100DE00001D9FB6A7B61BB6999B27A68FB69D0184B
:100DF0003A897B69019397F8283000930346F86895
:100E0000FFF731FFFA697B691344FB61FA6A7B697A
:100E1000D31AFB623B8901333B810023BB61402332
:100E20007B61FB6A002BD8D1012318462037BD46D1
:100E300080BD80B485B000AF78607B6801331B78DB
:100E4000FB81FB891B021AB27B681B781BB2134320
:100E50001BB2FB81FB8918461437BD4680BC704726
:100E600080B485B000AF78607B6803331B78FB608B
:100E7000FB681B027A68023212781343FB60FB683E
:100E80001B027A68013212781343FB60FB681B0275
:100E90007A6812781343FB60FB6818461437BD4626
:100EA00080BC704780B483B000AF78600B467B8015
:100EB0007B685A1C7A607A88D2B21A707B881B0AC7
:100EC0007B807B685A1C7A607A88D2B21A7000BF25
:100ED0000C37BD4680BC704780B483B000AF7860EB
:100EE00039607B685A1C7A603A68D2B21A703B68E3
:100EF0001B0A3B607B685A1C7A603A68D2B21A704F
:100F00003B681B0A3B607B685A1C7A603A68D2B225
:100F10001A703B681B0A3B607B685A1C7A603A680F
:100F2000D2B21A7000BF0C37BD4680BC704780B487
:100F300087B000AFF860B9607A60FB687B61BB681E
:100F40003B617B68002B0DD03A69531C3B617B6988
:100F5000591C796112781A707B68013B7B607B6851
:100F6000002BF1D100BF1C37BD4680BC704780B458
:100F700087B000AFF860B9607A60FB687B617B691D
:100F80005A1C7A61BA68D2B21A707B68013B7B60E6
:100F90007B68002BF3D100BF1C37BD4680BC704777
:100FA00080B489B000AFF860B9607A60FB68FB611B
:100FB000BB68BB6100237B61FB695A1CFA611B782B
:100FC0001946BB695A1CBA611B78CB1A7B617B68D6
:100FD000013B7B607B68002B02D07B69002BEBD050
:100FE0007B6918462437BD4680BC704780B483B007
:100FF00000AF7860396002E07B6801337B607B681A
:101000001B78002B05D07B681B781A463B689342FF
:10101000F2D17B681B7818460C37BD4680BC704700
:1010200080B483B000AF0346FB71FB79002B01D085
:10103000002300E0002318460C37BD4680BC7047F3
:1010400080B483B000AF0346FB71FB79002B01D065
:10105000002300E0002318460C37BD4680BC7047D3
:1010600080B586B000AF78607B681B687B617B6968
:101070005A1C7A611B787B827B8ADBB21846FFF7A9
:10108000CFFF0346002B15D07B695A1C7A611B7871
:101090007B747B7C1846FFF7D3FF0346002B02D1FD
:1010A0004FF0FF331DE07B8A1B029AB27B7C9BB220
:1010B00013447B827B8A002B0DD07B8A40F2B511D2
:1010C000184603F061FB03467B827B8A002B02D12A
:1010D0004FF0FF3305E07B8AFB607B687A691A601A
:1010E000FB6818461837BD4680BD80B586B000AF96
:1010F000F860B9607A6040F2B511F86803F00CFB53
:101100000346FB82FB8AFF2B14D97B68012B01D895
:1011100000231EE0FB8A1B0A99B2BB685A1CBA6006
:10112000CAB21A70BB685A1CBA60FA8AD2B21A7074
:1011300002230EE0FB8A002B02D07B68002B01D13A
:10114000002306E0BB685A1CBA60FA8AD2B21A7051
:10115000012318461837BD4680BD80B584B000AF66
:1011600078600023FB737B68DB78002B2CD07B68D6
:1011700058787B6803F134017B681A6B012303F014
:1011800071FE0346002B1DD17B680022DA707B685C
:101190001A6B7B685B6AD21A7B68DB699A4213D24E
:1011A0007B689B78022B0FD17B6858787B6803F1B2
:1011B00034017B681A6B7B68DB691A44012303F0F6
:1011C00051FE01E00123FB73FB7B18461037BD463F
:1011D00080BD80B584B000AF786039600023FB73B8
:1011E0007B681B6B3A689A421BD07868FFF7B5FFA3
:1011F0000346FB73FB7B002B13D17B6858787B681D
:1012000003F1340101233A6803F0F0FD0346002B9B
:1012100004D04FF0FF333B600123FB737B683A68D7
:101220001A63FB7B18461037BD4680BD80B584B07D
:1012300000AF78607868FFF790FF0346FB73FB7B95
:10124000002B58D17B681B78032B48D17B681B7916
:10125000012B44D17B6834334FF4007200211846CF
:10126000FFF785FE7B68343303F5FF734AF655219B
:101270001846FFF717FE7B68343321491846FFF7FD
:101280002BFE7B68343303F5F2731E491846FFF7D3
:1012900023FE7B68343303F5F4727B685B6919467F
:1012A0001046FFF719FE7B68343303F5F6727B684E
:1012B0001B6919461046FFF70FFE7B681B6A5A1C14
:1012C0007B681A637B6858787B6803F134017B681C
:1012D0001A6B012303F0C6FD7B6800221A717B683C
:1012E0005B7800220021184603F014FE0346002B11
:1012F00001D00123FB73FB7B18461037BD4680BD30
:10130000525261417272416180B483B000AF786023
:1013100039603B68023B3B607B689B69023B3A68F3
:101320009A4201D3002308E07B68DA6A7B685B8914
:1013300019463B6803FB01F3134418460C37BD46BE
:1013400080BC704780B586B000AF786039607B683C
:101350001B683B613B68012B04D93B699B693A6878
:101360009A4202D301237B618CE04FF0FF337B6113
:101370003B691B78022B45D0032B5DD0012B77D125
:101380003B68FB60FB685B08FA681344FB603B69E1
:101390005A6AFB685B0A134419463869FFF719FF5C
:1013A0000346002B67D1FB685A1CFA60C3F308039D
:1013B0003A69134493F83430BB603B695A6AFB685E
:1013C0005B0A134419463869FFF703FF0346002BF5
:1013D00053D1FB68C3F308033A69134493F83430DC
:1013E0001B021A46BB681343BB603B6803F0010352
:1013F000002B02D0BB681B0902E0BB68C3F30B03E0
:101400007B613FE03B695A6A3B681B0A13441946FB
:101410003869FFF7DEFE0346002B30D13B6903F14C
:1014200034023B685B0003F4FF7313441846FFF774
:1014300000FD03467B6125E03B695A6A3B68DB0996
:10144000134419463869FFF7C4FE0346002B18D130
:101450003B6903F134023B689B0003F4FE731344C1
:101460001846FFF7FDFC034623F070437B6109E05B
:1014700001237B6106E000BF04E000BF02E000BF83
:1014800000E000BF7B6918461837BD4680BD90B5A7
:1014900089B000AFF860B9607A600223FB77BB685F
:1014A000012B40F2CF80FB689B69BA689A4280F0BA
:1014B000C980FB681B78022B73D0032B00F091804E
:1014C000012B40F0C880BB68BB61BB695B08BA698F
:1014D0001344BB61FB685A6ABB695B0A1344194633
:1014E000F868FFF776FE0346FB77FB7F002B40F0A2
:1014F000AB80FB6803F13402BB69591CB961C3F3CB
:10150000080313447B61BB6803F00103002B0DD07B
:101510007B691B785BB203F00F035AB27B68DBB2C6
:101520001B015BB213435BB2DBB201E07B68DBB251
:101530007A691370FB680122DA70FB685A6ABB692A
:101540005B0A13441946F868FFF743FE0346FB772E
:10155000FB7F002B7AD1FB6803F13402BB69C3F334
:10156000080313447B61BB6803F00103002B03D025
:101570007B681B09DBB20EE07B691B785BB223F052
:101580000F035AB27B681B0A5BB203F00F035BB216
:1015900013435BB2DBB27A691370FB680122DA7025
:1015A00059E0FB685A6ABB681B0A13441946F8687D
:1015B000FFF70FFE0346FB77FB7F002B48D1FB684C
:1015C00003F13402BB685B0003F4FF7313447A68D1
:1015D00092B211461846FFF765FCFB680122DA70EB
:1015E00039E0FB685A6ABB68DB0913441946F8689E
:1015F000FFF7EFFD0346FB77FB7F002B2AD17B68CB
:1016000023F07044FB6803F13402BB689B0003F4D1
:10161000FE7313441846FFF723FC034603F07043A0
:1016200023437B60FB6803F13402BB689B0003F437
:10163000FE73134479681846FFF74EFCFB680122DD
:10164000DA7008E000BF06E000BF04E000BF02E07F
:1016500000BF00E000BFFB7F18462437BD4690BDA9
:1016600080B588B000AFF860B9607A600023FB777E
:10167000FB681B68BB61BB68012B04D9BB699B6914
:10168000BA689A4201D302234BE07B68002B0CD04E
:101690004FF0FF327968B869FFF7F9FE0346FB7730
:1016A000FB7F002B01D0FB7F3BE0B968F868FFF7B8
:1016B00049FE78617B69002B31D07B69012B01D118
:1016C00002232EE07B69B3F1FF3F01D1012328E023
:1016D0000022B968B869FFF7DAFE0346FB77FB7FA3
:1016E000002B01D0FB7F1CE0BB695A69BB699B6979
:1016F000023B9A420BD2BB695B695A1CBB695A61B7
:10170000BB691B7943F00103DAB2BB691A717B69CB
:10171000BB60BB699B69BA689A42C6D300E000BF50
:10172000002318462037BD4680BD80B588B000AF85
:10173000786039607B681B683B613B68002B0DD18A
:101740003B691B69BB61BB69002B04D03B699B698A
:10175000BA699A421BD30123BB6118E039687868E3
:10176000FFF7F0FDF860FB68012B01D80123A9E029
:10177000FB68B3F1FF3F01D1FB68A3E03B699B69C4
:10178000FA689A4201D2FB689CE03B68BB613B6906
:101790005B69002B01D1002394E00023FB61BA694F
:1017A0003B689A4229D1BB690133FB613B699B6964
:1017B000FA699A4201D30223FB61F9697868FFF75D
:1017C000C1FDF860FB68012B03D0FB68B3F1FF3F5C
:1017D00001D1FB6876E0FB68002B0ED03B691B69EA
:1017E000FB60FB68012B06D93B699B69FA689A424A
:1017F00001D2FB68BB610023FB61FB69002B29D18F
:10180000BB69FB61FB690133FB613B699B69FA6959
:101810009A4207D30223FB61FA69BB699A4201D954
:1018200000234FE0F9697868FFF78CFDF860FB68EA
:10183000002B0ED0FB68012B03D0FB68B3F1FF3FF8
:1018400001D1FB683EE0FA69BB699A42DAD1002314
:1018500038E000BF4FF0FF32F9693869FFF717FE33
:101860000346FB75FB7D002B09D13B68002B06D09E
:10187000FA6939683869FFF70AFE0346FB75FB7D94
:10188000002B16D13B69FA691A613B695A693B69B9
:101890009B69023B9A4204D83B695B695A1E3B69CB
:1018A0005A613B691B7943F00103DAB23B691A7153
:1018B00007E0FB7D012B02D14FF0FF3300E0012355
:1018C000FB61FB6918462037BD4680BD80B586B0F8
:1018D00000AF786039607868FFF73FFC0346002B63
:1018E00001D0012336E039687868FFF70DFD3861D3
:1018F0007B683A691A637B6834334FF400720021C5
:101900001846FFF734FB7B683433FB600123BB6070
:1019100000237B6103E07A69BB6813447B617B68C9
:101920005B891A467B6993420BD27B6858783A6987
:101930007B691A44BB68F96803F094FA0346002BEC
:10194000E9D07B685B891A467B69934214BF012307
:101950000023DBB218461837BD4680BD80B586B07F
:1019600000AF786039607B681B683B613B68B3F50A
:10197000001F04D23B6803F01F03002B01D0022399
:1019800063E07B683A681A617B689B687B617B696E
:10199000002B06D13B691B78022B02D93B699B6A5D
:1019A0007B617B69002B0CD13B685B093A6912892A
:1019B000934201D3022348E03B699A6A7B689A61AB
:1019C00029E03B695B895B02FB6019E07B68796910
:1019D0001846FFF7B7FC78617B69B3F1FF3F01D18F
:1019E000012332E07B69012B04D93B699B697A6949
:1019F0009A4201D3022328E03A68FB68D31A3B607D
:101A00003A68FB689A42E1D279693869FFF77CFC51
:101A100002467B689A617B687A695A617B689B6938
:101A2000002B01D1022310E07B689A693B685B0AB6
:101A30001A447B689A613B6903F134023B68C3F343
:101A400008031A447B68DA61002318461837BD463C
:101A500080BD80B586B000AF786039607B681B6858
:101A60003B617B681B692033FB60FB68B3F5001F9B
:101A700002D37B6800229A617B689B69002B01D1AD
:101A8000042378E0FB68C3F30803002B66D17B686E
:101A90009B695A1C7B689A617B685B69002B0AD141
:101AA000FB685B093A691289934257D37B6800222D
:101AB0009A6104235FE0FB685B0A3A695289013A44
:101AC0001340002B4AD17A687B685B69194610463F
:101AD000FFF738FC78617B69012B01D802234AE0CB
:101AE0007B69B3F1FF3F01D1012344E03B699B696E
:101AF0007A699A4228D33B68002B04D17B68002284
:101B00009A61042337E07A687B685B69194610465E
:101B1000FFF70BFE78617B69002B01D107232AE0D8
:101B20007B69012B01D1022325E07B69B3F1FF3FE3
:101B300001D101231FE079693869FFF7C7FE034629
:101B4000002B01D0012316E07B687A695A6179691C
:101B50003869FFF7D9FB02467B689A617B68FA68AF
:101B60001A613B6903F13402FB68C3F308031A44AA
:101B70007B68DA61002318461837BD4680BD80B502
:101B800086B000AF786039607B681B68FB6000211D
:101B90007868FFF7E3FE0346FB75FB7D002B2BD136
:101BA00000233B617B689B691946F868FFF711FBCE
:101BB0000346FB75FB7D002B1DD17B68DB691B7821
:101BC000E52B04D07B68DB691B78002B07D13B69D0
:101BD00001333B613A693B689A4202D10CE0002331
:101BE0003B6101217868FFF734FF0346FB75FB7DFD
:101BF000002BD7D000E000BFFB7D042B01D10723D1
:101C0000FB75FB7D18461837BD4680BD80B584B096
:101C100000AF786039603B681A331846FFF709F95E
:101C20000346FB607B681B78032B09D13B681433A8
:101C30001846FFF7FEF803461B04FA681343FB60DF
:101C4000FB6818461037BD4680BD80B584B000AF34
:101C5000F860B9607A60BB681A337A6892B211464C
:101C60001846FFF71FF9FB681B78032B09D1BB68E7
:101C700003F114027B681B0C9BB219461046FFF758
:101C800011F900BF1037BD4680BDFFFF90B587B08A
:101C900000AF786039603B681A331846FFF7C9F81F
:101CA0000346002B01D0002358E03B681B7803F06B
:101CB0003F035A1E13465B0013449B0013447B6191
:101CC0000123FB8100233B6132E0264A3B69134438
:101CD0001B781A463B6813441846FFF7AAF80346D8
:101CE000BB81FB89002B19D07B69FE2B11D8BB89E6
:101CF000184602F075FD04467B695A1C7A615B0048
:101D00007A6813441B88184602F06AFD03469C4219
:101D100001D0002322E0BB89FB8106E0BB894FF69E
:101D2000FF72934201D0002318E03B6901333B610D
:101D30003B690C2BC9D93B681B7803F04003002B8F
:101D40000BD0FB89002B08D07B695B007A681344B9
:101D50001B88002B01D0002300E0012318461C370C
:101D6000BD4690BD0C17040080B586B000AF78600A
:101D700039603B681A331846FFF75BF80346002BBF
:101D800001D000234DE03B681B7823F040035A1E2E
:101D900013465B0013449B0013447B610123FB81CA
:101DA00000233B6128E0214A3B6913441B781A4613
:101DB0003B6813441846FFF73CF80346BB81FB8998
:101DC000002B0FD07B69FE2B01D9002329E0BB89B2
:101DD000FB817B695A1C7A615B007A681344FA893B
:101DE0001A8006E0BB894FF6FF72934201D00023B0
:101DF00017E03B6901333B613B690C2BD3D93B684E
:101E00001B7803F04003002B0AD07B69FE2B01D91D
:101E1000002306E07B695B007A68134400221A8085
:101E2000012318461837BD4680BD00BF0C170400BB
:101E300080B588B000AFF860B96011461A460B460D
:101E4000FB711346BB71BB680D33BA791A70BB685E
:101E50000B330F221A70BB680C3300221A70BB6858
:101E60001A3300211846FFF71DF8FB795A1E134656
:101E70005B0013449B001344FB610023FB8200239F
:101E8000BB61FB8A4FF6FF72934207D0FB695A1C75
:101E9000FA615B00FA6813441B88FB82174ABB692E
:101EA00013441B781A46BB681344FA8A1146184635
:101EB000FEF7F8FFFB8A002B02D14FF6FF73FB827F
:101EC000BB690133BB61BB690C2BDAD9FB8A4FF6C6
:101ED000FF72934206D0FB695B00FA6813441B88CB
:101EE000002B03D1FB7943F04003FB71BB68FA7907
:101EF0001A7000BF2037BD4680BD00BF0C1704001C
:101F000080B58CB000AFF860B9607A603B600B229E
:101F1000B968F868FFF70BF83B68052B2BD93B68CD
:101F2000FB6122E07B689A1C7A601B887B8400231B
:101F3000BB6217E0FB695A007B8C03F0010313447A
:101F4000FB617B8C5B087B84FB6903F48033002B93
:101F500005D0FB6983F4883383F02103FB61BB6AFE
:101F60000133BB62BB6A0F2BE4D97B681B88002B53
:101F7000D8D1FB693B600723BB623B68DBB203F04F
:101F80000F03DBB2303387F82F3097F82F30392B1F
:101F900004D997F82F30073387F82F30BB6A5A1EC1
:101FA000BA6207F13002134497F82F2003F81C2C73
:101FB0003B681B093B603B68002BDED107F1140234
:101FC000BB6A13447E221A7000237B6214E0FA6815
:101FD0007B6A13441B781846FFF722F80346002B50
:101FE00007D0BB6A013B7A6A9A4210D07B6A013300
:101FF0007B627B6A01337B627A6ABB6A9A4207D250
:10200000FA687B6A13441B78202BE0D100E000BF04
:10201000BB6A072B08D8BB6A5A1CBA6207F13002A8
:10202000134413F81C1C00E020217B6A5A1C7A62BE
:10203000FA6813440A461A707B6A072BE8D900BF76
:102040003037BD4680BD80B485B000AF78600023D6
:10205000FB730B23BB60FB7BDAB25208DB0113433B
:10206000DAB27B68591C79601B781344FB73BB6838
:10207000013BBB60BB68002BEDD1FB7B18461437DE
:10208000BD4680BC704780B586B000AF78603960CF
:102090000423FB757B681B683B61FF237B75FF2373
:1020A0003B7581E07B689B6919463869FFF791F8B9
:1020B0000346FB75FB7D002B7CD17B68DB691B78BD
:1020C000BB75BB7D002B02D10423FB7577E07B68D9
:1020D000DB690B331B7803F03F03FB737B68FA7BF0
:1020E0009A71BB7DE52B0ED0BB7D2E2B0BD0FB7BDD
:1020F00023F02003082B0CBF01230023DBB21A4678
:102100003B68934202D0FF237B7544E0FB7B0F2B9F
:102110002FD1BB7D03F04003002B0DD07B68DB6922
:102120005B7B3B75BB7D23F04003BB75BB7D7B7543
:102130007B681A697B68DA62BA7D7B7D9A4215D129
:102140007B68DB690D331B783A7D9A420ED13B697F
:10215000DA687B68DB6919461046FFF705FE03461F
:10216000002B03D07B7D013BDBB200E0FF237B75BE
:1021700011E07B7D002B09D17B68DB691846FFF7F6
:1021800062FF03461A463B7D934215D07B684FF0B1
:10219000FF32DA6210E000217868FFF75AFC03464C
:1021A000FB75FB7D002B09D17B689B69002B7FF4BD
:1021B00079AF04E000BF02E000BF00E000BFFB7D9C
:1021C000002B02D07B6800229A61FB7D18461837ED
:1021D000BD4680BD80B586B000AF78607B681B6867
:1021E0003B6100217868FFF7B9FB0346FB75FB7D77
:1021F000002B01D0FB7DA9E0FF233B753B7D7B7568
:102200007B684FF0FF32DA627B689B691946386958
:10221000FEF7DFFF0346FB75FB7D002B40F090804F
:102220007B68DB691B78BB75BB7D002B02D1042367
:10223000FB758AE07B68DB690B331B7803F03F0397
:10224000FB737B68FA7B9A71BB7DE52B07D0FB7B28
:1022500003F00803002B09D0FB7B0F2B06D0FF23D4
:102260007B757B684FF0FF32DA625EE0FB7B0F2B01
:1022700036D17B6893F82B3003F04003002B54D108
:10228000BB7D03F04003002B0DD07B68DB695B7BDB
:102290003B75BB7D23F04003BB75BB7D7B757B68C5
:1022A0001A697B68DA62BA7D7B7D9A4215D17B68B8
:1022B000DB690D331B783A7D9A420ED13B69DA68AF
:1022C0007B68DB6919461046FFF7E0FC0346002BEC
:1022D00003D07B7D013BDBB200E0FF237B7524E074
:1022E0007B7D002B09D17B68DB691846FFF7ABFECD
:1022F00003461A463B7D934224D07B6893F82B30EB
:1023000003F00103002B0AD17B68D8697B68203376
:102310000B221946FEF744FE0346002B14D0FF2380
:102320007B757B684FF0FF32DA6200217868FFF737
:1023300090FB0346FB75FB7D002B3FF465AF04E08B
:1023400000BF02E000BF00E000BFFB7D1846183769
:10235000BD4680BD80B58CB000AF78607B681B68DF
:10236000FB617B6893F82B3003F0A003002B01D0B6
:102370000623E0E000237B6202E07B6A01337B629C
:10238000FB69DA687B6A5B0013441B88002BF4D17D
:102390007B6803F1200107F10C030C221846FEF7BD
:1023A000C6FDFB7D03F00103002B32D07B68402289
:1023B00083F82B200123BB6216E07B6803F1200029
:1023C000FB69DA6807F10C01BB6AFFF799FD7868D1
:1023D000FFF700FF034687F82F3097F82F30002BC8
:1023E00006D1BB6A0133BB62BB6A632BE5D900E04F
:1023F00000BFBB6A642B01D107239CE097F82F3004
:10240000042B02D097F82F3095E0FA7D7B6883F893
:102410002B20FB7D03F00203002B07D07B6A0C33DB
:10242000474AA2FB03239B08013300E001233B62E0
:10243000396A7868FFF7A3FB034687F82F3097F8CF
:102440002F30002B48D13B6A013B3B623B6A002B9B
:1024500042D07B681A693B6A5B01D31A19467868D7
:10246000FFF77CFA034687F82F3097F82F30002BC0
:1024700032D17B6820331846FFF7E5FD0346FB7633
:102480007B689B691946F869FEF7A3FE034687F847
:102490002F3097F82F30002B1DD1FB69D8687B684F
:1024A000D9693B6ADAB2FB7EFFF7C2FCFB69012205
:1024B000DA7000217868FFF7CCFA034687F82F30EE
:1024C00097F82F30002B07D13B6A013B3B623B6AF8
:1024D000002BD5D100E000BF97F82F30002B28D17A
:1024E0007B689B691946F869FEF773FE034687F817
:1024F0002F3097F82F30002B1BD17B68DB6920220F
:1025000000211846FEF733FD7B68D8697B682033CD
:102510000B221946FEF70BFD7B6893F82B207B6896
:10252000DB690C3302F01802D2B21A70FB69012287
:10253000DA7097F82F3018463037BD4680BD00BF9F
:102540004FECC44E80B586B000AF78607B681B68E6
:102550003B617B681B69FB607B68DB6AB3F1FF3F13
:1025600007D07B68DB6A19467868FFF7F7F90346FE
:1025700000E00023FB75FB7D002B28D17B689B6965
:1025800019463869FEF725FE0346FB75FB7D002BD7
:1025900015D17B68DB69E5221A703B690122DA708C
:1025A0007B681B69FA689A420BD900217868FFF7AB
:1025B00050FA0346FB75FB7D002BDFD002E000BF25
:1025C00000E000BFFB7D042B01D10223FB75FB7DE6
:1025D00018461837BD4680BD80B586B000AF78601C
:1025E00039607B681B68BB603B6800229A757B681A
:1025F0009B69002B00F001817B68DB6AB3F1FF3F30
:102600004ED00023BB8100233B613B697B6134E0FA
:10261000BB68DA687B69591C79615B0013441B88CD
:10262000FB81BB89002B0AD1FB89B3F5584F06D338
:10263000FB89B3F5604F02D2FB89BB811DE0BB89EA
:102640001A04FB8942EA03003B6910333A681344D9
:10265000991D3B69C3F1FF031A46FEF746FD034689
:10266000FB81FB89002B02D100233B610DE0FB893C
:102670003A6913443B610023BB81BB68DA687B691C
:102680005B0013441B88002BC2D1BB89002B01D0F7
:1026900000233B613A683B691344163300221A70E9
:1026A00000233B613B697B6126E07B68DA697B69DB
:1026B000591C796113441B78FB81FB89202B00D1C5
:1026C0001AE0FB89052B01D1E523FB817B69092BEE
:1026D00009D13B690B2B06D83B695A1C3A613A6811
:1026E00013442E225A723B695A1C3A61FA89D1B2BC
:1026F0003A6813440A465A727B690A2BD5D93A685C
:102700003B691344093300221A703B689B7D002B00
:1027100050D13B69002B07D13B695A1C3A613A689A
:1027200013443F229A7536E000233B613B697B618D
:102730002AE03A687B69134409331B78FB81FB89E3
:10274000402B13D9FB895A2B10D87B68DB690C33DB
:102750001B781A467B69082B01D9102300E0082357
:102760001340002B02D0FB892033FB81FB89D9B2B7
:102770003A683B69134416330A461A707B69013381
:102780007B613B6901333B613A687B6913440933E0
:102790001B78002BCDD13A683B69134416330022D5
:1027A0001A707B68DB690C331B78002B02D13B6805
:1027B00000225A727B68DB69DA7A3B681A727B689E
:1027C000DB691C331846FEF74BFB02463B681A6078
:1027D0007B68DB6916331846FEF72BFB03461A4667
:1027E0003B68DA807B68DB6918331846FEF721FB0B
:1027F00003461A463B689A8000E000BF1837BD4682
:1028000080BDFFFF80B58AB000AF786039603B685B
:102810001B68BB607B681B68DB683B6100237B61D6
:1028200007F108031846FEF71BFCF860FB68B3F1DC
:10283000FF3F01D10623B7E1FB68B3F5803F09D321
:10284000FB68190C7B695A1C7A615B003A69134476
:102850008AB21A80FB68BB84BB8C1F2B23D9BB8C2C
:102860002F2B20D0BB8C5C2B1DD0BB8C7F2B09D891
:10287000BB8C1946A548FEF7B9FB0346002B01D0D7
:10288000062391E17B69FE2B01D906238CE17B694C
:102890005A1C7A615B003A691344BA8C1A80BFE70C
:1028A000BB680133BB60BB681B782F2BF8D0BB68BB
:1028B0001B785C2BF4D0BA683B681A60BB8C1F2B6A
:1028C00001D8042300E0002387F8263011E07B695B
:1028D00003F10043013B5B003A6913441B88BB844E
:1028E000BB8C202B02D0BB8C2E2B06D17B69013BED
:1028F0007B617B69002BEAD100E000BF7B695B0054
:102900003A69134400221A807B69002B01D1062307
:102910004AE10023BB6102E0BB690133BB61BB69D3
:102920005B003A6913441B88202BF5D0BB69002B50
:1029300006D1BB695B003A6913441B882E2B09D171
:1029400097F8263043F0030387F8263002E07B69CE
:10295000013B7B617B69002B09D07B6903F100435C
:10296000013B5B003A6913441B882E2BEFD17B6837
:1029700020330B2220211846FEF7F9FA002387F8AE
:10298000273000233B620823FB61BB695A1CBA61F4
:102990005B003A6913441B88BB84BB8C002B00F09E
:1029A000B280BB8C202B06D0BB8C2E2B0AD1BA69EF
:1029B0007B699A4206D097F8263043F0030387F8E4
:1029C00026309FE03A6AFB699A4203D2BA697B6972
:1029D0009A4224D1FB690B2B06D197F8263043F09D
:1029E000030387F8263098E0BA697B699A4205D0DC
:1029F00097F8263043F0030387F82630BA697B69DD
:102A00009A4200F289807B69BB6108233B620B23F9
:102A1000FB6197F827309B0087F8273072E0BB8C6A
:102A20007F2B18D997F8263043F0020387F8263019
:102A3000BB8C40F2B511184601F06EFE0346BB8414
:102A4000BB8C03F08003002B05D0BB8C03F07F030D
:102A50002F4AD35CBB84BB8CFF2B1AD9FB69013B8B
:102A60003A6A9A4208D397F8263043F0030387F86E
:102A70002630FB693B6245E0BB8C1B0A99B23B6A7E
:102A80005A1C3A62C9B27A6813440A4683F8202075
:102A90002EE0BB8C002B07D0BB8C19461D48FEF7DF
:102AA000A5FA0346002B08D05F23BB8497F8263095
:102AB00043F0030387F826301AE0BB8C402B08D97B
:102AC000BB8C5A2B05D897F8273043F0020387F8C0
:102AD0002730BB8C602B0BD9BB8C7A2B08D897F88E
:102AE000273043F0010387F82730BB8C203BBB84A1
:102AF0003B6A5A1C3A62BA8CD1B27A6813440A46CD
:102B000083F8202041E700BF07E000BF9C170400C6
:102B10001C170400A817040000BF7B6893F820303E
:102B2000E52B03D17B68052283F82020FB69082B65
:102B300004D197F827309B0087F8273097F8273083
:102B400003F00C030C2B05D097F8273003F0030398
:102B5000032B05D197F8263043F0020387F826307F
:102B600097F8263003F00203002B17D197F827308F
:102B700003F00103002B05D097F8263043F0100333
:102B800087F8263097F8273003F00403002B05D090
:102B900097F8263043F0080387F826307B6897F8CB
:102BA000262083F82B20002318462837BD4680BDF9
:102BB00080B586B000AF786039607B681B683B6188
:102BC00002E03B6801333B603B681B782F2BF8D059
:102BD0003B681B785C2BF4D07B6800229A603B68D2
:102BE0001B781F2B0AD87B68802283F82B200021BA
:102BF0007868FEF7B3FE0346FB7543E03B46194693
:102C00007868FFF7FFFD0346FB75FB7D002B34D191
:102C10007868FFF7DFFA0346FB757B6893F82B3083
:102C2000FB73FB7D002B0AD0FB7D042B27D1FB7BA4
:102C300003F00403002B22D10523FB751FE0FB7B6F
:102C400003F00403002B1CD17B689B7903F0100375
:102C5000002B02D10523FB7514E03B6903F134021C
:102C60007B681B69C3F30803134419463869FEF7F0
:102C7000CDFF02467B689A60C0E700BF02E000BF5C
:102C800000E000BFFB7D18461837BD4680BD80B40C
:102C900089B000AF78604FF0FF337B617B681B68C1
:102CA0003B613B69FB613B69002B01D17B692DE0F6
:102CB000FB695A1CFA611B78FB73FB7B1F2B02D943
:102CC000FB7B3A2BF4D1FB7B3A2B1CD10123BB615C
:102CD0003B691B782F2B0CD93B691B78392B08D803
:102CE0003B690233FA699A4203D13B691B78303B56
:102CF000BB61BB69002B04DCBB697B617B68FA6943
:102D00001A607B6902E000237B617B6918462437E7
:102D1000BD4680BC7047FFFF80B582B000AF7860D1
:102D200039607B680022DA707B684FF0FF321A63EB
:102D300039687868FEF74DFA0346002B01D004236A
:102D400038E07B68343303F5FF731846FEF771F8FB
:102D500003461A464AF655239A4201D0032329E036
:102D60007B6893F83430E92B09D07B6893F83430D2
:102D7000EB2B04D07B6893F83430E82B19D17B68B7
:102D80003433363303220D491846FEF709F903465A
:102D9000002B01D100230DE07B6834335233052230
:102DA00007491846FEF7FCF80346002B01D1002323
:102DB00000E0022318460837BD4680BDB017040066
:102DC000B417040080B596B000AFF860B960134640
:102DD000FB71BB6800221A60F868FFF758FFF863C0
:102DE000FB6B002B01DA0B233BE2A84AFB6B52F88A
:102DF0002330BB63BB6B002B01D10C2331E2BB68DA
:102E0000BA6B1A60FB7923F00103FB71BB6B1B7873
:102E1000002B1AD0BB6B5B78184601F0DDFF034630
:102E200087F8373097F8373003F00103002B0CD1C7
:102E3000FB79002B07D097F8373003F00403002B01
:102E400001D00A230DE200230BE2BB6B00221A70B3
:102E5000FB6BDAB2BB6B5A70BB6B5B78184601F048
:102E600009FF034687F8373097F8373003F001033E
:102E7000002B01D00323F4E1FB79002B07D097F856
:102E8000373003F00403002B01D00A23E9E10023CB
:102E90003B65396DB86BFFF73FFF034687F8573046
:102EA00097F85730022B4BD100233B641FE0BB6BDC
:102EB00003F134023B6C1B0103F5DF7313443B63E6
:102EC0003B6B04331B78002B06D03B6B0833184652
:102ED000FDF7C6FF024600E000223B6C9B0007F1B5
:102EE00058010B4443F8442C3B6C01333B643B6C6E
:102EF000032BDCD900233B643B6C002B02D03B6CE2
:102F0000013B3B643B6C9B0007F15802134453F8B0
:102F1000443C3B653B6D002B05D0396DB86BFFF72A
:102F2000FBFE034600E0032387F8573097F857303D
:102F3000012B05D93B6C01333B643B6C032BE1D97E
:102F400097F85730042B01D101238AE197F85730C5
:102F5000012B01D90D2384E1BB6B34330B331846AD
:102F6000FDF767FF0346B3F5007F01D00D2378E13D
:102F7000BB6B343316331846FDF75BFF0346FB6427
:102F8000FB6C002B06D1BB6B343324331846FDF7A2
:102F900067FFF864BB6BFA6CDA61BB6B93F8442093
:102FA000BB6B9A70BB6B9B78012B05D0BB6B9B787E
:102FB000022B01D00D2354E1BB6B9B781A46FB6CAE
:102FC00002FB03F3FB64BB6B93F841309AB2BB6B1B
:102FD0005A81BB6B5B89002B08D0BB6B5B891A469F
:102FE000BB6B5B89013B1340002B01D00D2338E103
:102FF000BB6B343311331846FDF71BFF03461A46EB
:10300000BB6B1A81BB6B1B8903F00F039BB2002BB8
:1030100001D00D2325E1BB6B343313331846FDF784
:1030200008FF0346BB64BB6C002B06D1BB6B34337B
:1030300020331846FDF714FFB864BB6B34330E33EE
:103040001846FDF7F6FE0346FB85FB8D002B01D1EC
:103050000D2306E1FA8DFB6C1344BA6B1289120939
:1030600092B21344BB62BA6CBB6A9A4201D20D237E
:10307000F7E0BA6CBB6AD31ABA6B5289B3FBF2F3AE
:103080007B627B6A002B03D10D23EAE080340010C1
:10309000002387F857307B6A744A934202D803238F
:1030A00087F857307B6A4FF6F572934202D80223B5
:1030B00087F857307B6A40F6F572934202D80123B5
:1030C00087F8573097F85730002B01D10D23C8E00F
:1030D0007B6A9A1CBB6B9A61BB6B3A6D1A62FA8D64
:1030E0003B6D1A44BB6B5A623A6DBB6A1A44BB6BA8
:1030F000DA6297F85730032B1ED1BB6B34332A3377
:103100001846FDF796FE0346002B01D00D23A8E0DC
:10311000BB6B1B89002B01D00D23A2E0BB6B3433AA
:103120002C331846FDF79CFE0246BB6B9A62BB6BC4
:103130009B699B007B641FE0BB6B1B89002B01D14B
:103140000D238EE0BB6B5A6AFB6C1A44BB6B9A6210
:1031500097F85730022B03D1BB6B9B695B000AE0E9
:10316000BB6B9A6913465B0013445A08BB6B9B699F
:1031700003F0010313447B64BB6BDA697B6C03F2DD
:10318000FF135B0A9A4201D20D236AE0BB6B4FF03A
:10319000FF325A61BB6B5A69BB6B1A61BB6B8022F1
:1031A0001A7197F85730032B49D1BB6B3433303346
:1031B0001846FDF73EFE0346012B40D13B6D01331F
:1031C0001946B86BFEF705F80346002B37D1BB6BE9
:1031D00000221A71BB6B343303F5FF731846FDF7F9
:1031E00028FE03461A464AF655239A4227D1BB6B5E
:1031F00034331846FDF734FE02461D4B9A421ED169
:10320000BB6B343303F5F2731846FDF729FE024613
:10321000184B9A4213D1BB6B343303F5F473184641
:10322000FDF71EFE0246BB6B5A61BB6B343303F5E0
:10323000F6731846FDF714FE0246BB6B1A61BB6BB2
:1032400097F857201A700C4B1B8801339AB20A4B1F
:103250001A80094B1A88BB6BDA80BB6B074ADA60AD
:10326000002318465837BD4680BD00BFF5FFFF0F4D
:1032700052526141727241618434001088340010EE
:1032800080B584B000AF786039600923FB737B6838
:10329000002B1CD07B681B68002B18D07B681B6838
:1032A0001B78002B13D07B689A887B681B68DB88AF
:1032B0009A420CD17B681B685B78184601F08CFD44
:1032C000034603F00103002B01D10023FB73FB7BBA
:1032D000002B02D17B681B6800E000233A68136072
:1032E000FB7B18461037BD4680BDFFFF80B588B018
:1032F00000AFF860B9601346FB71BB683B6107F132
:1033000010031846FFF7C3FCF861FB69002B01DAD4
:103310000B2325E0144AFB6952F82330BB61BB69DB
:10332000002B02D0BB6900221A70FB68002B02D070
:10333000FB6800221A70FA680B49FB6941F82320E8
:10334000FB79002B01D100230AE007F10C0107F102
:10335000080300221846FFF735FD0346FB75FB7D89
:1033600018462037BD4680BD8034001090B599B016
:1033700000AFF860B9601346FB71FB68002B01D108
:10338000092372E1FB7903F03F03FB71FA7907F13E
:10339000100107F108031846FFF714FD034687F8EC
:1033A0005F3097F85F30002B40F056813B697B61BE
:1033B000BA6807F1140311461846FFF7F9FB0346F4
:1033C00087F85F3097F85F30002B07D197F83F30D0
:1033D0005BB2002B02DA062387F85F30FB7903F03B
:1033E0001C03002B73D097F85F30002B10D097F898
:1033F0005F30042B07D107F114031846FEF7AAFF2C
:10340000034687F85F30FB7943F00803FB7110E057
:10341000BB7E03F01103002B03D0072387F85F3036
:1034200007E0FB7903F00403002B02D0082387F8A0
:103430005F3097F85F30002B63D1FB7903F008030E
:10344000002B5ED03B693A6B11461846FEF7DEFB57
:1034500038653B6B03F10E0421F07CFD03461946F1
:103460002046FDF739FD3B6B0B3320221A703B6978
:10347000396B00221846FEF7E8FB3B6B1C3300213A
:103480001846FDF729FD3B690122DA703B6D002BE0
:1034900037D03B691B6BFB6407F114030022396DC5
:1034A0001846FEF7DDF8034687F85F3097F85F307F
:1034B000002B26D13B69F96C1846FDF78AFE0346BE
:1034C00087F85F303B693A6D013A1A6119E097F865
:1034D0005F30002B15D1BB7E03F01003002B03D00F
:1034E000042387F85F300CE0FB7903F00203002B24
:1034F00007D0BB7E03F00103002B02D0072387F81F
:103500005F3097F85F30002B0FD1FB7903F0080391
:10351000002B03D0FB7943F04003FB713B691A6B2E
:10352000FB681A623A6BFB685A6297F85F30002BAF
:1035300040F092803B693A6B11461846FEF766FBF5
:103540000246FB689A603B6B1C331846FDF788FC0B
:103550000246FB68DA603A69FB681A603B69DA8800
:10356000FB689A80FB68FA791A74FB6800225A7427
:10357000FB680022DA61FB6800225A61FB6828338D
:103580004FF4007200211846FDF7F1FCFB7903F0BF
:103590002003002B60D0FB68DB68002B5CD0FB684D
:1035A000DA68FB685A613B695B895B02BB64FB6854
:1035B0009B68BB65FB68DB687B6516E0FB68B96DE3
:1035C0001846FDF7BFFEB865BB6D012B02D802237C
:1035D00087F85F30BB6DB3F1FF3F02D1012387F85D
:1035E0005F307A6DBB6CD31A7B6597F85F30002B28
:1035F00003D17A6DBB6C9A42E0D8FB68BA6D9A61D0
:1036000097F85F30002B27D17B6DC3F30803002BA5
:1036100022D03B69B96D1846FDF776FE78647B6C65
:10362000002B03D1022387F85F3015E07B6D5A0A27
:103630007B6C1A44FB68DA613B695878FB6803F1DC
:103640002801FB68DA69012301F0D0FB0346002B57
:1036500002D0012387F85F3097F85F30002B02D04B
:10366000FB6800221A6097F85F3018466437BD4641
:1036700090BD80B58EB000AFF860B9607A603B60F5
:10368000BB687B623B6800221A60FB6807F114028A
:1036900011461846FFF7F4FD034687F8373097F8D0
:1036A0003730002B07D1FB685B7C87F8373097F801
:1036B0003730002B02D097F8373009E1FB681B7CCC
:1036C00003F00103002B01D1072301E1FB68DA6855
:1036D000FB685B69D31A3B627A683B6A9A4240F2A4
:1036E000F2803B6A7B60EEE0FB685B69C3F3080332
:1036F000002B40F0BA80FB685B695B0A7A695289EB
:10370000013A1340FB61FB69002B23D1FB685B6925
:10371000002B03D1FB689B683B6307E0FA68FB68FA
:103720009B6919461046FDF70DFE38633B6B012B74
:1037300004D8FB6802225A740223C9E03B6BB3F140
:10374000FF3F04D1FB6801225A740123C0E0FB68EB
:103750003A6B9A617A69FB689B6919461046FDF7D6
:10376000D3FDB861BB69002B04D1FB6802225A74F7
:103770000223ADE0BA69FB691344BB617B685B0A55
:10378000BB62BB6A002B39D0FA69BB6A13447A6901
:103790005289934205D97B695B891A46FB69D31A22
:1037A000BB627B695878BB6ABA69796A01F01EFB13
:1037B0000346002B04D0FB6801225A74012387E0E2
:1037C000FB681B7C5BB2002B14DAFB68DA69BB690F
:1037D000D31ABA6A9A420DD9FB68DA69BB69D31A5F
:1037E0005B027A6AD018FB6828334FF400721946DE
:1037F000FDF79DFBBB6A5B02FB6250E0FB68DB6987
:10380000BA699A422ED0FB681B7C5BB2002B18DA97
:103810007B695878FB6803F12801FB68DA690123AA
:1038200001F020FB0346002B04D0FB6801225A74F0
:1038300001234DE0FB681B7C03F07F03DAB2FB68D9
:103840001A747B695878FB6803F128010123BA696F
:1038500001F0CCFA0346002B04D0FB6801225A7415
:10386000012335E0FB68BA69DA61FB685B69C3F381
:103870000803C3F50073FB62FA6A7B689A4201D9B8
:103880007B68FB62FB6803F12802FB685B69C3F39A
:1038900008031344FA6A1946786AFDF748FB7A6808
:1038A000FB6AD31A7B603B681A68FB6A1A443B6860
:1038B0001A607A6AFB6A13447B62FB685A69FB6A86
:1038C0001A44FB685A617B68002B7FF40DAF00231C
:1038D00018463837BD4680BD80B58CB000AFF86063
:1038E000B9607A603B60BB68FB613B6800221A608C
:1038F000FB6807F1100211461846FFF7C1FC0346AA
:1039000087F82F3097F82F30002B07D1FB685B7CAE
:1039100087F82F3097F82F30002B02D097F82F30F0
:103920003FE1FB681B7C03F00203002B01D107235E
:1039300037E1FB685A697B681A44FB685B699A4205
:1039400080F02181FB685B69DB437B601BE1FB68E6
:103950005B69C3F30803002B40F0D780FB685B6909
:103960005B0A3A695289013A1340BB61BB69002B7B
:1039700037D1FB685B69002B0CD1FB689B68BB628D
:10398000BB6A002B0ED1FB6800211846FDF7CDFE67
:10399000B86207E0FA68FB689B6919461046FDF7B4
:1039A000C4FEB862BB6A002B00F0F280BB6A012B38
:1039B00004D1FB6802225A740223F2E0BB6AB3F11D
:1039C000FF3F04D1FB6801225A740123E9E0FB6840
:1039D000BA6A9A61FB689B68002B02D1FB68BA6ADD
:1039E0009A60FB681B7C5BB2002B18DA3B69587845
:1039F000FB6803F12801FB68DA69012301F032FA60
:103A00000346002B04D0FB6801225A740123C8E04E
:103A1000FB681B7C03F07F03DAB2FB681A743A6917
:103A2000FB689B6919461046FDF76EFC78617B695F
:103A3000002B04D1FB6802225A740223B1E07A6998
:103A4000BB6913447B617B685B0A3B623B6A002B6A
:103A50003CD0BA693B6A13443A695289934205D90A
:103A60003B695B891A46BB69D31A3B623B6958784C
:103A70003B6A7A69F96901F0F5F90346002B04D035
:103A8000FB6801225A7401238BE0FB68DA697B69C9
:103A9000D31A3A6A9A4215D9FB6803F12800FB68E9
:103AA000DA697B69D31A5B02FA6913444FF4007236
:103AB0001946FDF73CFAFB681B7C03F07F03DAB282
:103AC000FB681A743B6A5B027B623FE0FB68DB6960
:103AD0007A699A4216D0FB685A69FB68DB689A4299
:103AE00010D23B695878FB6803F1280101237A69F9
:103AF00001F07CF90346002B04D0FB6801225A74C4
:103B000001234EE0FB687A69DA61FB685B69C3F305
:103B10000803C3F500737B627A6A7B689A4201D915
:103B20007B687B62FB6803F12802FB685B69C3F377
:103B3000080313447A6AF9691846FDF7F8F9FB6837
:103B40001B7C63F07F03DAB2FB681A747A687B6AC5
:103B5000D31A7B603B681A687B6A1A443B681A6018
:103B6000FA697B6A1344FB61FB685A697B6A1A44F1
:103B7000FB685A61FB68DA68FB685B699A4238BF88
:103B80001A46FB68DA607B68002B7FF4E0AE00E049
:103B900000BFFB681B7C43F04003DAB2FB681A7479
:103BA000002318463037BD4680BD80B586B000AFD3
:103BB00078607B6807F1080211461846FFF760FB42
:103BC0000346FB75FB7D002B68D17B681B7C03F0F3
:103BD0004003002B62D07B681B7C5BB2002B15DAA4
:103BE000BB6858787B6803F128017B68DA69012398
:103BF00001F038F90346002B01D001234FE07B6828
:103C00001B7C03F07F03DAB27B681A7421F0A2F9FF
:103C10003861BA687B681B6A19461046FDF7D9FA05
:103C20000346FB75FB7D002B38D17B685B6AFB602C
:103C3000FB680B331A78FB680B3342F02002D2B2D8
:103C40001A707B6818687B689B681A46F968FDF7EC
:103C5000FCFFFB6803F11C027B68DB681946104619
:103C6000FDF73AF9FB68163339691846FDF734F960
:103C7000FB68123300211846FDF714F9BB680122D6
:103C8000DA70BB681846FDF7D1FA0346FB757B680E
:103C90001B7C23F04003DAB27B681A74FB7D184664
:103CA0001837BD4680BD80B584B000AF78607868B5
:103CB000FFF77BFF0346FB73FB7B002B0ED17B687A
:103CC00007F1080211461846FFF7DAFA0346FB73BC
:103CD000FB7B002B02D17B6800221A60FB7B18461D
:103CE0001037BD4680BD80B588B000AF78603960C0
:103CF0007B6807F1080211461846FFF7C1FA034630
:103D0000FB77FB7F002B02D17B685B7CFB77FB7F23
:103D1000002B01D0FB7F0FE17B68DB683A689A4299
:103D200008D97B681B7C03F00203002B02D17B685F
:103D3000DB683B607B685B693B6100237B617B6880
:103D40007A695A613B68002B00F0A780BB685B89E9
:103D50005B02FB603B69002B1BD03B685A1EFB6873
:103D6000B2FBF3F23B69591EFB68B1FBF3F39A42D5
:103D70000FD33B695A1EFB685B421A407B685A614D
:103D80007B685B693A68D31A3B607B689B69BB615F
:103D900022E07B689B68BB61BB69002B19D17B6803
:103DA00000211846FDF7C1FCB861BB69012B04D1A5
:103DB0007B6802225A740223BEE0BB69B3F1FF3F65
:103DC00004D17B6801225A740123B5E07B68BA698B
:103DD0009A607B68BA699A61BB69002B5DD03AE052
:103DE0003A68FB68D31A3B607B685A69FB681A44DF
:103DF0007B685A617B681B7C03F00203002B0BD0AD
:103E00007B68B9691846FDF790FCB861BB69002B67
:103E100008D100233B6022E07B68B9691846FDF7B2
:103E200091FAB861BB69B3F1FF3F04D17B6801220D
:103E30005A74012380E0BB69012B04D9BB689B69DC
:103E4000BA699A4204D37B6802225A74022373E04F
:103E50007B68BA699A613A68FB689A42C0D87B6805
:103E60005A693B681A447B685A613B68C3F308038C
:103E7000002B12D0BB68B9691846FDF745FA786186
:103E80007B69002B04D17B6802225A74022353E021
:103E90003B685B0A7A6913447B617B685A697B687B
:103EA000DB689A420AD97B685A697B68DA607B686A
:103EB0001B7C43F04003DAB27B681A747B685B6951
:103EC000C3F30803002B36D07B68DB697A699A421A
:103ED00031D07B681B7C5BB2002B18DABB6858784A
:103EE0007B6803F128017B68DA69012300F0BAFFDF
:103EF0000346002B04D07B6801225A7401231BE087
:103F00007B681B7C03F07F03DAB27B681A74BB68A2
:103F100058787B6803F1280101237A6900F066FF75
:103F20000346002B04D07B6801225A74012303E06E
:103F30007B687A69DA61FB7F18462037BD4680BD11
:103F400080B584B000AF786039607B68002B01D108
:103F500009234AE007F108013B4600221846FEF714
:103F600031FF0346FB73FB7B002B37D1BA687B68BC
:103F70001A603B6819467868FEF71AFE0346FB7321
:103F8000FB7B002B25D17B6893F82B305BB2002B99
:103F900012DB7B689B7903F01003002B0AD0BA6810
:103FA0007B68DB6919461046FDF730FE02467B68E8
:103FB0009A6001E00523FB73FB7B002B09D1BB68F2
:103FC000DA887B689A8000217868FDF7C7FC034691
:103FD000FB73FB7B042B01D10523FB73FB7B002BC5
:103FE00002D07B6800221A60FB7B18461037BD4662
:103FF00080BD80B584B000AF78607B6807F10802AF
:1040000011461846FFF73CF90346FB73FB7B002B78
:1040100002D17B6800221A60FB7B18461037BD4630
:1040200080BD80B584B000AF786039607B6807F1EF
:10403000080211461846FFF723F90346FB73FB7B82
:10404000002B26D13B68002B06D100217868FDF7B4
:1040500085FC0346FB731CE000217868FEF713F82B
:104060000346FB73FB7B042B01D10023FB73FB7B1B
:10407000002B0ED139687868FEF7AEFA0021786817
:10408000FDF7E7FC0346FB73FB7B042B01D1002308
:10409000FB73FB7B18461037BD4680BD80B590B0E2
:1040A00000AF7860396007F10C013B1D0022184613
:1040B000FEF788FE034687F83F3097F83F30002B25
:1040C0001FD17A6807F10C0311461846FEF770FD00
:1040D000034687F83F3097F83F30002B11D197F80F
:1040E00037305BB2002B03DA062387F83F3008E055
:1040F0003B68002B05D007F10C0339681846FEF722
:104100006BFA97F83F3018464037BD4680BD80B502
:104110009EB000AF786000233B6707F10C013B1DA8
:1041200002221846FEF74EFE034687F8773097F8CE
:104130007730002B40F08380FB683B647A6807F19E
:10414000400311461846FEF733FD034687F87730E3
:1041500097F87730002B72D197F86B305BB2002B59
:1041600003DA062387F8773008E097F8463003F043
:104170000103002B02D0072387F8773097F87730B8
:10418000002B34D1FB68FA6D11461846FDF73EFD51
:10419000386797F8463003F01003002B27D0FB68F0
:1041A0003B613B6FBB6107F1100300211846FDF72F
:1041B000D5FB034687F8773097F87730002B16D178
:1041C00007F1100300211846FDF75DFF034687F84D
:1041D000773097F87730002B02D1072387F87730B4
:1041E00097F87730042B02D1002387F8773097F8BF
:1041F0007730002B23D107F140031846FEF7A2F9D0
:10420000034687F8773097F87730002B0CD13B6F57
:10421000002B09D007F140030022396F1846FDF743
:104220001FFA034687F8773097F87730002B06D1CE
:10423000FB681846FCF7FAFF034687F8773097F8D3
:10424000773018467837BD4680BD80B598B000AF4E
:10425000786007F10C013B1D02221846FEF7B2FD03
:10426000034687F85F3097F85F30002B40F0B4804A
:10427000FB683B627A6807F1200311461846FEF797
:1042800097FC034687F85F3097F85F30002B02D128
:10429000082387F85F3097F85F30042B40F09C804C
:1042A000FB683B6107F1100300211846FDF73DFA5A
:1042B000B865002387F85F30BB6D002B02D1072360
:1042C00087F85F30BB6D012B02D1022387F85F3086
:1042D000BB6DB3F1FF3F02D1012387F85F3020F0BF
:1042E00039FE786597F85F30002B4BD1FB68B96DCC
:1042F0001846FDF7EBFA034687F85F3097F85F3012
:10430000002B3FD1FB6834330B2220211846FCF7E9
:104310002EFEFB682E2283F83420FB68102283F8DF
:104320003F20FB6834331633796D1846FCF7D4FD13
:10433000F868FB683433BA6D1946FDF786FCFB68F4
:10434000343303F12000FB68343320221946FCF794
:10435000EEFDFB682E2283F85520BB6A3B65F868AA
:10436000FB68343320333A6D1946FDF76EFCFB6869
:104370000122DA7007F120031846FDF7EBFF034630
:1043800087F85F3097F85F30002B1ED1FB6B163338
:10439000796D1846FCF7A0FDFB68F96BBA6D1846FD
:1043A000FDF753FCFB6B0B3310221A70FB680122E4
:1043B000DA7097F85F30002B0ED1FB681846FCF7D7
:1043C00035FF034687F85F3006E007F1100300224F
:1043D000B96D1846FDF744F997F85F301846603715
:1043E000BD4680BD90B5A7B000AF786039603B4650
:1043F0001846FEF74CFC07F128013B1D0222184627
:10440000FEF7E0FC034687F8973097F89730002BCB
:1044100040F0DC80BB6AFB657A6807F15C031146FB
:104420001846FEF7C5FB034687F8973097F8973094
:10443000002B08D197F8873003F0A003002B02D09F
:10444000062387F8973097F89730002B40F0BE800E
:10445000B96F07F1080320221846FCF768FD07F141
:104460005C0107F12C0330221846FCF760FD3A6826
:1044700007F12C0311461846FEF79AFB034687F80E
:10448000973097F89730002B0CD17A6B7B6E9A425D
:1044900005D1FA6BFB6E9A4201D1042300E0082398
:1044A00087F8973097F89730042B78D107F12C03D1
:1044B0001846FDF74FFF034687F8973097F8973077
:1044C000002B6CD1BB6CC7F89030D7F8903003F15B
:1044D0000D0007F108030D3313221946FCF727FDE1
:1044E000D7F890300B33FA7C1A70D7F890300B3332
:1044F0001B7803F01003002B0AD1D7F890300B3350
:104500001A78D7F890300B3342F02002D2B21A70EA
:10451000BB6A0122DA70D7F890300B331B7803F0B6
:104520001003002B3BD07A6E7B6B9A4237D0BC6A6B
:10453000BB6AD7F890101846FDF768FB034619468A
:104540002046FCF7E1FEC7F88C00D7F88C30002B32
:1045500003D1022387F8973021E0BB6AD7F88C108B
:104560001846FCF736FE034687F89730BB6A3433AB
:104570002033C7F8903097F89730002B0FD1D7F839
:10458000903001331B782E2B09D1BB6A7A6BD7F898
:1045900090101846FDF759FBBB6A0122DA7097F8B4
:1045A0009730002B12D107F15C031846FDF7CAFFC4
:1045B000034687F8973097F89730002B06D1BB6AEF
:1045C0001846FCF733FE034687F8973097F8973084
:1045D00018469C37BD4690BD80B596B000AFF860D8
:1045E000B9607A6007F1140107F10C030022184644
:1045F000FEF7E8FB034687F8573097F85730002B53
:1046000056D1BB68002B53D07B69BB6100233B6252
:1046100007F1180300211846FDF7A0F9034687F8B3
:10462000573097F85730002B38D107F11803012184
:104630001846FDF728FD034687F8573097F857309E
:10464000002B2BD10023FB64FB6C3B6510E07A6BE5
:104650003B6D591C396513441B78A7F84A30FB6C35
:104660005A1CFA64BA681344B7F84A20D2B21A70D6
:104670003B6D0A2BEBD9BA68FB6C134400221A700D
:10468000FB6C002B09D0FB6C013BFB64BA68FB6C34
:1046900013441B78202BEED000E000BF97F8573072
:1046A000042B05D1BB6800221A70002387F857300D
:1046B00097F85730002B29D17B68002B26D07A69D8
:1046C0007B691B6A19461046FCF783FD034687F891
:1046D000573097F85730002B18D17B691B78032B84
:1046E00004D0042B05D16423FB6404E04323FB6462
:1046F00001E02723FB647B6903F13402FB6C134464
:104700001846FCF7ADFB02467B681A6097F85730F5
:1047100018465837BD4680BD80B485B000AF78607C
:104720000B467B800023FB81164BBB607B687F2B95
:1047300002D87B68FB811FE07B68B3F5803F1BD20A
:104740007B8840F2B512934216D10023FB8102E030
:10475000FB890133FB81FB897F2B08D8FB895B0038
:10476000BA6813441B881A467B689342F0D1FB89D0
:1047700080339BB2DBB2FB81FB8918461437BD4600
:1047800080BC7047BC17040080B485B000AF0346FE
:104790000A46FB801346BB800023FB810F4BBB60A6
:1047A000FB887F2B02D8FB88FB8110E0BB8840F29E
:1047B000B51293420BD1FB88FF2B08D8FB8803F17D
:1047C0000043803B5B00BA6813441B88FB81FB8974
:1047D00018461437BD4680BC704700BFBC170400A4
:1047E00080B487B000AF78607B68B3F5803F7DD23E
:1047F0007B687B827B8AB3F5805F01D23E4B00E011
:104800003E4B7B617B699A1C7A611B883B823B8AA9
:10481000002B69D07A8A3B8A9A4265D37B699A1CBD
:104820007A611B88FB81FB891B0ABB81FB89DBB298
:10483000FB817A8A398AFB890B449A424ADABB891E
:10484000082B50D801A252F823F000BF7148010094
:104850008348010099480100A1480100A9480100CE
:10486000B1480100B9480100C1480100C948010030
:104870007A8A3B8AD31A5B007A6913441B887B824D
:1048800027E07A8A3B8AD31A9BB203F001039BB2DA
:104890007A8AD31A7B821CE07B8A103B7B8218E0E9
:1048A0007B8A203B7B8214E07B8A303B7B8210E05A
:1048B0007B8A1A3B7B820CE07B8A08337B8208E090
:1048C0007B8A503B7B8204E07B8AA3F5E3537B82A7
:1048D00000BF08E0BB89002B94D1FB895B007A699B
:1048E00013447B618EE700BF7B8A7B607B68184640
:1048F0001C37BD4680BC7047BC180400B01A0400C9
:1049000080B483B000AF78600B46FB70FB78012B5E
:1049100008D10D4BD3F8C4200B497B681343C1F871
:10492000C4300BE0FB78002B08D1074BD3F8C42030
:104930007B68DB4304491340C1F8C43000BF0C3727
:10494000BD4680BC704700BF00C00F40054B1860DB
:10495000054B1B6813F0100FFAD1024B1868C0B258
:10496000704700BF08C00A400CC00A4010B4214A7A
:10497000136843F00F031360002304E01E4A4FF650
:10498000FF7414600133072BF8D9A1F110020BE07A
:10499000194B19684FF6FF741C60C1F307240346D6
:1049A00003F8024B41701846012A06D9023A134B0C
:1049B0001B6813F0040FFAD0EAE700220EE00F4B59
:1049C0001B6813F0040FFAD00B4B1968C1F30724CE
:1049D000034603F8024B417001321846072AEED90C
:1049E000044A136823F008031B041B0C136010BC5B
:1049F000704700BF00C00A4008C00A400CC00A400F
:104A000030B41F4A136843F00F031360002409E019
:104A1000034613F8025B427842EA05221948026015
:104A200001341846072CF3D9A1F1100403E0154B0B
:104A3000186819601046012C0CD9023C024612F885
:104A4000023B417841EA03210F4B1B6813F0040F2E
:104A5000FAD0ECE7002207E00B4B1B6813F0040FC1
:104A6000FAD0084B1B680132072AF5D9044A1368AB
:104A700023F008031B041B0C136030BC704700BFFD
:104A800000C00A4008C00A400CC00A4008B5084BE4
:104A90001860FF20FFF75AFFFF2803D0044B1B6864
:104AA000002BF6D1FF2814BF0020012008BD00BF55
:104AB0009036001008B5034B00221A70FF20FFF754
:104AC00045FF08BD3880092010B5094B00221A7037
:104AD000FF20FFF73BFF4FF4FA70FFF7D7FF10B14D
:104AE0000124204610BD0446FFF7E4FFF9E700BFAC
:104AF0003C800920104A136843F48013136002239A
:104B0000A2F5A022B43A1360103A072111600432D2
:104B100013600A4B1422C3F88020C3F8A020C3F806
:104B20009020C3F88420064A136843F4807313600E
:104B3000044B00221A707047C4C00F4000C00240EE
:104B4000208009203880092008B5FFF7BDFFFFF756
:104B5000B1FF08BD38B504460D460E4BC8221A6099
:104B6000FF20FFF7F3FEFF2803D10A4B1B68002B41
:104B7000F6D1FE2801D0002038BD29462046FFF797
:104B8000F5FEFF20FFF7E2FEFF20FFF7DFFE01202A
:104B9000F2E700BF8C36001038B505460C464FF4DE
:104BA000FA70FFF773FF034608B9184638BD204670
:104BB000FFF7CCFEFD2C14D04FF400712846FFF710
:104BC0001FFFFF20FFF7C2FEFF20FFF7BFFEFF2001
:104BD000FFF7BCFE00F01F00052814BF00230123CF
:104BE000E3E70123E1E738B504460D4610F0800FF6
:104BF0002CD10C2C04D0FFF75DFFFFF765FFB0B39D
:104C000044F04000FFF7A2FE280EFFF79FFEC5F319
:104C10000740FFF79BFEC5F30720FFF797FEE8B2BA
:104C2000FFF794FEDCB10120082C1AD0FFF78EFEAE
:104C30000C2C18D00A24FF20FFF788FE10F0800FFC
:104C400003D0631E13F0FF04F5D138BD00F07F04DC
:104C500000213720FFF7C7FF0128CAD9F5E79520C3
:104C6000E2E78720E2E7FF20FFF770FEE2E7FF20A0
:104C7000EBE7FFFF08B10120704770B582B0FFF786
:104C800039FF514B1B7813F0020F0DD14F4A1368B7
:104C9000DBB243F4745313600A244CB1FF20FFF7D6
:104CA00055FE013CE4B2F8E7474B1878C0B21AE071
:104CB00000210846FFF797FF0546012815D0444B11
:104CC0001C70FFF7F7FE002C78D0404A1368DBB267
:104CD00043F4745313603C4A137803F0FE031370DB
:104CE000394B1878C0B202B070BD3A4B4FF47A72AB
:104CF0001A604FF4D5710820FFF775FF01283BD1EA
:104D0000254608E0FF20FFF721FE02AB2B4403F805
:104D1000040C0135EDB2032DF4D99DF80630012BBA
:104D2000CDD19DF80730AA2BC9D12A4B1B6833B1CE
:104D30004FF08041A920FFF756FF0028F5D1254B01
:104D40001B68002BBBD000213A20FFF74CFF054623
:104D500048B1B4E7FF20FFF7F9FD02AB2B4403F89D
:104D6000040C0135EDB2032DF4D99DF8043013F095
:104D7000400F21D00C24A2E70021A920FFF733FF28
:104D8000012816D92E46134B1B682BB1002128464B
:104D9000FFF729FF0028F6D10E4B1B68002B8ED0A1
:104DA0004FF400711020FFF71EFF002887D1344612
:104DB00085E70226A925E6E7042480E7FFF7C4FE7D
:104DC000014B01221A708BE70C00001000C00A4052
:104DD000883600108C36001018B9034B1878C0B212
:104DE00070470120704700BF0C00001078BB70B501
:104DF0000D461C466BB3194B1B7813F0010F2AD1DB
:104E0000174B1B7813F0080F00D15202012C17D951
:104E1000122611463046FFF7E6FE58B94FF40071EE
:104E20002846FFF797FE18B105F50075013CF5D14E
:104E3000122E07D0FFF73EFE201C18BF012070BDC8
:104E40001126E6E700210C20FFF7CDFEF2E7042053
:104E500070470420F3E70320F1E700BF0C000010C7
:104E600088360010002848D170B50D4616461C46FD
:104E7000002B44D0254B1B7813F0010F41D1234B5D
:104E80001B7813F0040F3ED1214B1B7813F0080F51
:104E900000D15602012C1BD013F0060F26D131464B
:104EA0001920FFF7A0FE68B9FC212846FFF774FE21
:104EB00018B105F50075013CF6D1FD210020FFF782
:104EC0006BFEC0B1FFF7F6FD201C18BF012070BDBE
:104ED00031461820FFF787FE0028F3D1FE2128462F
:104EE000FFF75AFE0028EDD00024EBE7214697207B
:104EF000FFF779FED3E70124E4E70420704704209C
:104F0000E5E70320E3E70220E1E700BF0C00001023
:104F100088360010F0B585B0002840F086810D4637
:104F20001746AF4B1C7814F0010440F080813629FD
:104F300000F26F81DFE811F037003E006D01820062
:104F4000DE006D016D016D016D016D016D016D0181
:104F50006D016D016D016D016D016D016D016D01E1
:104F60006D016D016D016D016D016D016D016D01D1
:104F70006D016D016D016D016D016D016D016D01C1
:104F80006D016D016D016D016D016D016D016D01B1
:104F90006D016D016D016D016D016D011B0123013D
:104FA000330143015A01FFF78FFD002840F03381A0
:104FB0000124DFE000210920FFF715FE044608B1B7
:104FC0002C46D7E010216846FFF7C4FD002800F00A
:104FD00024819DF800309B09012B1FD09DF80520EE
:104FE00002F00F029DF80A3002EBD3129DF809304F
:104FF0005B0003F006031A449DF808109DF8073083
:105000009B0003EB91139DF80610890201F44061A7
:105010000B440133073A93403B60ABE09DF8093005
:105020009DF8082003EB02239DF80720120402F4E8
:105030007C12134401339B023B609BE0694B1B785D
:1050400013F0040F20D000218D20FFF7CCFD08B114
:1050500001248FE0FF20FFF779FC10216846FFF75D
:1050600079FD78B9012485E0FF20FFF76FFC013C52
:10507000E4B2002CF8D19DF80A301A0910239340AD
:105080003B6077E03024F4E700210920FFF7ABFD17
:10509000054608B101246DE010216846FFF75AFD6E
:1050A000002800F0BC804F4B1C7814F0020411D093
:1050B0009DF80A305B0003F07E039DF80B2003EBA4
:1050C000D21301339DF80D209209013A93403B60C1
:1050D0002C464FE09DF80A30C3F384029DF80B1074
:1050E000CB0003F0180303EB5113013302FB03332E
:1050F0003B603FE03B4B1B7813F0060F01D10124CE
:1051000038E06A463321FFF705FF002840F0898028
:105110009DF800309B0905D19DF80A3013F0400F2F
:1051200000F0818039687C682E4B1B7813F0080FE3
:1051300001D1490264022020FFF755FD08B1012486
:1051400018E021462120FFF74EFD08B1012411E0AF
:1051500000212620FFF747FD044608B1012409E09D
:1051600047F23050FFF792FC20B9012402E01D4BBA
:105170001B781370FFF79EFC204605B0F0BD0021A0
:105180000920FFF730FD044608B10124F2E71021A1
:105190003846FFF7DFFC0028ECD10124EAE70021C4
:1051A0000A20FFF720FD044608B10124E2E71021A0
:1051B0003846FFF7CFFC0028DCD10124DAE70021D4
:1051C0003A20FFF710FD78B10124D3E7FF20FFF765
:1051D000BDFB07F8010B013CE4B2002CF6D1C9E796
:1051E0000C000010883600100424F6E700218D2002
:1051F000FFF7F9FC044608B10124BBE7FF20FFF7E5
:10520000A5FB40213846FFF7A5FC0028B2D10124B8
:10521000B0E70424AEE72C46ACE72C46AAE701240D
:10522000A8E70124A6E70124A4E70424A4E70324B3
:10523000A2E700BF80B485B000AF7860344B1B6834
:10524000FB60344B1B68BB60314B1B68FA689A42A9
:10525000F4D1304B1B68BA689A42EFD12E4B1B68D1
:1052600003F01003002B17D07B680022DA717B68F3
:1052700000229A717B6800225A717B6800221A71A1
:105280007B680122DA707B6801229A707B6840F2A9
:10529000DE721A80002336E0FB68DBB203F03F03C6
:1052A000DAB27B68DA71FB681B0ADBB203F03F03FA
:1052B000DAB27B689A71FB681B0CDBB203F01F0348
:1052C000DAB27B685A71FB681B0EDBB203F007038E
:1052D000DAB27B681A71BB68DBB203F01F03DAB283
:1052E0007B68DA70BB681B0ADBB203F00F03DAB22B
:1052F0007B689A70BB681B0C9BB2C3F30B039AB21A
:105300007B681A80012318461437BD4680BC70475D
:1053100014400240184002405C4002402F4B9B6802
:10532000C3F34203032B0AD0022B27D0062B42D013
:10533000012B46D02A4B1B682A4AD35C7047274B67
:105340001B7DDBB213F09E0F13D113F0010FF1D0D0
:10535000234B1968214A1278D2B2224842541A6863
:1053600001321A601B68402BE4D11D4B00221A60E9
:10537000E0E71D4A1360194B1B787047184908680D
:10538000164B1B78DBB2174A13540B68D35CDBB2A5
:105390000D2B0CD0124B1A6801321A601B68402B7F
:1053A000C8D100230E4A1360104A1370C2E70F4B96
:1053B00001221A70EEE70C4A136843F480731360FD
:1053C000B8E7064B1B7D13F0200F03D0084B0122DA
:1053D0001A70AFE7064B00221A70ABE700C000401E
:1053E00094360010086F00104C6F001048480010F1
:1053F0000D00001008B5584B1B68012B16D0574BF9
:105400009B68C3F34203032B16D0022B1ED0062B3E
:1054100000F09880012B15D1504B1B7D13F0200F0D
:1054200000F096804E4B01221A700BE000234D4A8B
:105430001360494A1360E2E7484B1B7DDBB213F06F
:105440009E0F00D108BD484A1360FBE7454B196821
:10545000424B1B78DBB2454A53541378DBB2012B25
:1054600015D01378DBB2022B11D01378DBB2802B6E
:105470000DD03C4A1168394B1B78DBB23B48435492
:10548000002313603A4A136801331360DAE7374B9D
:105490001B78DBB2802B1ED0364A136801331360B1
:1054A000304B1B68012B39D0334B1B68862B3DD802
:1054B0002C4B1A6801321A601A682F4B1B689A42EB
:1054C00038D0284B1B68862BBCD10023254A13609B
:1054D0002A4A1370B6E7234B1B68012B16D0264BC4
:1054E0001B68862BAED81F4B1A6801321A601A68E7
:1054F000214B1B689A42E4D11A4B00221A601E4BC2
:105500001968053919480AF0BDFDDAE7154B1B6823
:10551000164AD35C0533184A1360E0E7114B1B6849
:10552000124AD35CDBB2144A1360BDE7124B00226F
:105530001A6087E70B4B00221A6011490B4824F0D0
:10554000DFFEBEE7084A136843F48073136079E70F
:10555000034B00221A7075E78848001000C009400C
:105560000E00001098360010486F0010806E00107A
:1055700024480010204800109C36001049480010B4
:105580001073001070B4214CD4F8C45045F00805D5
:10559000C4F8C4501E4D0126AE601126EE60D4F84A
:1055A000A84104F00304022C27D0032C29D0012C9D
:1055B00020D0184C2468A40861F07F01114349B23F
:1055C0001943C9B2144B19732409B4FBF0F0C0F3AA
:1055D00007221A71C0B218701A7B02F07F021A7388
:1055E000072018720D4A20211160586011600120B7
:1055F00070BC7047074C2468DEE7064C24686408DA
:10560000DAE7044C2468E408D6E700BF00C00F4086
:1056100000C002400000001000C0004000E100E0B7
:10562000F0B4304DD5F8C44044F00074C5F8C4401F
:105630002D4C0226C4F87062C4F874620527C4F8C1
:10564000F87004F5E0240027676094F84C7047F088
:10565000100784F84C7094F84C7047F0200784F8D9
:105660004C7084F85460D5F8A84104F00304B442A7
:105670002CD0032C2ED0012C25D01C4C2468F440B7
:1056800061F07F0111434AB21343DBB2184A13732E
:105690002309B3FBF0F3C3F307211171DBB21370DD
:1056A000137B03F07F031373072313725360114BB3
:1056B0004FF480721A600023852B0FDC0E4A002104
:1056C000D1540133F8E7094C2468D9E7074C246822
:1056D0006408D5E7054C2468E408D1E70120F0BC54
:1056E000704700BF00C00F4000C002400000001023
:1056F00000C0094000E100E0806E0010054B1B7DFA
:1057000013F0200FFAD0034B1870034B00221A70CD
:10571000704700BF00C000400D00001010B50446E7
:10572000207818B10134FFF7E9FFF9E710BD08B59B
:10573000FBF71EF923F030FA002008BD30B583B026
:10574000054604F0C9FE0190036E1C6801A804F030
:10575000D3FE0CB12846A04703B030BD30B583B0AE
:1057600004464FF4807101F018FC204604F0B4FEAA
:105770000190456A01A804F0BFFE15F0020F01D1A7
:1057800003B030BD0121204603F04BF9F8E7F0B536
:1057900083B005460E464FF4807101F016FC284692
:1057A00004F09AFE0190476AB0F92C0084B201A877
:1057B00004F0A2FE022E04D017F0020F05D103B0B0
:1057C000F0BD204607F090FBF6E73146284603F08F
:1057D00028F9F4E770B582B006460C4604F07CFE6A
:1057E0000190C58D01A804F087FEE36893B11B7A90
:1057F00043B115F4807F01D002B070BD3046FFF791
:10580000ADFFF9E715F4807FF6D002213046FFF7AF
:10581000BEFFF1E703213046FFF7B9FFECE700B523
:1058200083B004F059FE0190643005F008F80321BC
:105830000198683005F00BF801A804F05DFE03B094
:105840005DF804FBF0B587B0109C4C340394154C04
:1058500002940D9C01940C9C009402F0E5F906461C
:1058600010B9304607B0F0BD04F036FE05901022A6
:105870000F9901F0C5FB059F07F130040A4D0FCDCC
:105880000FC40FCD0FC495E80F0084E80F00074C3C
:1058900023683B6605A804F02FFE23685B6830464A
:1058A0009847DEE7E95801001000001040000010A2
:1058B00010B586B0002404940B9C03940A9C0294B7
:1058C000099C0194089C0094FFF7BCFF06B010BD32
:1058D00008B521B14FF4807101F05FFB08BD4FF4B2
:1058E000807101F072FBF9E738B50446456801465E
:1058F000284601F08DFB58B323680B3B1D2B24D8A1
:10590000DFE803F0201623271C230F232323232360
:105910002323232323232323232323232323232357
:10592000232E1F4B1B689BB12146284698470FE04A
:105930001C4B1B6821462846984709E02846FFF77C
:10594000FDFE05E02846FFF76AFF204602F09EFDB7
:1059500038BDE3685A681B680D2B07D0202B0FD089
:10596000E368C3B1204602F091FDF1E7002AF7DDBC
:105970002846FFF7F3FE02212846FFF708FFE7E776
:10598000002A03DD2846FFF7E9FEE1E70221284669
:10599000FFF7FDFEDCE700212846FFF799FFE1E76E
:1059A000A03600104400001038B504460D461046DD
:1059B000049A194600F0E6FB02462946204600F00C
:1059C00059FA38BD30B58BB0044624220021684610
:1059D00027F08DFB204604F07FFD0990036E9D6843
:1059E00009A804F089FD0023019300942B68684600
:1059F00098470BB030BD2DE9F0418AB0064604F05F
:105A00006BFD0990446DB0F82E80476A09A804F038
:105A100073FD304602F01EFF0546304602F02AFFB5
:105A20000096002305930493013D069501380790E5
:105A300017F0100F14D00323029305230193684637
:105A4000A047062301936846A047122301936846A6
:105A5000A0470A2301936846A0470AB0BDE8F08139
:105A600018F4807F02D000230293E6E718F0010FBC
:105A700002D001230293E0E702230293DDE7FFFF58
:105A8000034B044A1A60044B5A6A58621046704726
:105A900040000010480000101000001070472DE971
:105AA000F04188B0044604F017FD0790C78DC7F396
:105AB0000026204603F06DFA002876D03546079B75
:105AC000186D07F023FC0DF11008404607F07EF832
:105AD00002AB98E8030083E80300002E67D1079B20
