:1000000000000110B10101002D02010033020100C6
:100010004D0201005302010059020100F6F2F8EF0F
:100020000000000000000000000000005F0201006E
:1000300065020100000000006B02010015060100CE
:100040007702010015F60400770201007702010033
:1000500077020100815A0100770201007702010056
:10006000995B01007702010077020100770201002D
:100070007702010077020100770201007702010098
:100080007702010077020100770201007702010088
:100090007702010077020100770201007702010078
:1000A0007702010077020100770201007702010068
:1000B0007702010077020100770201007702010058
:1000C0007702010077020100770201007702010048
:1000D00009F60400B1BE0200B5F404007702010085
:1000E00077020100AC630700000000109C9A00003A
:1000F000AC6307000000002000000000AC630700B4
:100100000020002000000000AC6307000040002039
:1001100000000000A09A00107C44000000000020B5
:10012000000000000020002000000000004000202F
:100130000000000080B489B000AFF860B9607A6058
:10014000BB68FB61FB68BB6100237B610AE0BA69A5
:10015000131DBB61FB69191DF96112681A607B6987
:1001600004337B617A697B689A42F0D300BF00BF99
:100170002437BD4680BC704780B485B000AF78603E
:1001800039607B68FB600023BB6007E0FB681A1DD9
:10019000FA6000221A60BB680433BB60BA683B682F
:1001A0009A42F3D300BF00BF1437BD4680BC7047EE
:1001B00080B584B000AF1A4BFB6013E0FB681A1DDA
:1001C000FA601B683B60FB681A1DFA601B68BB6025
:1001D000FB681A1DFA601B687B607A68B96838682A
:1001E000FFF7A8FFFB680F4A9342E7D30DE0FB68D7
:1001F0001A1DFA601B68BB60FB681A1DFA601B6859
:100200007B607968B868FFF7B7FFFB68064A9342DE
:10021000EDD300F03BF900F0CBFE41F021FEFEE70C
:10022000E4000100140101003401010080B400AFBA
:10023000FEE780B500AF044805F0C0FE02201EF0C6
:10024000DBFE1FF09DFCFEE7AC4F070080B400AF63
:10025000FEE780B400AFFEE780B400AFFEE780B4F5
:1002600000AFFEE780B400AFFEE780B400AFFEE76A
:1002700080B400AFFEE780B400AFFEE780B400AF0B
:100280007D4BD3F8043103F48073002B57D17A4BA4
:10029000D3F80C3103F00103002B1FD1764BD3F8B8
:1002A000043103F01F03754AB2FBF3F3744A136081
:1002B000714BD3F8A83103F01F03704AB2FBF3F37C
:1002C000704A13606C4BD3F8003103F00103013323
:1002D0006A4AB2FBF3F36C4A1360C8E0664BD3F88A
:1002E000A03103F04003002B09D1654B00221A60B6
:1002F000644B00221A60644B00221A60B7E05E4B28
:10030000D3F8043103F01F035C4AB2FBF3F35C4AF9
:100310001360594BD3F8A83103F01F03574AB2FBBF
:10032000F3F3584A1360544BD3F8003103F0010340
:100330000133524AB2FBF3F3534A136097E04E4B3A
:10034000D3F8883003F48073002B09D14C4B002282
:100350001A604C4B00221A604B4B00221A6086E058
:10036000454BD3F80C3103F00103002B37D1424B3E
:10037000D3F8883003F01F030133404A02FB03F235
:100380003D4BD3F8043103F01F03B2FBF3F33C4AB7
:100390001360394BD3F8883003F01F030133374A19
:1003A00002FB03F2344BD3F8A83103F01F03B2FB76
:1003B000F3F3344A1360304BD3F8883003F01F0353
:1003C00001332E4A02FB03F22B4BD3F8003103F02A
:1003D00001030133B2FBF3F32B4A136047E0264BD2
:1003E000D3F8A03103F04003002B09D1244B0022A5
:1003F0001A60244B00221A60234B00221A6036E058
:100400001D4BD3F8883003F01F0301331B4A02FB56
:1004100003F2194BD3F8043103F01F03B2FBF3F3DB
:10042000174A1360144BD3F8883003F01F030133CD
:10043000124A02FB03F2104BD3F8A83103F01F035A
:10044000B2FBF3F30F4A13600B4BD3F8883003F081
:100450001F030133094A02FB03F2074BD3F80031B3
:1004600003F001030133B2FBF3F3074A136000BF4B
:10047000BD4680BC704700BF00C00F40001BB700E6
:1004800000000010040000100800001080B400AF4D
:10049000244B2122C3F8A02100BF224BD3F8A03166
:1004A00003F04003002BF8D01E4B0122C3F80C21AF
:1004B0001C4B0922C3F884201A4B0122C3F8802068
:1004C000184BAA22C3F88C20164B5522C3F88C2057
:1004D00000BF144BD3F8883003F48063002BF8D0AE
:1004E000104B40F20112C3F804210E4B0122C3F855
:1004F00000210C4B0222C3F8A8210A4B0A4AC3F878
:10050000C420084B4FF48072C3F8C821054B45F254
:100510003A021A60054B4FF480329A6000BFBD4624
:1005200080BC704700C00F40DE87280400ED00E06B
:1005300080B483B000AF03463960FB7197F9073090
:10054000002B0BDA3B68DAB20C49FB7903F00F039E
:10055000043BD200D2B20B441A7609E03B68DAB20F
:10056000074997F90730D200D2B20B4483F8002331
:1005700000BF0C37BD4680BC704700BF00ED00E0F7
:1005800000E100E080B483B000AF0346FB7197F94F
:100590000730002B0ADA0C4AFB7903F00F03043B07
:1005A00013441B7EDBB2DB08DBB208E0074A97F995
:1005B0000730134493F80033DBB2DB08DBB2184694
:1005C0000C37BD4680BC704700ED00E000E100E064
:1005D00080B582B000AF78607B68B3F1807F01D3D3
:1005E000012311E07B6823F07F43094A013B5360FC
:1005F0001F214FF0FF30FFF79BFF054B00229A6051
:10060000034B07221A60002318460837BD4680BDF9
:1006100010E000E080B400AF044B1B680133034AD4
:10062000136000BFBD4680BC704700BF04D60010F9
:1006300080B582B000AFFFF721FE124B1B68124A53
:10064000A2FB03239B091846FFF7C2FF0346002BBA
:1006500000D0FEE74FF0FF314FF0FF30FFF768FFAB
:100660004FF0FF30FFF78EFF78607B68013B7B60C7
:1006700079684FF0FF30FFF75BFF00BF0837BD46DA
:1006800080BD00BF00000010D34D621080B483B065
:1006900000AF78604FF0402302225A604FF04023B1
:1006A0000022DA60164B1A68164BD3F8A83103F013
:1006B0001F03B2FBF3F3144AA2FB03239B09013B84
:1006C0004FF040217A6802FB03F38B614FF0402327
:1006D000FF221A604FF0402304225A614FF040235A
:1006E00001225A6000BF4FF040235B6803F0010312
:1006F000002BF8D100BF00BF0C37BD4680BC70474F
:100700000000001000C00F40D34D621080B487B0CD
:1007100000AF4FF020437B614FF020433B6100234B
:10072000FB6021E00023BB6018E0FB6899B2BB6866
:100730009AB23B69981C38610A4492B21A80FB68ED
:100740009AB2BB689BB213449AB23B69991C396157
:10075000013292B21A80BB680133BB60BB68FF2BC9
:10076000E3D9FB680133FB60FB68FF2BDAD94FF05C
:1007700020437B610023FB601FE00023BB6016E089
:100780007B691A1D7A611B687B60FA68BB68134439
:1007900001331A04F968BB680B449BB213437A68AF
:1007A0009A4201D001230CE0BB680133BB60BB68F7
:1007B000FF2BE5D9FB680133FB60FB68FF2BDCD91D
:1007C000002318461C37BD4680BC704780B586B0F4
:1007D00000AF786000237B61FF233B61FF23FB6058
:1007E0002FE07B68002B0CD1314BD3F8DC3123F0A8
:1007F0001F03BB602E49BA687B691343C1F8DC3123
:100800000CE02B4BD3F8DC3123F4F853BB607B694D
:100810001A022749BB681343C1F8DC31FFF776FFA2
:100820000346002B05D13B69FF2B07D17B693B6158
:1008300004E03B69FF2B01D07B69FB607B690133DE
:100840007B617B691F2BCCD9FB68FF2B05D03A69F4
:10085000FB6813445B087B6108E03B69FF2B04D015
:100860003B691F335B087B6100E0FEE77B68002B80
:100870000CD10F4BD3F8DC3123F01F03BB600C49C4
:10088000BA687B691343C1F8DC310CE0084BD3F83C
:10089000DC3123F4F853BB607B691A020449BB685E
:1008A0001343C1F8DC3100BF1837BD4680BD00BF1F
:1008B00000C00F4080B485B000AF0023FB60002370
:1008C0007B601AE0134B4FF48042C3F8E021114BD8
:1008D000D3F8E031BB6003E00E4BD3F8E031BB60EE
:1008E000BB6803F40043002BF6D0BB68DBB2FA68A8
:1008F0001344FB607B6801337B607B68092BE1D983
:10090000FB68054AA2FB0323DB0818461437BD46E3
:1009100080BC704700C00F40CDCCCCCC80B586B039
:1009200000AF7860FFF7C6FF7861164BD3F8DC3173
:100930003B613B6903F01F037A6802FB03F27B69AA
:10094000B2FBF3F303F01F03FB603B6903F4F853BE
:100950007A6802FB03F27B69B2FBF3F303F4F8530A
:10096000BB603B6923F4F85323F01F03BA681A43B2
:100970000449FB681343C1F8DC3100BF1837BD469A
:1009800080BD00BF00C00F4090B585B000AFCC4B1C
:10099000D3F8C430CA4A43F40063C2F8C430C84B29
:1009A00041F21002C3F8DC21C64B01221A60C54B8C
:1009B00000229A60C44B0122C3F88021C24B01225D
:1009C000C3F88421C04B0122C3F88821BE4B012209
:1009D000C3F88C21BC4B0122C3F89021BA4B0122F1
:1009E000C3F89421B84B0122C3F89821B64B0122D9
:1009F000C3F89C21B44B0122C3F8A021B24B0122C1
:100A0000C3F8A421B04B0122C3F8A821AE4B0122A8
:100A1000C3F8AC21AC4B0122C3F8B021AA4B012290
:100A2000C3F8B421A84B0122C3F8B821A64B012278
:100A3000C3F8BC21A44B0122C3F8C021A24B012260
:100A4000C3F8C421A04B0122C3F8C8219E4B012248
:100A5000C3F8CC219C4B0122C3F8D0219A4B012230
:100A6000C3F8D421984B0122C3F8D821964B012218
:100A7000C3F8DC21944B0122C3F8E021924B012200
:100A8000C3F8E421904B0122C3F8E8218E4B0122E8
:100A9000C3F8EC218C4B0122C3F8F0218A4B0122D0
:100AA000C3F8F421884B0122C3F8F821864B0122B8
:100AB000C3F8FC21844B0122C3F80022824B01229F
:100AC000C3F80422804B0122C3F808227E4B012286
:100AD000C3F80C227C4B0122C3F810227A4B01226E
:100AE000C3F81422784B0122C3F81822764B012256
:100AF000C3F81C22744B0122C3F82022724B01223E
:100B0000C3F82422704B0122C3F828226E4B012225
:100B1000C3F82C226C4B0122C3F830226A4B01220D
:100B2000C3F83422684B0122C3F83822664B0122F5
:100B3000C3F83C22644B0122C3F84022624B0122DD
:100B4000C3F84422604B0122C3F848225E4B0122C5
:100B5000C3F84C225C4B0122C3F850225A4B0122AD
:100B6000C3F85422584B0122C3F85822564B012295
:100B7000C3F85C22544B0122C3F86022524B01227D
:100B8000C3F86422504B0122C3F868224E4B012265
:100B9000C3F86C224C4B0122C3F878224A4B012245
:100BA000C3F87C22484B0122C3F83821464B01226E
:100BB000C3F83C21444B0122C3F84021424B01229F
:100BC000C3F84421404B0122C3F848213E4B012287
:100BD000C3F84C213C4B0122C3F850213A4B01226F
:100BE000C3F85421384B0122C3F85821364B012257
:100BF000C3F85C21344B0122C3F86021324B01223F
:100C0000C3F86421304B0122C3F868212E4B012226
:100C1000C3F86C212C4B0122C3F870212A4B01220E
:100C2000C3F87421284B0122C3F87821264B0122F6
:100C3000C3F87C21234B4FF48642C3F80021214B9B
:100C400040F20222C3F804211E4B01229A621F4B7C
:100C50001B68184645F09AF917A3D3E9002344F01E
:100C600007FF02460B46104619464FF00002184B8C
:100C700044F074FE02460B46124C1046194645F0ED
:100C800040F903462363114B1B68184645F07EF973
:100C900009A3D3E9002344F0EBFE02460B461046BD
:100CA00019464FF000020B4B44F058FE02460B462B
:100CB00012E000BFAFF300800000000065CDCD4121
:100CC00000C00F4000C0092000C002400800001012
:100CD0000000344000004540AB4C1046194645F03A
:100CE00010F903466363A94B1B68184645F04EF99B
:100CF000A1A3D3E9002344F0BBFE02460B461046F5
:100D000019464FF00002A24B44F028FE02460B4663
:100D10009D4C1046194645F0F4F80346A3639B4BDF
:100D20001B68184645F032F993A3D3E9002344F039
:100D30009FFE02460B46104619464FF00002954BA7
:100D400044F00CFE02460B468F4C1046194645F007
:100D5000D8F80346E3638D4B1B68184645F016F937
:100D600085A3D3E9002344F083FE02460B461046D8
:100D700019464FF00002874B44F0F0FD02460B4647
:100D80001046194645F0BDF803467F4A0233136406
:100D90007E4B1B68184645F0F9F877A3D3E900238A
:100DA00044F066FE02460B46104619464FF000021C
:100DB000794B44F0D3FD02460B461046194645F0E8
:100DC000A0F80346704A01335364704B1B68184601
:100DD00045F0DCF868A3D3E9002344F049FE02465D
:100DE0000B46104619464FF000026C4B44F0B6FD1E
:100DF00002460B46644C1046194645F082F80346FD
:100E0000A364624B1B68184645F0C0F85AA3D3E9A7
:100E1000002344F02DFE02460B46104619464FF0C3
:100E200000025E4B44F09AFD02460B46564C1046BB
:100E3000194645F066F80346E364544B1B681846B0
:100E400045F0A4F84CA3D3E9002344F011FE024678
:100E50000B46104619464FF00002504B44F07EFD01
:100E600002460B46484C1046194645F04AF80346E0
:100E70002365464B1B68184645F088F83EA3D3E926
:100E8000002344F0F5FD02460B46104619464FF08C
:100E90000002434B44F062FD02460B463A4C1046BA
:100EA000194645F02EF803466365374B02229A65D2
:100EB0006420FFF7EBFB344B40F283121A62C82028
:100EC000FFF7E4FB304B40F203121A622E4B012273
:100ED0005A6200237B6002E07B6801337B607B68A1
:100EE0007F2BF9D9294B1B68184645F04FF822A3F0
:100EF000D3E9002344F0BCFD02460B4610461946D8
:100F00001FA3D3E9002344F029FD02460B461046F7
:100F1000194644F0F6FF03461B4A1B0953621A4B5D
:100F200083221A621F4B1B68BB60174B00221A6298
:100F3000154B1D4AC3F80021FFF7BCFC0346FB60BC
:100F40001A4B1B78012B03D0184B1B78002B08D1B0
:100F50000020FFF73BFC0120FFF738FC1CF026FBCC
:100F600001E01CF037FBFB681846FFF7D7FC00BF19
:100F70001437BD4690BD00BF0000000065CDCD41D7
:100F8000000000008084CE4000C00920080000104E
:100F9000004053400000344000001C40008051409D
:100FA00000002C40002002A000430800EC6B001061
:100FB00080B500AFFFF762F91CF02EF91CF0B8FA0B
:100FC0001CF02CFBFFF7E0FC0123184680BD80B429
:100FD00083B000AF786039607B683A681A6000BF00
:100FE0000C37BD4680BC704780B485B000AFF86058
:100FF000B9607A60BB689A017B681A43FB685A60E3
:1010000000BF1437BD4680BC704780B483B000AFCA
:10101000786039607B683A689A6000BF0C37BD46DB
:1010200080BC704780B483B000AF78607B68DB68B9
:1010300018460C37BD4680BC704780B483B000AF03
:10104000786039607B683A681A6100BF0C37BD462A
:1010500080BC704780B483B000AF78607B680022AA
:101060009A6100BF0C37BD4680BC704780B483B026
:1010700000AF78607B68D3F8603F18460C37BD46F8
:1010800080BC704780B483B000AF786039607B6803
:101090003A68C3F8682F00BF0C37BD4680BC704764
:1010A00080B584B000AF7860244B1B68FB60786823
:1010B000FFF7D0FFFB68224AA2FB0323DB0B5A1E7B
:1010C0007B685A61FB681F4AA2FB03239A0C1346F4
:1010D0001B019B1A1C4AA2FB03239B090133BB6023
:1010E000FB68184AA2FB03239A0C1346DB009B1AE9
:1010F000DB009B1A144AA2FB03239B0901331B024A
:10110000BA681343BB60FB680E4AA2FB03239A0C28
:1011100013469B001344DA00D31A0B4AA2FB0323A5
:101120009B0901331B04BA681343BB60B968786834
:10113000FFF783FF00BF1037BD4680BD00000010E1
:10114000819F5E1683DE1B43D34D621080B584B051
:1011500000AF786039607868FFF788FFF860FA6858
:101160003B6813403A689A4200D0F4E700BF396800
:101170007868FFF787FF00BF1037BD4680BD80B598
:1011800086B000AFF8607A601A460B467B81134642
:101190007B7200237B617B7ADB00012202FA03F37E
:1011A000013B3B614FF08061F868FFF76BFF7B7A92
:1011B000012B04D10321F868FFF709FF0BE07B7ACC
:1011C000022B04D10421F868FFF701FF03E0052199
:1011D000F868FFF7FCFE7B891A460021F868FFF7E4
:1011E00003FF00237B6112E07A687B6913441A686D
:1011F0003B6913401946F868FFF707FF4FF080611D
:10120000F868FFF7A3FF7B7A7A6913447B617A69F8
:101210003B6A9A42E8D37B6918461837BD4680BDC1
:1012200080B582B000AF78600B467B80062178687D
:10123000FFF728FF7B88002219467868FFF7D4FE65
:1012400006217868FFF7C3FE4FF080517868FFF7FA
:101250007DFF00BF0837BD4680BD80B586B000AFBA
:10126000F8607B600B467B8113463B8197F820300A
:10127000DB00012202FA03F3013B3B614FF0806186
:10128000F868FFF7FFFE3B897A891946F868FFF78F
:10129000ABFE97F82030012B04D10821F868FFF746
:1012A00096FE0CE097F82030022B04D10921F86853
:1012B000FFF78DFE03E00A21F868FFF788FE0023A0
:1012C0007B6124E07A687B69134419683B69DA43DF
:1012D00078687B6903440A401A60F868FFF7A2FE49
:1012E00002463B6902EA03017A687B6913441A6883
:1012F00078687B6903440A431A604FF08061F8689C
:10130000FFF724FF97F820307A6913447B617A69EC
:101310007B6A9A42D6D37B6918461837BD4680BD92
:1013200080B58AB002AFF8607B600B467B811346C4
:101330003B810023FB617B8903F03F03BB61BB69F9
:10134000C3F140037B6126E07A69FB6A9A4201D9C6
:10135000FB6A7B61BB6999B27A68FB691A4497F8AA
:1013600028007B6900930346F868FFF708FF3B8974
:101370001946F868FFF754FFFA697B691344FB616B
:10138000FA6A7B69D31AFB623B8901333B810023F4
:10139000BB6140237B61FB6A002BD5D1012318463A
:1013A0002037BD4680BD80B58AB002AFF8607B6053
:1013B0000B467B8113463B810023FB617B8903F055
:1013C0003F03BB61BB69C3F140037B6123E07A69E2
:1013D000FB6A9A4201D9FB6A7B61BB6999B27A6860
:1013E000FB69D0183A897B69019397F828300093FC
:1013F0000346F868FFF731FFFA697B691344FB6124
:10140000FA6A7B69D31AFB623B8901333B81002373
:10141000BB6140237B61FB6A002BD8D101231846B6
:101420002037BD4680BD80B485B000AF78607B6852
:1014300001331B78FB81FB891B021AB27B681B7886
:101440001BB213431BB2FB81FB8918461437BD4600
:1014500080BC704780B485B000AF78607B68033390
:101460001B78FB60FB681B027A6802321278134318
:10147000FB60FB681B027A68013212781343FB6041
:10148000FB681B027A6812781343FB60FB681846FE
:101490001437BD4680BC704780B483B000AF78601D
:1014A0000B467B807B685A1C7A607A88D2B21A70AD
:1014B0007B881B0A7B807B685A1C7A607A88D2B250
:1014C0001A7000BF0C37BD4680BC704780B483B033
:1014D00000AF786039607B685A1C7A603A68D2B293
:1014E0001A703B681B0A3B607B685A1C7A603A683A
:1014F000D2B21A703B681B0A3B607B685A1C7A6048
:101500003A68D2B21A703B681B0A3B607B685A1C6F
:101510007A603A68D2B21A7000BF0C37BD4680BC00
:10152000704780B487B000AFF860B9607A60FB683C
:101530007B61BB683B617B68002B0DD03A69531C13
:101540003B617B69591C796112781A707B68013B99
:101550007B607B68002BF1D100BF1C37BD4680BC8F
:10156000704780B487B000AFF860B9607A60FB68FC
:101570007B617B695A1C7A61BA68D2B21A707B6847
:10158000013B7B607B68002BF3D100BF00BF1C37A1
:10159000BD4680BC704780B489B000AFF860B960C8
:1015A0007A60FB68FB61BB68BB6100237B61FB6900
:1015B0005A1CFA611B781946BB695A1CBA611B7820
:1015C000CB1A7B617B68013B7B607B68002B02D080
:1015D0007B69002BEBD07B6918462437BD4680BC65
:1015E000704780B483B000AF7860396002E07B68F8
:1015F00001337B607B681B78002B05D07B681B78F0
:101600001A463B689342F2D17B681B7818460C3728
:10161000BD4680BC704780B483B000AF0346FB7109
:10162000FB79002B01D0002300E0002318460C3783
:10163000BD4680BC704780B483B000AF0346FB71E9
:10164000FB79002B01D0002300E0002318460C3763
:10165000BD4680BC704780B586B000AF78607B68BF
:101660001B687B617B695A1C7A611B787B827B8A51
:10167000DBB21846FFF7CFFF0346002B15D07B697E
:101680005A1C7A611B787B747B7C1846FFF7D3FF6A
:101690000346002B02D14FF0FF331DE07B8A1B0273
:1016A0009AB27B7C9BB213447B827B8A002B0DD049
:1016B0007B8A40F2B511184603F0F6F903467B82A7
:1016C0007B8A002B02D14FF0FF3305E07B8AFB6061
:1016D0007B687A691A60FB6818461837BD4680BD7A
:1016E00080B586B000AFF860B9607A6040F2B5119D
:1016F000F86803F0A1F90346FB82FB8AFF2B14D99B
:101700007B68012B01D800231EE0FB8A1B0A99B2DB
:10171000BB685A1CBA60CAB21A70BB685A1CBA605D
:10172000FA8AD2B21A7002230EE0FB8A002B02D092
:101730007B68002B01D1002306E0BB685A1CBA600D
:10174000FA8AD2B21A70012318461837BD4680BDF6
:1017500080B584B000AF78600023FB737B68DB78D2
:10176000002B2CD07B6858787B6803F138017B68AC
:101770005A6B012303F034FE0346002B1DD17B6816
:101780000022DA707B685A6B7B689B6AD21A7B688E
:101790001B6A9A4213D27B689B78022B0FD17B681D
:1017A00058787B6803F138017B685A6B7B681B6A49
:1017B0001A44012303F014FE01E00123FB73FB7BB9
:1017C00018461037BD4680BD80B584B000AF786044
:1017D00039600023FB737B685B6B3A689A421BD0CD
:1017E0007868FFF7B5FF0346FB73FB7B002B13D133
:1017F0007B6858787B6803F1380101233A6803F06D
:1018000093FD0346002B04D04FF0FF333B600123D0
:10181000FB737B683A685A63FB7B18461037BD46FA
:1018200080BDFFFF80B584B000AF78607868FFF7B7
:101830008FFF0346FB73FB7B002B58D17B681B7823
:10184000032B48D17B681B79012B44D17B6838334B
:101850004FF4007200211846FFF783FE7B6838338F
:1018600003F5FF734AF655211846FFF715FE7B680E
:10187000383321491846FFF729FE7B68383303F5D2
:10188000F2731E491846FFF721FE7B68383303F5D3
:10189000F4727B685B6919461046FFF717FE7B6898
:1018A000383303F5F6727B681B6919461046FFF75B
:1018B0000DFE7B685B6A5A1C7B685A637B685878AC
:1018C0007B6803F138017B685A6B012303F088FDC4
:1018D0007B6800221A717B685B7800220021184621
:1018E00003F0FAFD0346002B01D00123FB73FB7BC1
:1018F00018461037BD4680BD525261417272416137
:1019000080B483B000AF786039603B68023B3B60D5
:101910007B68DB69023B3A689A4201D3002308E006
:101920007B681A6B7B685B8919463B6803FB01F394
:10193000134418460C37BD4680BC704780B586B04E
:1019400000AF786039607B681B683B613B68012BA6
:1019500004D93B69DB693A689A4202D301237B616F
:101960008FE04FF0FF337B613B691B78032B62D024
:10197000032B7CDC012B02D0022B42D077E03B68AA
:10198000FB60FB685B08FA681344FB603B699A6A7A
:10199000FB685B0A134419463869FFF715FF0346D5
:1019A000002B67D1FB685A1CFA60C3F308033A693D
:1019B000134493F83830BB603B699A6AFB685B0A52
:1019C000134419463869FFF7FFFE0346002B53D135
:1019D000FB68C3F308033A69134493F838301B02D9
:1019E0001A46BB681343BB603B6803F00103002B3E
:1019F00002D0BB681B0902E0BB68C3F30B037B6129
:101A00003FE03B699A6A3B681B0A134419463869F0
:101A1000FFF7DAFE0346002B30D13B6903F13802B1
:101A20003B685B0003F4FF7313441846FFF7FBFCAD
:101A300003467B6125E03B699A6A3B68DB091344F6
:101A400019463869FFF7C0FE0346002B18D13B69E1
:101A500003F138023B689B0003F4FE7313441846FD
:101A6000FFF7F8FC034623F070437B6109E0012394
:101A70007B6106E000BF04E000BF02E000BF00E0C1
:101A800000BF7B6918461837BD4680BD90B589B048
:101A900000AFF860B9607A600223FB77BB68012B66
:101AA00040F2D280FB68DB69BA689A4280F0CC8051
:101AB000FB681B78032B00F09680032B00F3CD808E
:101AC000012B02D0022B6ED0C7E0BB68BB61BB69A3
:101AD0005B08BA691344BB61FB689A6ABB695B0A1D
:101AE00013441946F868FFF76FFE0346FB77FB7F48
:101AF000002B40F0AB80FB6803F13802BB69591C36
:101B0000B961C3F3080313447B61BB6803F00103AD
:101B1000002B0DD07B691B785BB203F00F035AB228
:101B20007B68DBB21B015BB213435BB2DBB201E04B
:101B30007B68DBB27A691370FB680122DA70FB689C
:101B40009A6ABB695B0A13441946F868FFF73CFEC2
:101B50000346FB77FB7F002B7AD1FB6803F1380249
:101B6000BB69C3F3080313447B61BB6803F0010343
:101B7000002B03D07B681B09DBB20EE07B691B786E
:101B80005BB223F00F035AB27B681B0A5BB203F00F
:101B90000F035BB213435BB2DBB27A691370FB686D
:101BA0000122DA7059E0FB689A6ABB681B0A134489
:101BB0001946F868FFF708FE0346FB77FB7F002B0A
:101BC00048D1FB6803F13802BB685B0003F4FF7384
:101BD00013447A6892B211461846FFF75DFCFB6821
:101BE0000122DA7039E0FB689A6ABB68DB091344AA
:101BF0001946F868FFF7E8FD0346FB77FB7F002BEB
:101C00002AD17B6823F07044FB6803F13802BB687B
:101C10009B0003F4FE7313441846FFF71BFC0346B6
:101C200003F0704323437B60FB6803F13802BB6819
:101C30009B0003F4FE73134479681846FFF746FCD3
:101C4000FB680122DA7008E000BF06E000BF04E094
:101C500000BF02E000BF00E000BFFB7F1846243752
:101C6000BD4690BD80B588B000AFF860B9607A60BD
:101C70000023FB77FB681B68BB61BB68012B04D9A1
:101C8000BB69DB69BA689A4201D302234BE07B68E7
:101C9000002B0CD04FF0FF327968B869FFF7F6FEE1
:101CA0000346FB77FB7F002B01D0FB7F3BE0B9684D
:101CB000F868FFF743FE78617B69002B31D07B69C0
:101CC000012B01D102232EE07B69B3F1FF3F01D14B
:101CD000012328E00022B968B869FFF7D7FE034660
:101CE000FB77FB7F002B01D0FB7F1CE0BB695A69AF
:101CF000BB69DB69023B9A420BD2BB695B695A1C28
:101D0000BB695A61BB691B7943F00103DAB2BB6955
:101D10001A717B69BB60BB69DB69BA689A42C6D33A
:101D200000E000BF002318462037BD4680BD80B5C7
:101D300088B000AF786039607B681B683B613B68A6
:101D4000002B0DD13B691B69BB61BB69002B04D023
:101D50003B69DB69BA699A421BD30123BB6118E076
:101D600039687868FFF7EAFDF860FB68012B01D855
:101D70000123A9E0FB68B3F1FF3F01D1FB68A3E0B9
:101D80003B69DB69FA689A4201D2FB689CE03B68D8
:101D9000BB613B695B69002B01D1002394E0002308
:101DA000FB61BA693B689A4229D1BB690133FB6187
:101DB0003B69DB69FA699A4201D30223FB61F96945
:101DC0007868FFF7BBFDF860FB68012B03D0FB6868
:101DD000B3F1FF3F01D1FB6876E0FB68002B0ED02A
:101DE0003B691B69FB60FB68012B06D93B69DB691A
:101DF000FA689A4201D2FB68BB610023FB61FB6970
:101E0000002B29D1BB69FB61FB690133FB613B6995
:101E1000DB69FA699A4207D30223FB61FA69BB695D
:101E20009A4201D900234FE0F9697868FFF786FDEF
:101E3000F860FB68002B0ED0FB68012B03D0FB6819
:101E4000B3F1FF3F01D1FB683EE0FA69BB699A42FA
:101E5000DAD1002338E000BF4FF0FF32F96938696A
:101E6000FFF714FE0346FB75FB7D002B09D13B6891
:101E7000002B06D0FA6939683869FFF707FE034678
:101E8000FB75FB7D002B16D13B69FA691A613B6932
:101E90005A693B69DB69023B9A4204D83B695B693A
:101EA0005A1E3B695A613B691B7943F00103DAB260
:101EB0003B691A7107E0FB7D012B02D14FF0FF3324
:101EC00000E00123FB61FB6918462037BD4680BD59
:101ED00080B586B000AF786039607868FFF738FC6D
:101EE0000346002B01D0012336E039687868FFF7FC
:101EF00007FD38617B683A695A637B6838334FF471
:101F0000007200211846FFF72CFB7B683833FB601A
:101F10000123BB6000237B6103E07A69BB68134443
:101F20007B617B685B891A467B6993420BD27B6835
:101F300058783A697B691A44BB68F96803F050FA2B
:101F40000346002BE9D07B685B891A467B69934284
:101F500014BF01230023DBB218461837BD4680BDED
:101F600080B586B000AF786039607B681B683B61E4
:101F70003B68B3F5001F04D23B6803F01F03002B3E
:101F800001D0022363E07B683A681A617B689B6832
:101F90007B617B69002B06D13B691B78022B02D940
:101FA0003B69DB6A7B617B69002B0CD13B685B0979
:101FB0003A691289934201D3022348E03B69DA6A05
:101FC0007B689A6129E03B695B895B02FB6019E0F1
:101FD0007B6879691846FFF7B1FC78617B69B3F1DA
:101FE000FF3F01D1012332E07B69012B04D93B691A
:101FF000DB697A699A4201D3022328E03A68FB68D8
:10200000D31A3B603A68FB689A42E1D27969386931
:10201000FFF776FC02467B689A617B687A695A61B1
:102020007B689B69002B01D1022310E07B689A69D1
:102030003B685B0A1A447B689A613B6903F138028A
:102040003B68C3F308031A447B68DA61002318462F
:102050001837BD4680BD80B586B000AF7860396066
:102060007B681B683B617B681B692033FB60FB68F6
:10207000B3F5001F02D37B6800229A617B689B69DD
:10208000002B01D1042378E0FB68C3F30803002B85
:1020900066D17B689B695A1C7B689A617B685B6927
:1020A000002B0AD1FB685B093A691289934257D326
:1020B0007B6800229A6104235FE0FB685B0A3A694F
:1020C0005289013A1340002B4AD17A687B685B69D8
:1020D00019461046FFF732FC78617B69012B01D865
:1020E00002234AE07B69B3F1FF3F01D1012344E0C1
:1020F0003B69DB697A699A4228D33B68002B04D19B
:102100007B6800229A61042337E07A687B685B6908
:1021100019461046FFF70BFE78617B69002B01D151
:1021200007232AE07B69012B01D1022325E07B698B
:10213000B3F1FF3F01D101231FE079693869FFF74F
:10214000C7FE0346002B01D0012316E07B687A69A5
:102150005A6179693869FFF7D3FB02467B689A6157
:102160007B68FA681A613B6903F13802FB68C3F3C4
:1021700008031A447B68DA61002318461837BD4605
:1021800080BD80B586B000AF786039607B681B6821
:10219000FB6000217868FFF7E3FE0346FB75FB7DDB
:1021A000002B2BD100233B617B689B691946F868A3
:1021B000FFF70AFB0346FB75FB7D002B1DD17B68F7
:1021C000DB691B78E52B04D07B68DB691B78002B6F
:1021D00007D13B6901333B613A693B689A4202D1BE
:1021E0000CE000233B6101217868FFF734FF0346D0
:1021F000FB75FB7D002BD7D000E000BFFB7D042BDF
:1022000001D10723FB75FB7D18461837BD4680BDFD
:1022100080B584B000AF786039603B681A331846E7
:10222000FFF701F90346FB607B681B78032B09D19C
:102230003B6814331846FFF7F6F803461B04FA68A8
:102240001343FB60FB6818461037BD4680BD80B560
:1022500084B000AFF860B9607A60BB681A337A68FE
:1022600092B211461846FFF717F9FB681B78032B4B
:1022700009D1BB6803F114027B681B0C9BB21946A1
:102280001046FFF709F900BF1037BD4680BDFFFFBC
:1022900090B587B000AF786039603B681A33184654
:1022A000FFF7C1F80346002B01D0002358E03B683C
:1022B0001B7803F03F035A1E13465B0013449B0038
:1022C00013447B610123FB8100233B6132E0264AFA
:1022D0003B6913441B781A463B6813441846FFF7C2
:1022E000A2F80346BB81FB89002B19D07B69FE2B2A
:1022F00011D8BB89184602F003FC04467B695A1CBE
:102300007A615B007A6813441B88184602F0F8FB78
:1023100003469C4201D0002322E0BB89FB8106E0FA
:10232000BB894FF6FF72934201D0002318E03B694E
:1023300001333B613B690C2BC9D93B681B7803F027
:102340004003002B0BD0FB89002B08D07B695B007E
:102350007A6813441B88002B01D0002300E001237E
:1023600018461C37BD4690BDD465050080B586B0C3
:1023700000AF786039603B681A331846FFF753F8AE
:102380000346002B01D000234DE03B681B7823F06F
:1023900040035A1E13465B0013449B0013447B61A9
:1023A0000123FB8100233B6128E0214A3B69134460
:1023B0001B781A463B6813441846FFF734F8034667
:1023C000BB81FB89002B0FD07B69FE2B01D9002339
:1023D00029E0BB89FB817B695A1C7A615B007A68C2
:1023E0001344FA891A8006E0BB894FF6FF729342C4
:1023F00001D0002317E03B6901333B613B690C2BA3
:10240000D3D93B681B7803F04003002B0AD07B69CB
:10241000FE2B01D9002306E07B695B007A68134438
:1024200000221A80012318461837BD4680BD00BF20
:10243000D465050080B588B000AFF860B96011467A
:102440001A460B46FB711346BB71BB680D33BA7954
:102450001A70BB680B330F221A70BB680C33002252
:102460001A70BB681A3300211846FFF715F8FB797C
:102470005A1E13465B0013449B001344FB61002368
:10248000FB820023BB61FB8A4FF6FF72934207D0A9
:10249000FB695A1CFA615B00FA6813441B88FB82D3
:1024A000174ABB6913441B781A46BB681344FA8A5F
:1024B00011461846FEF7F0FFFB8A002B02D14FF6BB
:1024C000FF73FB82BB690133BB61BB690C2BDAD99B
:1024D000FB8A4FF6FF72934206D0FB695B00FA68F5
:1024E00013441B88002B03D1FB7943F04003FB719D
:1024F000BB68FA791A7000BF2037BD4680BD00BFA7
:10250000D465050080B58CB000AFF860B9607A6022
:102510003B600B22B968F868FFF703F83B68052BAE
:102520002BD93B68FB6122E07B689A1C7A601B8890
:102530007B840023BB6217E0FB695A007B8C03F0AD
:1025400001031344FB617B8C5B087B84FB6903F410
:102550008033002B05D0FB6983F4883383F021039B
:10256000FB61BB6A0133BB62BB6A0F2BE4D97B689A
:102570001B88002BD8D1FB693B600723BB623B68FB
:10258000DBB203F00F03DBB2303387F82F3097F85C
:102590002F30392B04D997F82F30073387F82F3095
:1025A000BB6A5A1EBA6207F13002134497F82F2013
:1025B00003F81C2C3B681B093B603B68002BDED1F9
:1025C00007F11402BB6A13447E221A7000237B6257
:1025D00014E0FA687B6A13441B781846FFF71BF86F
:1025E0000346002B07D0BB6A013B7A6A9A4210D09F
:1025F0007B6A01337B627B6A01337B627A6ABB6AE6
:102600009A4207D2FA687B6A13441B78202BE0D1E8
:1026100000E000BFBB6A072B08D8BB6A5A1CBA622D
:1026200007F13002134413F81C1C00E020217B6AE0
:102630005A1C7A62FA6813440A461A707B6A072B9E
:10264000E8D900BF00BF3037BD4680BD80B485B03B
:1026500000AF78600023FB730B23BB60FB7BDAB217
:102660005208DB011343DAB27B68591C79601B788E
:102670001344FB73BB68013BBB60BB68002BEDD10F
:10268000FB7B18461437BD4680BC704780B586B0CA
:1026900000AF786039600423FB757B681B683B6181
:1026A000FF237B75FF233B7581E07B689B6919469F
:1026B0003869FFF789F80346FB75FB7D002B7CD159
:1026C0007B68DB691B78BB75BB7D002B02D10423C3
:1026D000FB7577E07B68DB690B331B7803F03F0306
:1026E000FB737B68FA7B9A71BB7DE52B0ED0BB7DBB
:1026F0002E2B0BD0FB7B23F02003082B0CBF0123D8
:102700000023DBB21A463B68934202D0FF237B755D
:1027100044E0FB7B0F2B2FD1BB7D03F04003002B4C
:102720000DD07B68DB695B7B3B75BB7D23F0400391
:10273000BB75BB7D7B757B681A697B68DA62BA7D85
:102740007B7D9A4215D17B68DB690D331B783A7D1E
:102750009A420ED13B69DA687B68DB6919461046FC
:10276000FFF704FE0346002B03D07B7D013BDBB269
:1027700000E0FF237B7511E07B7D002B09D17B6896
:10278000DB691846FFF762FF03461A463B7D93421A
:1027900015D07B684FF0FF32DA6210E000217868D4
:1027A000FFF759FC0346FB75FB7D002B09D17B68C5
:1027B0009B69002B7FF479AF04E000BF02E000BF0B
:1027C00000E000BFFB7D002B02D07B6800229A61F5
:1027D000FB7D18461837BD4680BD80B586B000AF7A
:1027E00078607B681B683B6100217868FFF7B8FB65
:1027F0000346FB75FB7D002B01D0FB7DA9E0FF2389
:102800003B753B7D7B757B684FF0FF32DA627B68FE
:102810009B6919463869FEF7D7FF0346FB75FB7DB8
:10282000002B40F090807B68DB691B78BB75BB7D1B
:10283000002B02D10423FB758AE07B68DB690B3334
:102840001B7803F03F03FB737B68FA7B9A71BB7DB7
:10285000E52B07D0FB7B03F00803002B09D0FB7BA3
:102860000F2B06D0FF237B757B684FF0FF32DA62B7
:102870005EE0FB7B0F2B36D17B6893F82B3003F0A7
:102880004003002B54D1BB7D03F04003002B0DD03F
:102890007B68DB695B7B3B75BB7D23F04003BB75CD
:1028A000BB7D7B757B681A697B68DA62BA7D7B7D4C
:1028B0009A4215D17B68DB690D331B783A7D9A42C9
:1028C0000ED13B69DA687B68DB6919461046FFF771
:1028D000DFFC0346002B03D07B7D013BDBB200E035
:1028E000FF237B7524E07B7D002B09D17B68DB69AE
:1028F0001846FFF7ABFE03461A463B7D934224D0B1
:102900007B6893F82B3003F00103002B0AD17B681E
:10291000D8697B6820330B221946FEF73CFE03463C
:10292000002B14D0FF237B757B684FF0FF32DA62F7
:1029300000217868FFF78FFB0346FB75FB7D002BBA
:102940003FF465AF04E000BF02E000BF00E000BF5D
:10295000FB7D18461837BD4680BDFFFF80B58CB0A3
:1029600000AF78607B681B68FB617B6893F82B3055
:1029700003F0A003002B01D00623E0E000237B62DC
:1029800002E07B6A01337B62FB69DA687B6A5B0089
:1029900013441B88002BF4D17B6803F1200107F15D
:1029A0000C030C221846FEF7BCFDFB7D03F001036F
:1029B000002B32D07B68402283F82B200123BB629E
:1029C00016E07B6803F12000FB69DA6807F10C016F
:1029D000BB6AFFF797FD7868FFF7FFFE034687F8AD
:1029E0002F3097F82F30002B06D1BB6A0133BB6222
:1029F000BB6A632BE5D900E000BFBB6A642B01D141
:102A000007239CE097F82F30042B02D097F82F3043
:102A100095E0FA7D7B6883F82B20FB7D03F00203B1
:102A2000002B07D07B6A0C33474AA2FB03239B0889
:102A3000013300E001233B62396A7868FFF7A1FBAC
:102A4000034687F82F3097F82F30002B48D13B6A88
:102A5000013B3B623B6A002B42D07B681A693B6AB0
:102A60005B01D31A19467868FFF77AFA034687F8AC
:102A70002F3097F82F30002B32D17B682033184647
:102A8000FFF7E4FD0346FB767B689B691946F8690E
:102A9000FEF79AFE034687F82F3097F82F30002B69
:102AA0001DD1FB69D8687B68D9693B6ADAB2FB7EC5
:102AB000FFF7C0FCFB690122DA7000217868FFF79C
:102AC000CAFA034687F82F3097F82F30002B07D12A
:102AD0003B6A013B3B623B6A002BD5D100E000BF63
:102AE00097F82F30002B28D17B689B691946F8692D
:102AF000FEF76AFE034687F82F3097F82F30002B39
:102B00001BD17B68DB69202200211846FEF729FDD6
:102B10007B68D8697B6820330B221946FEF701FDDC
:102B20007B6893F82B207B68DB690C3302F018027A
:102B3000D2B21A70FB690122DA7097F82F3018466A
:102B40003037BD4680BD00BF4FECC44E80B586B067
:102B500000AF78607B681B683B617B681B69FB602A
:102B60007B68DB6AB3F1FF3F07D07B68DB6A1946FD
:102B70007868FFF7F5F9034600E00023FB75FB7D5D
:102B8000002B28D17B689B6919463869FEF71CFE2B
:102B90000346FB75FB7D002B15D17B68DB69E522C5
:102BA0001A703B690122DA707B681B69FA689A42E5
:102BB0000BD900217868FFF74EFA0346FB75FB7DC1
:102BC000002BDFD002E000BF00E000BFFB7D042B44
:102BD00001D10223FB75FB7D18461837BD4680BD29
:102BE00080B586B000AF786039607B681B68BB60D9
:102BF0003B6800229A757B689B69002B00F001817D
:102C00007B68DB6AB3F1FF3F4ED00023BB8100231A
:102C10003B613B697B6134E0BB68DA687B69591CC6
:102C200079615B0013441B88FB81BB89002B0AD1AF
:102C3000FB89B3F5584F06D3FB89B3F5604F02D239
:102C4000FB89BB811DE0BB891A04FB8942EA0300B2
:102C50003B6910333A681344991D3B69C3F1FF0384
:102C60001A46FEF73DFD0346FB81FB89002B02D18E
:102C700000233B610DE0FB893A6913443B6100236B
:102C8000BB81BB68DA687B695B0013441B88002B3F
:102C9000C2D1BB89002B01D000233B613A683B695C
:102CA0001344163300221A7000233B613B697B6199
:102CB00026E07B68DA697B69591C796113441B78CB
:102CC000FB81FB89202B00D11AE0FB89052B01D168
:102CD000E523FB817B69092B09D13B690B2B06D8C6
:102CE0003B695A1C3A613A6813442E225A723B6976
:102CF0005A1C3A61FA89D1B23A6813440A465A72A8
:102D00007B690A2BD5D93A683B6913440933002201
:102D10001A703B689B7D002B50D13B69002B07D17B
:102D20003B695A1C3A613A6813443F229A7536E06F
:102D300000233B613B697B612AE03A687B6913446D
:102D400009331B78FB81FB89402B13D9FB895A2B54
:102D500010D87B68DB690C331B781A467B69082B1B
:102D600001D9102300E008231340002B02D0FB8977
:102D70002033FB81FB89D9B23A683B69134416338F
:102D80000A461A707B6901337B613B6901333B6101
:102D90003A687B69134409331B78002BCDD13A681C
:102DA0003B691344163300221A707B68DB690C33CD
:102DB0001B78002B02D13B6800225A727B68DB69CA
:102DC000DA7A3B681A727B68DB691C331846FEF7B7
:102DD00041FB02463B681A607B68DB691633184684
:102DE000FEF721FB03461A463B68DA807B68DB6905
:102DF00018331846FEF717FB03461A463B689A80BD
:102E000000E000BF1837BD4680BDFFFF80B58AB027
:102E100000AF786039603B681B68BB607B681B68EB
:102E2000DB683B6100237B6107F108031846FEF76E
:102E300012FCF860FB68B3F1FF3F01D1062300E20A
:102E4000FB68B3F5803F09D3FB68190C7B695A1CFA
:102E50007A615B003A6913448AB21A80FB68BB84CA
:102E6000BB8C1F2B23D9BB8C2F2B20D0BB8C5C2B76
:102E70001DD0BB8C7F2B09D8BB8C1946A648FEF70A
:102E8000B0FB0346002B01D00623DAE17B69FE2B61
:102E900001D90623D5E17B695A1C7A615B003A6946
:102EA0001344BA8C1A80BFE7BB680133BB60BB68B0
:102EB0001B782F2BF8D0BB681B785C2BF4D0BA683A
:102EC0003B681A60BB8C1F2B01D8042300E0002351
:102ED00087F826307B69012B09D17B6903F1004318
:102EE000013B5B003A6913441B882E2B16D07B698B
:102EF000022B4ED17B6903F10043013B5B003A6931
:102F000013441B882E2B44D17B6903F10043023B01
:102F10005B003A6913441B882E2B3AD17B695B0016
:102F20003A69134400221A8000233B620FE03A6A98
:102F30007B699A4201D22E2100E020217A683B6A07
:102F4000134420330A461A703B6A01333B623B6AE2
:102F50000A2BECD997F8263043F02003D9B27A68CF
:102F60003B6A134420330A461A70002369E17B69E7
:102F700003F10043013B5B003A6913441B88BB84A7
:102F8000BB8C202B02D0BB8C2E2B06D17B69013B46
:102F90007B617B69002BEAD100E000BF7B695B00AD
:102FA0003A69134400221A807B69002B01D1062361
:102FB00047E10023BB6102E0BB690133BB61BB6930
:102FC0005B003A6913441B88202BF5D0BB69002BAA
:102FD00006D1BB695B003A6913441B882E2B09D1CB
:102FE00097F8263043F0030387F8263002E07B6928
:102FF000013B7B617B69002B09D07B6903F10043B6
:10300000013B5B003A6913441B882E2BEFD17B6890
:1030100020330B2220211846FEF7A3FA002387F85D
:10302000273000233B620823FB61BB695A1CBA614D
:103030005B003A6913441B88BB84BB8C002B00F0F7
:10304000B680BB8C202B06D0BB8C2E2B0AD1BA6944
:103050007B699A4206D097F8263043F0030387F83D
:103060002630A3E03A6AFB699A4203D2BA697B69C7
:103070009A4224D1FB690B2B06D197F8263043F0F6
:10308000030387F8263095E0BA697B699A4205D038
:1030900097F8263043F0030387F82630BA697B6936
:1030A0009A4200F286807B69BB6108233B620B2356
:1030B000FB6197F827309B0087F8273076E0BB8CC0
:1030C0007F2B18D997F8263043F0020387F8263073
:1030D000BB8C40F2B511184601F0AEFC0346BB8430
:1030E000BB8C03F08003002B05D0BB8C03F07F0367
:1030F0000A4AD35CBB84BB8CFF2B1ED9FB69013B06
:103100003A6A9A420CD397F8263043F0030387F8C3
:103110002630FB693B6249E064660500E465050012
:10312000BB8C1B0A99B23B6A5A1C3A62C9B27A68D4
:1031300013440A4683F820202EE0BB8C002B07D0D6
:10314000BB8C19464148FEF74CFA0346002B08D0C9
:103150005F23BB8497F8263043F0030387F82630BB
:103160001AE0BB8C402B08D9BB8C5A2B05D897F89A
:10317000273043F0020387F82730BB8C602B0BD934
:10318000BB8C7A2B08D897F8273043F0010387F8D7
:103190002730BB8C203BBB843B6A5A1C3A62BA8CFA
:1031A000D1B27A6813440A4683F820203DE700BF75
:1031B00000E000BF7B6893F82030E52B03D17B68EB
:1031C000052283F82020FB69082B04D197F82730CB
:1031D0009B0087F8273097F8273003F00C030C2B5F
:1031E00005D097F8273003F00303032B05D197F898
:1031F000263043F0020387F8263097F8263003F094
:103200000203002B17D197F8273003F00103002B9E
:1032100005D097F8263043F0100387F8263097F84A
:10322000273003F00403002B05D097F8263043F035
:10323000080387F826307B6897F8262083F82B2030
:10324000002318462837BD4680BD00BF70660500C4
:1032500080B586B000AF786039607B681B683B61E1
:103260003B681B782F2B0BD03B681B785C2B07D05F
:103270003B699A697B689A600DE03B6801333B606B
:103280003B681B782F2BF8D03B681B785C2BF4D065
:103290007B6800229A603B681B781F2B0AD87B68EA
:1032A000802283F82B2000217868FEF759FE034620
:1032B000FB7556E03B4619467868FFF7A7FD0346C5
:1032C000FB75FB7D002B47D17868FFF786FA034634
:1032D000FB757B6893F82B30FB73FB7D002B1BD0B9
:1032E000FB7D042B3AD1FB7B03F02003002B0BD09A
:1032F000FB7B03F00403002B2CD07B68802283F837
:103300002B200023FB7529E0FB7B03F00403002B3B
:1033100024D10523FB7521E0FB7B03F00403002B84
:103320001ED17B689B7903F01003002B02D105238B
:10333000FB7516E03B6903F138027B681B69C3F338
:103340000803134419463869FEF762FF02467B689A
:103350009A60AFE700BFADE700BF02E000BF00E04A
:1033600000BFFB7D18461837BD4680BD80B489B0CC
:1033700000AF78604FF0FF337B617B681B683B6177
:103380003B69FB613B69002B01D17B692EE0FB6946
:103390005A1CFA611B78FB73FB7B1F2B02D9FB7B4A
:1033A0003A2BF4D1FB7B3A2B1CD10123BB613B6947
:1033B0001B782F2B0CD93B691B78392B08D83B691C
:1033C0000233FA699A4203D13B691B78303BBB61F7
:1033D000BB69002B04DCBB697B617B68FA691A60FE
:1033E0007B6903E0044B1B787B617B6918462437BB
:1033F000BD4680BC704700BFA69A001080B582B061
:1034000000AF786039607B680022DA707B684FF02B
:10341000FF325A6339687868FEF7D6F90346002B05
:1034200001D0042338E07B68383303F5FF73184676
:10343000FDF7F9FF03461A464AF655239A4201D092
:10344000032329E07B6893F83830E92B09D07B68A7
:1034500093F83830EB2B04D07B6893F83830E82BA6
:1034600019D17B683833363303220D491846FEF7ED
:1034700092F80346002B01D100230DE07B6838331E
:103480005233052207491846FEF785F80346002BFC
:1034900001D1002300E0022318460837BD4680BD55
:1034A000786605007C66050080B596B000AFF860D0
:1034B000B9601346FB71BB6800221A60F868FFF719
:1034C00055FFF863FB6B002B01DA0B233EE2A84AA1
:1034D000FB6B52F82330BB63BB6B002B01D10C2379
:1034E00034E2BB68BA6B1A60FB7923F00103FB710D
:1034F000BB6B1B78002B1AD0BB6B5B78184601F0B6
:10350000FFFE034687F8373097F8373003F00103A2
:10351000002B0CD1FB79002B07D097F8373003F044
:103520000403002B01D00A2310E200230EE2BB6B40
:1035300000221A70FB6BDAB2BB6B5A70BB6B5B7804
:10354000184601F0F5FD034687F8373097F8373015
:1035500003F00103002B01D00323F7E1FB79002BDB
:1035600007D097F8373003F00403002B01D00A236B
:10357000ECE100233B65396DB86BFFF73FFF034675
:1035800087F8573097F85730022B4BD100233B6414
:103590001FE0BB6B03F138023B6C1B0103F5DF73CB
:1035A00013443B633B6B04331B78002B06D03B6B0F
:1035B00008331846FDF74EFF024600E000223B6C40
:1035C0009B0007F158010B4443F8442C3B6C01333A
:1035D0003B643B6C032BDCD900233B643B6C002B2E
:1035E00002D03B6C013B3B643B6C9B0007F15802F3
:1035F000134453F8443C3B653B6D002B05D0396DBB
:10360000B86BFFF7FBFE034600E0032387F8573053
:1036100097F85730012B05D93B6C01333B643B6C69
:10362000032BE1D997F85730042B01D101238DE109
:1036300097F85730012B01D90D2387E1BB6B383345
:103640000B331846FDF7EFFE0346B3F5007F01D0BC
:103650000D237BE1BB6B383316331846FDF7E3FED1
:103660000346FB64FB6C002B06D1BB6B3833243361
:103670001846FDF7EFFEF864BB6BFA6C1A62BB6B81
:1036800093F84820BB6B9A70BB6B9B78012B05D0DD
:10369000BB6B9B78022B01D00D2357E1BB6B9B7852
:1036A0001A46FB6C02FB03F3FB64BB6B93F84530DB
:1036B0009AB2BB6B5A81BB6B5B89002B08D0BB6B8A
:1036C0005B891A46BB6B5B89013B1340002B01D021
:1036D0000D233BE1BB6B383311331846FDF7A3FED6
:1036E00003461A46BB6B1A81BB6B1B8903F00F03A1
:1036F0009BB2002B01D00D2328E1BB6B3833133371
:103700001846FDF790FE0346BB64BB6C002B06D148
:10371000BB6B383320331846FDF79CFEB864BB6B97
:1037200038330E331846FDF77EFE0346FB85FB8DCE
:10373000002B01D10D2309E1FA8DFB6C1344BA6B08
:103740001289120992B21344BB62BA6CBB6A9A42E4
:1037500001D20D23FAE0BA6CBB6AD31ABA6B528954
:10376000B3FBF2F37B627B6A002B03D10D23EDE008
:10377000A09A0010002387F857307B6A754A93425D
:1037800002D8032387F857307B6A4FF6F5729342CD
:1037900002D8022387F857307B6A40F6F5729342CD
:1037A00002D8012387F8573097F85730002B01D102
:1037B0000D23CBE07B6A9A1CBB6BDA61BB6B3A6D65
:1037C0005A62FA8D3B6D1A44BB6B9A623A6DBB6AC2
:1037D0001A44BB6B1A6397F85730032B1ED1BB6B8F
:1037E00038332A331846FDF71EFE0346002B01D05E
:1037F0000D23ABE0BB6B1B89002B01D00D23A5E093
:10380000BB6B38332C331846FDF724FE0246BB6BE6
:10381000DA62BB6BDB699B007B641FE0BB6B1B89BF
:10382000002B01D10D2391E0BB6B9A6AFB6C1A440B
:10383000BB6BDA6297F85730022B03D1BB6BDB69A5
:103840005B000AE0BB6BDA6913465B0013445A085D
:10385000BB6BDB6903F0010313447B64BB6B1A6A27
:103860007B6C03F2FF135B0A9A4201D20D236DE0D9
:10387000BB6B4FF0FF325A61BB6B5A69BB6B1A616D
:10388000BB6B80221A7197F85730032B49D1BB6B61
:10389000383330331846FDF7C6FD0346012B40D1BF
:1038A0003B6D01331946B86BFDF78EFF0346002BC5
:1038B00037D1BB6B00221A71BB6B383303F5FF7332
:1038C0001846FDF7B0FD03461A464AF655239A42BC
:1038D00027D1BB6B38331846FDF7BCFD03461E4AA3
:1038E00093421ED1BB6B383303F5F2731846FDF7D4
:1038F000B1FD0346194A934213D1BB6B383303F52C
:10390000F4731846FDF7A6FD0246BB6B5A61BB6B0C
:10391000383303F5F6731846FDF79CFD0246BB6B82
:103920001A61BB6B97F857201A700D4B1B88013337
:103930009AB20B4B1A800A4B1A88BB6BDA80BB6BAE
:10394000084ADA60BB6B00229A6100231846583798
:10395000BD4680BDF5FFFF0F525261417272416159
:10396000A49A0010A89A001080B584B000AF7860C7
:1039700039600923FB737B68002B1CD07B681B68B4
:10398000002B18D07B681B681B78002B13D07B683A
:103990009A887B681B68DB889A420CD17B681B681D
:1039A0005B78184601F0ACFC034603F00103002BE2
:1039B00001D10023FB73FB7B002B02D17B681B68CA
:1039C00000E000233A681360FB7B18461037BD46C1
:1039D00080BDFFFF80B588B000AFF860B9601346C6
:1039E000FB71BB683B6107F110031846FFF7BEFC93
:1039F000F861FB69002B01DA0B2325E0144AFB690F
:103A000052F82330BB61BB69002B02D0BB69002296
:103A10001A70FB68002B02D0FB6800221A70FA684B
:103A20000B49FB6941F82320FB79002B01D10023CE
:103A30000AE007F10C0107F1080300221846FFF71E
:103A400033FD0346FB75FB7D18462037BD4680BD20
:103A5000A09A001090B59BB000AFF860B960134613
:103A6000FB71FB68002B01D1092372E1FB7903F0A4
:103A70003F03FB71FA7907F1140107F108031846B7
:103A8000FFF712FD034687F8673097F86730002B81
:103A900040F056817B69BB61BA6807F11803114693
:103AA0001846FFF7D5FB034687F8673097F867306D
:103AB000002B07D197F843305BB2002B02DA0623C4
:103AC00087F86730FB7903F01C03002B73D097F85D
:103AD0006730002B10D097F86730042B07D107F11F
:103AE00018031846FEF73AFF034687F86730FB795C
:103AF00043F00803FB7110E0BB7F03F01103002BC0
:103B000003D0072387F8673007E0FB7903F004034D
:103B1000002B02D0082387F8673097F86730002B16
:103B200063D1FB7903F00803002B5ED07B697A6BCD
:103B300011461846FEF76CFBB8657B6B03F10E046B
:103B400035F05EFE034619462046FDF7BFFC7B6B51
:103B50000B3320221A707B69796B00221846FEF71E
:103B600076FB7B6B1C3300211846FDF7AFFC7B69AD
:103B70000122DA70BB6D002B37D07B695B6B7B65F4
:103B800007F118030022B96D1846FEF76BF80346DB
:103B900087F8673097F86730002B26D17B69796DFD
:103BA0001846FDF711FE034687F867307B69BA6D4A
:103BB000013A1A6119E097F86730002B15D1BB7FE5
:103BC00003F01003002B03D0042387F867300CE0C8
:103BD000FB7903F00203002B07D0BB7F03F0010346
:103BE000002B02D0072387F8673097F86730002B47
:103BF0000FD1FB7903F00803002B03D0FB7943F0CE
:103C00004003FB717B695A6BFB681A627A6BFB6835
:103C10005A6297F86730002B40F092807B697A6B8C
:103C200011461846FEF7F4FA0246FB689A607B6B71
:103C30001C331846FDF70EFC0246FB68DA607A6911
:103C4000FB681A607B69DA88FB689A80FB68FA79FE
:103C50001A74FB6800225A74FB680022DA61FB6860
:103C600000225A61FB6828334FF400720021184685
:103C7000FDF777FCFB7903F02003002B60D0FB6895
:103C8000DB68002B5CD0FB68DA68FB685A617B69F3
:103C90005B895B023B65FB689B683B66FB68DB6896
:103CA000FB6516E0FB68396E1846FDF747FE38667F
:103CB0003B6E012B02D8022387F867303B6EB3F1CD
:103CC000FF3F02D1012387F86730FA6D3B6DD31AAD
:103CD000FB6597F86730002B03D1FA6D3B6D9A4274
:103CE000E0D8FB683A6E9A6197F86730002B27D1CD
:103CF000FB6DC3F30803002B22D07B69396E184695
:103D0000FDF7FEFDF864FB6C002B03D1022387F85E
:103D1000673015E0FB6D5A0AFB6C1A44FB68DA61E8
:103D20007B695878FB6803F12801FB68DA69012395
:103D300001F0FAFA0346002B02D0012387F867301E
:103D400097F86730002B02D0FB6800221A6097F8C2
:103D5000673018466C37BD4690BD80B58EB000AF59
:103D6000F860B9607A603B60BB687B623B680022A8
:103D70001A60FB6807F1140211461846FFF7F4FDBC
:103D8000034687F8373097F83730002B07D1FB68A8
:103D90005B7C87F8373097F83730002B02D097F8E4
:103DA000373009E1FB681B7C03F00103002B01D1D4
:103DB000072301E1FB68DA68FB685B69D31A3B62A1
:103DC0007A683B6A9A4240F2F2803B6A7B60EEE09E
:103DD000FB685B69C3F30803002B40F0BA80FB6803
:103DE0005B695B0A7A695289013A1340FB61FB699E
:103DF000002B23D1FB685B69002B03D1FB689B6818
:103E00003B6307E0FA68FB689B6919461046FDF7BB
:103E100095FD38633B6B012B04D8FB6802225A7472
:103E20000223C9E03B6BB3F1FF3F04D1FB680122E1
:103E30005A740123C0E0FB683A6B9A617A69FB68A7
:103E40009B6919461046FDF75BFDB861BB69002B05
:103E500004D1FB6802225A740223ADE0BA69FB69FF
:103E60001344BB617B685B0ABB62BB6A002B39D021
:103E7000FA69BB6A13447A695289934205D97B690E
:103E80005B891A46FB69D31ABB627B695878BB6AA7
:103E9000BA69796A01F048FA0346002B04D0FB683E
:103EA00001225A74012387E0FB681B7C5BB2002B64
:103EB00014DAFB68DA69BB69D31ABA6A9A420DD977
:103EC000FB68DA69BB69D31A5B027A6AD018FB68AF
:103ED00028334FF400721946FDF723FBBB6A5B02DF
:103EE000FB6250E0FB68DB69BA699A422ED0FB683E
:103EF0001B7C5BB2002B18DA7B695878FB6803F1F6
:103F00002801FB68DA69012301F06AFA0346002BF5
:103F100004D0FB6801225A7401234DE0FB681B7C2E
:103F200003F07F03DAB2FB681A747B695878FB6888
:103F300003F128010123BA6901F0F6F90346002BC9
:103F400004D0FB6801225A74012335E0FB68BA698A
:103F5000DA61FB685B69C3F30803C3F50073FB62B6
:103F6000FA6A7B689A4201D97B68FB62FB6803F1BD
:103F70002802FB685B69C3F308031344FA6A194615
:103F8000786AFDF7CEFA7A68FB6AD31A7B603B68E1
:103F90001A68FB6A1A443B681A607A6AFB6A13441F
:103FA0007B62FB685A69FB6A1A44FB685A617B684A
:103FB000002B7FF40DAF002318463837BD4680BD77
:103FC00080B58CB000AFF860B9607A603B60BB68C8
:103FD000FB613B6800221A60FB6807F11002114682
:103FE0001846FFF7C1FC034687F82F3097F82F30AB
:103FF000002B07D1FB685B7C87F82F3097F82F30B8
:10400000002B02D097F82F303FE1FB681B7C03F0B8
:104010000203002B01D1072337E1FB685A697B6853
:104020001A44FB685B699A4280F02181FB685B69F6
:10403000DB437B601BE1FB685B69C3F30803002B78
:1040400040F0D780FB685B695B0A3A695289013AA4
:104050001340BB61BB69002B37D1FB685B69002B48
:104060000CD1FB689B68BB62BB6A002B0ED1FB685E
:1040700000211846FDF75BFEB86207E0FA68FB68AE
:104080009B6919461046FDF752FEB862BB6A002BC9
:1040900000F0F280BB6A012B04D1FB6802225A7443
:1040A0000223F2E0BB6AB3F1FF3F04D1FB680122B7
:1040B0005A740123E9E0FB68BA6A9A61FB689B685D
:1040C000002B02D1FB68BA6A9A60FB681B7C5BB26A
:1040D000002B18DA3B695878FB6803F12801FB686C
:1040E000DA69012301F07CF90346002B04D0FB6858
:1040F00001225A740123C8E0FB681B7C03F07F0394
:10410000DAB2FB681A743A69FB689B691946104673
:10411000FDF7F6FB78617B69002B04D1FB68022276
:104120005A740223B1E07A69BB6913447B617B68EE
:104130005B0A3B623B6A002B3CD0BA693B6A134482
:104140003A695289934205D93B695B891A46BB6932
:10415000D31A3B623B6958783B6A7A69F96901F086
:104160003FF90346002B04D0FB6801225A74012357
:104170008BE0FB68DA697B69D31A3A6A9A4215D9EF
:10418000FB6803F12800FB68DA697B69D31A5B02DC
:10419000FA6913444FF400721946FDF7C2F9FB683F
:1041A0001B7C03F07F03DAB2FB681A743B6A5B0284
:1041B0007B623FE0FB68DB697A699A4216D0FB6854
:1041C0005A69FB68DB689A4210D23B695878FB68F1
:1041D00003F1280101237A6901F0A6F80346002BB8
:1041E00004D0FB6801225A7401234EE0FB687A690F
:1041F000DA61FB685B69C3F30803C3F500737B6294
:104200007A6A7B689A4201D97B687B62FB6803F11A
:104210002802FB685B69C3F3080313447A6AF969EF
:104220001846FDF77EF9FB681B7C63F07F03DAB26A
:10423000FB681A747A687B6AD31A7B603B681A68D9
:104240007B6A1A443B681A60FA697B6A1344FB6113
:10425000FB685A697B6A1A44FB685A61FB68DA6832
:10426000FB685B699A4238BF1A46FB68DA607B6874
:10427000002B7FF4E0AE00E000BFFB681B7C43F046
:104280004003DAB2FB681A74002318463037BD4683
:1042900080BD80B586B000AF78607B6807F108020A
:1042A00011461846FFF760FB0346FB75FB7D002BAC
:1042B00068D17B681B7C03F04003002B62D07B68D5
:1042C0001B7C5BB2002B15DABB6858787B6803F166
:1042D00028017B68DA69012301F082F80346002B8C
:1042E00001D001234FE07B681B7C03F07F03DAB22F
:1042F0007B681A7435F084FA3861BA687B681B6A87
:1043000019461046FDF760FA0346FB75FB7D002B4E
:1043100038D17B685B6AFB60FB680B331A78FB68FB
:104320000B3342F02002D2B21A707B6818687B68A7
:104330009B681A46F968FDF78AFFFB6803F11C02C7
:104340007B68DB6819461046FDF7C0F8FB6816333A
:1043500039691846FDF7BAF8FB6812330021184690
:10436000FDF79AF8BB680122DA70BB681846FDF7C2
:1043700059FA0346FB757B681B7C23F04003DAB2D5
:104380007B681A74FB7D18461837BD4680BD80B522
:1043900084B000AF78607868FFF77BFF0346FB735B
:1043A000FB7B002B0ED17B6807F1080211461846F3
:1043B000FFF7DAFA0346FB73FB7B002B02D17B6825
:1043C00000221A60FB7B18461037BD4680BD80B5C1
:1043D00084B000AF786039607B68002B01D109237D
:1043E0004AE007F108013B4600221846FFF75CF857
:1043F0000346FB73FB7B002B37D1BA687B681A60DE
:104400003B6819467868FEF723FF0346FB73FB7B86
:10441000002B25D17B6893F82B305BB2002B12DB8D
:104420007B689B7903F01003002B0AD0BA687B6885
:10443000DB6919461046FDF7EBFE02467B689A6081
:1044400001E00523FB73FB7B002B09D1BB68DA88F5
:104450007B689A8000217868FDF782FD0346FB7334
:10446000FB7B042B01D10523FB73FB7B002B02D0CC
:104470007B6800221A60FB7B18461037BD4680BD62
:1044800080B584B000AF78607B6807F10802114600
:104490001846FFF769FA0346FB73FB7B002B02D13A
:1044A0007B6800221A60FB7B18461037BD4680BD32
:1044B00080B584B000AF786039607B6807F108028E
:1044C00011461846FFF750FA0346FB73FB7B002B9F
:1044D00026D13B68002B06D100217868FDF740FD0E
:1044E0000346FB731CE000217868FEF7CFF8034613
:1044F000FB73FB7B042B01D10023FB73FB7B002BA5
:104500000ED139687868FEF76BFB00217868FDF7FB
:10451000A2FD0346FB73FB7B042B01D10023FB733D
:10452000FB7B18461037BD4680BD80B590B000AF0C
:104530007860396007F108013B1D00221846FEF73C
:10454000B3FF034687F83F3097F83F30002B1FD169
:104550007A6807F1080311461846FEF779FE03460C
:1045600087F83F3097F83F30002B11D197F8333060
:104570005BB2002B03DA062387F83F3008E03B6884
:10458000002B05D007F1080339681846FEF728FB11
:1045900097F83F3018464037BD4680BD80B5A0B083
:1045A00000AF78600023BB6707F10C013B1D0222BE
:1045B0001846FEF779FF034687F87F3097F87F307B
:1045C000002B40F09980FB687B647A6807F1440314
:1045D00011461846FEF73CFE034687F87F3097F8F1
:1045E0007F30002B08D197F86F3003F02003002BA9
:1045F00002D0062387F87F3097F87F30002B7BD1DD
:1046000097F86F305BB2002B03DA062387F87F3010
:1046100008E097F84A3003F00103002B02D007238B
:1046200087F87F3097F87F30002B3DD1FB683A6EDA
:1046300011461846FDF7ECFDB86797F84A3003F0CD
:104640001003002B30D0FB689B69BA6F9A4203D1EC
:10465000072387F87F3027E0FB683B61BB6FBB61B6
:1046600007F1100300211846FDF77AFC034687F88E
:104670007F3097F87F30002B16D107F1100300210F
:104680001846FEF703F8034687F87F3097F87F3027
:10469000002B02D1072387F87F3097F87F30042B57
:1046A00002D1002387F87F3097F87F30002B23D189
:1046B00007F144031846FEF749FA034687F87F30AE
:1046C00097F87F30002B0CD1BB6F002B09D007F17E
:1046D00044030022B96F1846FDF7C4FA034687F871
:1046E0007F3097F87F30002B06D1FB681846FDF726
:1046F00099F8034687F87F3097F87F30184680375F
:10470000BD4680BD90B5A9B000AF786039603B462A
:104710001846FEF72BFE07F128013B1D0222184622
:10472000FEF7C2FE034687F89F3097F89F30002BB4
:1047300040F0DC80BB6A3B667A6807F16003114693
:104740001846FEF785FD034687F89F3097F89F309F
:10475000002B08D197F88B3003F0A003002B02D078
:10476000062387F89F3097F89F30002B40F0BE80DB
:10477000F96F07F1080320221846FCF7D2FE07F173
:10478000600107F12C0334221846FCF7CAFE3A6890
:1047900007F12C0311461846FEF75AFD034687F829
:1047A0009F3097F89F30002B0CD17A6BBB6E9A42EA
:1047B00005D1FA6B3B6F9A4201D1042300E0082334
:1047C00087F89F3097F89F30042B78D107F12C039E
:1047D0001846FEF7C3F8034687F89F3097F89F30D6
:1047E000002B6CD1BB6CC7F89830D7F8983003F128
:1047F0000D0007F108030D3313221946FCF791FE53
:10480000D7F898300B33FA7C1A70D7F898300B33FE
:104810001B7803F01003002B0AD1D7F898300B3324
:104820001A78D7F898300B3342F02002D2B21A70BF
:10483000BB6A0122DA70D7F898300B331B7803F08B
:104840001003002B3BD0BA6E7B6B9A4237D0BC6A08
:10485000BB6AD7F898101846FDF7DAFC03461946EC
:104860002046FDF74DF8C7F89400D7F89430002B98
:1048700003D1022387F89F3021E0BB6AD7F8941058
:104880001846FCF7A1FF034687F89F30BB6A383310
:104890002033C7F8983097F89F30002B0FD1D7F806
:1048A000983001331B782E2B09D1BB6A7A6BD7F86D
:1048B00098101846FDF7CBFCBB6A0122DA7097F816
:1048C0009F30002B12D107F160031846FEF73EF926
:1048D000034687F89F3097F89F30002B06D1BB6ABC
:1048E0001846FCF79FFF034687F89F3097F89F30E4
:1048F0001846A437BD4690BD80B596B000AFF860AD
:10490000B9607A6007F1100107F10C030022184624
:10491000FEF7CAFD034687F8573097F85730002B4B
:1049200056D1BB68002B53D03B697B610023FB61F0
:1049300007F1140300211846FDF712FB034687F820
:10494000573097F85730002B38D107F11403012165
:104950001846FDF79BFE034687F8573097F8573007
:10496000002B2BD10023FB64FB6C3B6510E03A6B02
:104970003B6D591C396513441B78A7F84A30FB6C12
:104980005A1CFA64BA681344B7F84A20D2B21A70B3
:104990003B6D0A2BEBD9BA68FB6C134400221A70EA
:1049A000FB6C002B09D0FB6C013BFB64BA68FB6C11
:1049B00013441B78202BEED000E000BF97F857304F
:1049C000042B05D1BB6800221A70002387F85730EA
:1049D00097F85730002B29D17B68002B26D03A69F5
:1049E0003B695B6A19461046FCF7EEFE034687F802
:1049F000573097F85730002B18D13B691B78032BA1
:104A000004D0042B05D16423FB6404E04323FB643E
:104A100001E02723FB643B6903F13802FB6C13447C
:104A20001846FCF717FD02467B681A6097F8573066
:104A300018465837BD4680BD80B485B000AF786059
:104A40000B467B800023FB81164BBB607B687F2B72
:104A500002D87B68FB811FE07B68B3F5803F1BD2E7
:104A60007B8840F2B512934216D10023FB8102E00D
:104A7000FB890133FB81FB897F2B08D8FB895B0015
:104A8000BA6813441B881A467B689342F0D1FB89AD
:104A900080339BB2DBB2FB81FB8918461437BD46DD
:104AA00080BC70478466050080B485B000AF0346C3
:104AB0000A46FB801346BB800023FB810F4BBB6083
:104AC000FB887F2B02D8FB88FB8110E0BB8840F27B
:104AD000B51293420BD1FB88FF2B08D8FB8803F15A
:104AE0000043803B5B00BA6813441B88FB81FB8951
:104AF00018461437BD4680BC704700BF8466050069
:104B000080B487B000AF78607B68B3F5803F7DD21A
:104B10007B687B827B8AB3F5805F01D23E4B00E0ED
:104B20003E4B7B617B699A1C7A611B883B823B8A86
:104B3000002B69D07A8A3B8A9A4265D37B699A1C9A
:104B40007A611B88FB81FB891B0ABB81FB89DBB275
:104B5000FB817A8A398AFB890B449A424ADABB89FB
:104B6000082B50D801A252F823F000BF914B01004E
:104B7000A34B0100B94B0100C14B0100C94B01001F
:104B8000D14B0100D94B0100E14B0100E94B010081
:104B90007A8A3B8AD31A5B007A6913441B887B822A
:104BA00027E07A8A3B8AD31A9BB203F001039BB2B7
:104BB0007A8AD31A7B821CE07B8A103B7B8218E0C6
:104BC0007B8A203B7B8214E07B8A303B7B8210E037
:104BD0007B8A1A3B7B820CE07B8A08337B8208E06D
:104BE0007B8A503B7B8204E07B8AA3F5E3537B8284
:104BF00000BF08E0BB89002B94D1FB895B007A6978
:104C000013447B618EE700BF7B8A7B607B6818461C
:104C10001C37BD4680BC7047846705007869050075
:104C200080B483B000AF78600B46FB70FB78012B3B
:104C300008D10D4BD3F8C4200B497B681343C1F84E
:104C4000C4300BE0FB78002B08D1074BD3F8C4200D
:104C50007B68DB4304491340C1F8C43000BF0C3704
:104C6000BD4680BC704700BF00C00F4080B483B019
:104C700000AF0346FB71094AFB79136000BF084B84
:104C80001B6803F01003002BF9D1044B1B68DBB247
:104C900018460C37BD4680BC704700BF08C00A40AC
:104CA0000CC00A4080B485B000AF78603960334BE7
:104CB0001B68324A43F00F0313600023FB6006E0D9
:104CC0002F4B4FF6FF721A60FB680133FB60FB68E5
:104CD000072BF5D93B68103B3B601EE03B68023B6D
:104CE0003B6000BF274B1B6803F00403002BF9D087
:104CF000234B1B687B81224B4FF6FF721A607B8926
:104D00001B0A99B27B685A1C7A60CAB21A707B6817
:104D10005A1C7A607A89D2B21A703B68012BDDD8AE
:104D20000023FB601AE000BF164B1B6803F004036E
:104D3000002BF9D0124B1B687B817B891B0A99B22F
:104D40007B685A1C7A60CAB21A707B685A1C7A60F7
:104D50007A89D2B21A70FB680133FB60FB68072BBB
:104D6000E1D9064B1A6805494FF6F77313400B60FB
:104D700000BF1437BD4680BC704700BF00C00A406A
:104D800008C00A400CC00A4080B485B000AF78600B
:104D90003960334B1B68324A43F00F031360002322
:104DA000FB6015E07B685A1C7A601B787B817B89ED
:104DB0001B021AB27B68591C79601B781BB2134323
:104DC0001BB27B81274A7B891360FB680133FB6040
:104DD000FB68072BE6D93B68103B3B601EE03B6855
:104DE000023B3B607B685A1C7A601B787B817B8925
:104DF0001B021AB27B68591C79601B781BB21343E3
:104E00001BB27B8100BF184B1B6803F00403002B0F
:104E1000F9D0144B1B68134A7B8913603B68012B44
:104E2000DDD80023FB600BE000BF0F4B1B6803F0D5
:104E30000403002BF9D00B4B1B68FB680133FB60AC
:104E4000FB68072BF0D9064B1A6805494FF6F77334
:104E500013400B6000BF1437BD4680BC704700BFD5
:104E600000C00A4008C00A400CC00A4080B584B0A7
:104E700000AF78600C4A7B681360FF20FFF7F6FEF6
:104E80000346FB73FB7BFF2B03D0074B1B68002BF8
:104E9000F3D1FB7BFF2B0CBF01230023DBB21846B1
:104EA0001037BD4680BD00BFAC9C001080B500AF80
:104EB000034B00221A70FF20FFF7D8FE00BF80BD11
:104EC0003880092080B500AF094B00221A70FF20FE
:104ED000FFF7CCFE4FF4FA70FFF7C8FF0346002B34
:104EE00001D0012302E0FFF7E1FF0023184680BD57
:104EF0003C80092080B400AF1B4B1B681A4A43F466
:104F000080131360194B02221A60194B07221A6092
:104F1000184B02221A60184BD3F88030164A43F01F
:104F20001403C2F88030144B0422C3F8A020124BA3
:104F3000D3F89030104A43F01403C2F890300E4B6F
:104F4000D3F884300C4A43F01403C2F884300B4B7E
:104F50001B680A4A43F480731360094B00221A70DD
:104F600000BFBD4680BC7047C4C00F4010C00A409F
:104F700000C00A4004C00A4000C00240208009204E
:104F80003880092080B500AFFFF79CFFFFF78EFF48
:104F900000BF80BD80B584B000AF78603960114B30
:104FA000C8221A60FF20FFF761FE0346FB73FB7BFC
:104FB000FF2B03D10B4B1B68002BF3D1FB7BFE2B8C
:104FC00001D000230AE039687868FFF76BFEFF2004
:104FD000FFF74CFEFF20FFF749FE0123184610376C
:104FE000BD4680BDA89C001080B584B000AF78603D
:104FF0000B46FB704FF4FA70FFF738FF0346002BA7
:1050000001D1002320E0FB781846FFF72FFEFB7844
:10501000FD2B01D1012317E04FF400717868FFF7F1
:10502000B3FEFF20FFF722FEFF20FFF71FFEFF2049
:10503000FFF71CFE0346FB73FB7B03F01F03052BEE
:105040000CBF01230023DBB218461037BD4680BDDC
:1050500080B584B000AF03463960FB7197F9073023
:10506000002B0EDAFB7903F07F03FB710021372060
:10507000FFF7EEFF0346BB73BB7B012B01D9BB7B64
:1050800051E0FB790C2B08D0FFF710FFFFF71AFF58
:105090000346002B01D1FF2345E0FB7943F0400399
:1050A000DBB21846FFF7E2FD3B681B0EDBB2184689
:1050B000FFF7DCFD3B681B0CDBB21846FFF7D6FDA3
:1050C0003B681B0ADBB21846FFF7D0FD3B68DBB23A
:1050D0001846FFF7CBFD0123FB73FB79002B01D1B1
:1050E0009523FB73FB79082B01D18723FB73FB7B93
:1050F0001846FFF7BBFDFB790C2B02D1FF20FFF711
:10510000B5FD0A23FB73FF20FFF7B0FD0346BB7319
:1051100097F90E30002B05DAFB7B013BFB73FB7B21
:10512000002BF0D1BB7B18461037BD4680BDFFFF7A
:1051300090B585B000AF0346FB71FB79002B01D021
:105140000123D0E0FFF7D6FE694B1B78DBB203F0FA
:105150000203002B03D0664B1B78DBB2C3E0654B28
:105160001B68DBB2634A43F4745313600A23FB7376
:1051700005E0FF20FFF77AFDFB7B013BFB73FB7B28
:10518000002BF6D100237B7300210020FFF760FF86
:105190000346012B40F08780574B4FF47A721A6018
:1051A0004FF4D5710820FFF753FF0346012B4FD171
:1051B0000023FB730DE0FC7BFF20FFF757FD034648
:1051C0001A4607F11003234403F8082CFB7B013334
:1051D000FB73FB7B032BEED9BB7A012B63D1FB7AEC
:1051E000AA2B60D100BF444B1B68002B07D04FF0A7
:1051F0008041A920FFF72CFF0346002BF3D13E4B43
:105200001B68002B4FD000213A20FFF721FF0346F7
:10521000002B48D10023FB730DE0FC7BFF20FFF740
:1052200025FD03461A4607F11003234403F8082C12
:10523000FB7B0133FB73FB7B032BEED93B7A03F043
:105240004003002B01D00C2300E004237B732AE0F1
:105250000021A920FFF7FCFE0346012B04D80223FE
:105260007B73A923BB7303E001237B730123BB730F
:1052700000BF214B1B68002B07D0BB7B00211846C9
:10528000FFF7E6FE0346002BF3D11B4B1B68002BF8
:1052900007D04FF400711020FFF7DAFE0346002B11
:1052A00001D000237B73154A7B7B1370FFF7FEFD53
:1052B0007B7B002B0FD00F4B1B68DBB20D4A43F4F6
:1052C000745313600A4B1B78DBB223F00103DAB28C
:1052D000074B1A7004E0FFF755FE054B01221A70C8
:1052E000034B1B78DBB218461437BD4690BD00BF98
:1052F0000C00001000C00A40A89C0010B09C0010D8
:1053000080B483B000AF0346FB71FB79002B01D062
:10531000012302E0034B1B78DBB218460C37BD4675
:1053200080BC70470C00001080B586B000AFB9603B
:105330007A603B600346FB73FB7B002B02D13B682A
:10534000002B01D1042343E0234B1B78DBB203F095
:105350000103002B01D003233AE0204B1B7803F01C
:105360000803002B02D17B685B027B603B68012B4A
:1053700001D9122300E01123FB75FB7D79681846E3
:10538000FFF766FE0346002B1AD14FF40071B86890
:10539000FFF700FE0346002B0AD0BB6803F500733D
:1053A000BB603B68013B3B603B68002BEDD100E0FC
:1053B00000BFFB7D122B03D100210C20FFF748FE1C
:1053C000FFF774FD3B68002B14BF01230023DBB201
:1053D00018461837BD4680BD0C000010B09C001068
:1053E00080B584B000AFB9607A603B600346FB7360
:1053F000FB7B002B02D13B68002B01D1042363E02F
:10540000334B1B78DBB203F00103002B01D00323E5
:105410005AE02F4B1B78DBB203F00403002B01D0C2
:10542000022351E02B4B1B7803F00803002B02D121
:105430007B685B027B603B68012B10D17968182088
:10544000FFF706FE0346002B36D1FE21B868FFF7B2
:10545000CBFD0346002B2FD000233B602CE01D4BDF
:105460001B7803F00603002B03D039689720FFF761
:10547000EFFD79681920FFF7EBFD0346002B1BD1E8
:10548000FC21B868FFF7B0FD0346002B0AD0BB68CB
:1054900003F50073BB603B68013B3B603B68002B3E
:1054A000EED100E000BFFD210020FFF79DFD034687
:1054B000002B01D101233B60FFF7F8FC3B68002B78
:1054C00014BF01230023DBB218461037BD4680BD50
:1054D0000C000010B09C001090B58DB000AF0346DA
:1054E0003A60FB710B46BB713B68BB62FB79002BDA
:1054F00001D0042331E2AE4B1B78DBB203F0010391
:10550000002B01D0032328E2012387F82F30BB7939
:10551000362B00F2058201A252F823F0F955010062
:105520000D56010021590100B9560100B95701007B
:10553000215901002159010021590100215901007F
:10554000215901002159010021590100215901006F
:10555000215901002159010021590100215901005F
:10556000215901002159010021590100215901004F
:10557000215901002159010021590100215901003F
:10558000215901002159010021590100215901002F
:10559000215901002159010021590100215901001F
:1055A000215901002159010021590100215901000F
:1055B00021590100215901002159010021590100FF
:1055C00021590100215901002159010021590100EF
:1055D00021590100215901002159010021590100DF
:1055E000215901005F5801006F58010093580100D4
:1055F000B7580100F7580100FFF764FC0346002B81
:1056000000F09281002387F82F308DE100210920DE
:10561000FFF71EFD0346002B40F0888107F10803C9
:1056200010211846FFF7B6FC0346002B00F07E81E0
:105630003B7A9B09DBB2012B11D17B7C1A463B7C68
:105640001B0213441A46FB7B1B0403F47C13134414
:105650000133BB61BB699A023B681A6028E07B7B1F
:1056600003F00F03DAB2BB7CDB09DBB21344DAB21E
:105670007B7C5B00DBB203F00603DBB21344DBB2DE
:10568000023387F82E303B7C9B09DBB21A46FB7B4A
:105690009B001A44BB7B9B0203F440631344013319
:1056A000BB6197F82E30093BBA699A403B681A6093
:1056B000002387F82F3039E13E4B1B7803F00403B9
:1056C000002B31D000218D20FFF7C2FC0346002BB8
:1056D00040F02E81FF20FFF7C9FA07F108031021DF
:1056E0001846FFF757FC0346002B00F021813023BA
:1056F00087F82E3007E0FF20FFF7B8FA97F82E3032
:10570000013B87F82E3097F82E30002BF3D1BB7C6D
:105710001B09DBB21A46102303FA02F23B681A6037
:10572000002387F82F3003E100210920FFF790FCC8
:105730000346002B40F0FC8007F1080310211846B7
:10574000FFF728FC0346002B00F0F280194B1B7872
:1057500003F00203002B12D0BB7C5B0003F07E033E
:10576000FA7CD209D2B213445A1C7B7D9B09DBB26E
:10577000013B02FA03F31A463B681A6013E0BB7C54
:105780009B109BB203F01F030133FA7CD20002F09E
:105790001802F97C4909C9B20A44013202FB03F339
:1057A0001A463B681A60002387F82F30C0E000BF1C
:1057B0000C000010B09C00106A4B1B7803F006032D
:1057C000002B00F0B78007F10802FB79332118465F
:1057D000FFF782FE0346002B40F0AE803B7A9B0928
:1057E000DBB2002B05D1BB7C03F04003002B00F0A3
:1057F000A5803B68FB61FB691B687B62FB695B689A
:105800003B62584B1B7803F00803002B05D17B6AE1
:105810005B027B623B6A5B023B62796A2020FFF796
:1058200017FC0346002B40F08B80396A2120FFF7DC
:105830000FFC0346002B40F0838000212620FFF759
:1058400007FC0346002B7BD147F23050FFF70EFBDD
:105850000346002B74D0002387F82F3070E0414BB3
:105860001A78BB6A1A70002387F82F3071E0002184
:105870000920FFF7EDFB0346002B63D11021B86A26
:10588000FFF788FB0346002B5CD0002387F82F30FE
:1058900058E000210A20FFF7DBFB0346002B53D121
:1058A0001021B86AFFF776FB0346002B4CD000238B
:1058B00087F82F3048E000213A20FFF7C9FB034664
:1058C000002B43D1042387F82E300CE0BC6A631C04
:1058D000BB62FF20FFF7CAF90346237097F82E300A
:1058E000013B87F82E3097F82E30002BEED10023A5
:1058F00087F82F302AE000218D20FFF7A9FB03460F
:10590000002B25D1FF20FFF7B1F94021B86AFFF73E
:1059100041FB0346002B1BD0002387F82F3017E0F4
:10592000042387F82F3014E000BF12E000BF10E01E
:1059300000BF0EE000BF0CE000BF0AE000BF08E0BF
:1059400000BF06E000BF04E000BF02E000BF00E0CF
:1059500000BFFFF7ABFA97F82F3018463437BD4633
:1059600090BD00BFB09C001080B485B000AF7860DF
:10597000344B1B68FB60344B1B68BB60314B1B68AE
:10598000FA689A42F4D1304B1B68BA689A42EFD158
:105990002E4B1B6803F01003002B17D07B680022EE
:1059A000DA717B6800229A717B6800225A717B68E9
:1059B00000221A717B680122DA707B6801229A70DA
:1059C0007B6840F2DE721A80002336E0FB68DBB2AF
:1059D00003F03F03DAB27B68DA71FB681B0ADBB2C3
:1059E00003F03F03DAB27B689A71FB681B0CDBB2F1
:1059F00003F01F03DAB27B685A71FB681B0EDBB23F
:105A000003F00703DAB27B681A71BB68DBB203F0FC
:105A10001F03DAB27B68DA70BB681B0ADBB203F0E3
:105A20000F03DAB27B689A70BB681B0C9BB2C3F39E
:105A30000B039AB27B681A80012318461437BD46BF
:105A400080BC704714400240184002405C40024055
:105A500080B483B000AF0346FB71FB7903F01F03F2
:105A6000012202FA03F1054A97F907305B0942F86F
:105A7000231000BF0C37BD4680BC704700E100E03A
:105A800080B483B000AF3E4B9B68BB71BB795B08B1
:105A9000BB71BB7903F00703BB71BB79032B27D123
:105AA000374B1B7D7B717B7903F09E03002B06D067
:105AB0007B79344A1360324B1B78FB715CE07B7955
:105AC00003F00103002B53D02D4A2F4B1B68127893
:105AD000D1B22E4AD1542C4B1B6801332A4A136091
