:1000000000000110B10101002D02010033020100C6
:100010004D0201005302010059020100F6F2F8EF0F
:100020000000000000000000000000005F0201006E
:1000300065020100000000006B02010015060100CE
:10004000770201001DAF0400770201007702010072
:1000500077020100B95B010077020100770201001D
:10006000D15C0100770201007702010077020100F4
:100070007702010077020100770201007702010098
:100080007702010077020100770201007702010088
:100090007702010077020100770201007702010078
:1000A0007702010077020100770201007702010068
:1000B0007702010077020100770201007702010058
:1000C0007702010077020100770201007702010048
:1000D00011AF04008D640200BDAD04007702010081
:1000E00077020100B40707000000001018AA000002
:1000F000B40707000000002000000000B40707005C
:100100000020002000000000B4070700004000208D
:100110000000000018AA0010844400000000002025
:10012000000000000020002000000000004000202F
:100130000000000080B489B000AFF860B9607A6058
:10014000BB68FB61FB68BB6100237B610AE0BA69A5
:10015000131DBB61FB69191DF96112681A607B6987
:1001600004337B617A697B689A42F0D300BF00BF99
:100170002437BD4680BC704780B485B000AF78603E
:1001800039607B68FB600023BB6007E0FB681A1DD9
:10019000FA6000221A60BB680433BB60BA683B682F
:1001A0009A42F3D300BF00BF1437BD4680BC7047EE
:1001B00080B584B000AF1A4BFB6013E0FB681A1DDA
:1001C000FA601B683B60FB681A1DFA601B68BB6025
:1001D000FB681A1DFA601B687B607A68B96838682A
:1001E000FFF7A8FFFB680F4A9342E7D30DE0FB68D7
:1001F0001A1DFA601B68BB60FB681A1DFA601B6859
:100200007B607968B868FFF7B7FFFB68064A9342DE
:10021000EDD300F03BF900F0CBFE3DF0EDFAFEE748
:10022000E4000100140101003401010080B400AFBA
:10023000FEE780B500AF044805F05CFF022019F02E
:10024000B1F91AF085F8FEE7C0F3060080B400AFFC
:10025000FEE780B400AFFEE780B400AFFEE780B4F5
:1002600000AFFEE780B400AFFEE780B400AFFEE76A
:1002700080B400AFFEE780B400AFFEE780B400AF0B
:100280007D4BD3F8043103F48073002B57D17A4BA4
:10029000D3F80C3103F00103002B1FD1764BD3F8B8
:1002A000043103F01F03754AB2FBF3F3744A136081
:1002B000714BD3F8A83103F01F03704AB2FBF3F37C
:1002C000704A13606C4BD3F8003103F00103013323
:1002D0006A4AB2FBF3F36C4A1360C8E0664BD3F88A
:1002E000A03103F04003002B09D1654B00221A60B6
:1002F000644B00221A60644B00221A60B7E05E4B28
:10030000D3F8043103F01F035C4AB2FBF3F35C4AF9
:100310001360594BD3F8A83103F01F03574AB2FBBF
:10032000F3F3584A1360544BD3F8003103F0010340
:100330000133524AB2FBF3F3534A136097E04E4B3A
:10034000D3F8883003F48073002B09D14C4B002282
:100350001A604C4B00221A604B4B00221A6086E058
:10036000454BD3F80C3103F00103002B37D1424B3E
:10037000D3F8883003F01F030133404A02FB03F235
:100380003D4BD3F8043103F01F03B2FBF3F33C4AB7
:100390001360394BD3F8883003F01F030133374A19
:1003A00002FB03F2344BD3F8A83103F01F03B2FB76
:1003B000F3F3344A1360304BD3F8883003F01F0353
:1003C00001332E4A02FB03F22B4BD3F8003103F02A
:1003D00001030133B2FBF3F32B4A136047E0264BD2
:1003E000D3F8A03103F04003002B09D1244B0022A5
:1003F0001A60244B00221A60234B00221A6036E058
:100400001D4BD3F8883003F01F0301331B4A02FB56
:1004100003F2194BD3F8043103F01F03B2FBF3F3DB
:10042000174A1360144BD3F8883003F01F030133CD
:10043000124A02FB03F2104BD3F8A83103F01F035A
:10044000B2FBF3F30F4A13600B4BD3F8883003F081
:100450001F030133094A02FB03F2074BD3F80031B3
:1004600003F001030133B2FBF3F3074A136000BF4B
:10047000BD4680BC704700BF00C00F40001BB700E6
:1004800000000010040000100800001080B400AF4D
:10049000244B2122C3F8A02100BF224BD3F8A03166
:1004A00003F04003002BF8D01E4B0122C3F80C21AF
:1004B0001C4B0922C3F884201A4B0122C3F8802068
:1004C000184BAA22C3F88C20164B5522C3F88C2057
:1004D00000BF144BD3F8883003F48063002BF8D0AE
:1004E000104B40F20112C3F804210E4B0122C3F855
:1004F00000210C4B0222C3F8A8210A4B0A4AC3F878
:10050000C420084B4FF48072C3F8C821054B45F254
:100510003A021A60054B4FF480329A6000BFBD4624
:1005200080BC704700C00F40DE87280400ED00E06B
:1005300080B483B000AF03463960FB7197F9073090
:10054000002B0BDA3B68DAB20C49FB7903F00F039E
:10055000043BD200D2B20B441A7609E03B68DAB20F
:10056000074997F90730D200D2B20B4483F8002331
:1005700000BF0C37BD4680BC704700BF00ED00E0F7
:1005800000E100E080B483B000AF0346FB7197F94F
:100590000730002B0ADA0C4AFB7903F00F03043B07
:1005A00013441B7EDBB2DB08DBB208E0074A97F995
:1005B0000730134493F80033DBB2DB08DBB2184694
:1005C0000C37BD4680BC704700ED00E000E100E064
:1005D00080B582B000AF78607B68B3F1807F01D3D3
:1005E000012311E07B6823F07F43094A013B5360FC
:1005F0001F214FF0FF30FFF79BFF054B00229A6051
:10060000034B07221A60002318460837BD4680BDF9
:1006100010E000E080B400AF044B1B680133034AD4
:10062000136000BFBD4680BC704700BF58E5001096
:1006300080B582B000AFFFF721FE124B1B68124A53
:10064000A2FB03239B091846FFF7C2FF0346002BBA
:1006500000D0FEE74FF0FF314FF0FF30FFF768FFAB
:100660004FF0FF30FFF78EFF78607B68013B7B60C7
:1006700079684FF0FF30FFF75BFF00BF0837BD46DA
:1006800080BD00BF00000010D34D621080B483B065
:1006900000AF78604FF0402302225A604FF04023B1
:1006A0000022DA60164B1A68164BD3F8A83103F013
:1006B0001F03B2FBF3F3144AA2FB03239B09013B84
:1006C0004FF040217A6802FB03F38B614FF0402327
:1006D000FF221A604FF0402304225A614FF040235A
:1006E00001225A6000BF4FF040235B6803F0010312
:1006F000002BF8D100BF00BF0C37BD4680BC70474F
:100700000000001000C00F40D34D621080B487B0CD
:1007100000AF4FF020437B614FF020433B6100234B
:10072000FB6021E00023BB6018E0FB6899B2BB6866
:100730009AB23B69981C38610A4492B21A80FB68ED
:100740009AB2BB689BB213449AB23B69991C396157
:10075000013292B21A80BB680133BB60BB68FF2BC9
:10076000E3D9FB680133FB60FB68FF2BDAD94FF05C
:1007700020437B610023FB601FE00023BB6016E089
:100780007B691A1D7A611B687B60FA68BB68134439
:1007900001331A04F968BB680B449BB213437A68AF
:1007A0009A4201D001230CE0BB680133BB60BB68F7
:1007B000FF2BE5D9FB680133FB60FB68FF2BDCD91D
:1007C000002318461C37BD4680BC704780B586B0F4
:1007D00000AF786000237B61FF233B61FF23FB6058
:1007E0002FE07B68002B0CD1314BD3F8DC3123F0A8
:1007F0001F03BB602E49BA687B691343C1F8DC3123
:100800000CE02B4BD3F8DC3123F4F853BB607B694D
:100810001A022749BB681343C1F8DC31FFF776FFA2
:100820000346002B05D13B69FF2B07D17B693B6158
:1008300004E03B69FF2B01D07B69FB607B690133DE
:100840007B617B691F2BCCD9FB68FF2B05D03A69F4
:10085000FB6813445B087B6108E03B69FF2B04D015
:100860003B691F335B087B6100E0FEE77B68002B80
:100870000CD10F4BD3F8DC3123F01F03BB600C49C4
:10088000BA687B691343C1F8DC310CE0084BD3F83C
:10089000DC3123F4F853BB607B691A020449BB685E
:1008A0001343C1F8DC3100BF1837BD4680BD00BF1F
:1008B00000C00F4080B485B000AF0023FB60002370
:1008C0007B601AE0134B4FF48042C3F8E021114BD8
:1008D000D3F8E031BB6003E00E4BD3F8E031BB60EE
:1008E000BB6803F40043002BF6D0BB68DBB2FA68A8
:1008F0001344FB607B6801337B607B68092BE1D983
:10090000FB68054AA2FB0323DB0818461437BD46E3
:1009100080BC704700C00F40CDCCCCCC80B586B039
:1009200000AF7860FFF7C6FF7861164BD3F8DC3173
:100930003B613B6903F01F037A6802FB03F27B69AA
:10094000B2FBF3F303F01F03FB603B6903F4F853BE
:100950007A6802FB03F27B69B2FBF3F303F4F8530A
:10096000BB603B6923F4F85323F01F03BA681A43B2
:100970000449FB681343C1F8DC3100BF1837BD469A
:1009800080BD00BF00C00F4090B585B000AFCC4B1C
:10099000D3F8C430CA4A43F40063C2F8C430C84B29
:1009A00041F21002C3F8DC21C64B01221A60C54B8C
:1009B00000229A60C44B0122C3F88021C24B01225D
:1009C000C3F88421C04B0122C3F88821BE4B012209
:1009D000C3F88C21BC4B0122C3F89021BA4B0122F1
:1009E000C3F89421B84B0122C3F89821B64B0122D9
:1009F000C3F89C21B44B0122C3F8A021B24B0122C1
:100A0000C3F8A421B04B0122C3F8A821AE4B0122A8
:100A1000C3F8AC21AC4B0122C3F8B021AA4B012290
:100A2000C3F8B421A84B0122C3F8B821A64B012278
:100A3000C3F8BC21A44B0122C3F8C021A24B012260
:100A4000C3F8C421A04B0122C3F8C8219E4B012248
:100A5000C3F8CC219C4B0122C3F8D0219A4B012230
:100A6000C3F8D421984B0122C3F8D821964B012218
:100A7000C3F8DC21944B0122C3F8E021924B012200
:100A8000C3F8E421904B0122C3F8E8218E4B0122E8
:100A9000C3F8EC218C4B0122C3F8F0218A4B0122D0
:100AA000C3F8F421884B0122C3F8F821864B0122B8
:100AB000C3F8FC21844B0122C3F80022824B01229F
:100AC000C3F80422804B0122C3F808227E4B012286
:100AD000C3F80C227C4B0122C3F810227A4B01226E
:100AE000C3F81422784B0122C3F81822764B012256
:100AF000C3F81C22744B0122C3F82022724B01223E
:100B0000C3F82422704B0122C3F828226E4B012225
:100B1000C3F82C226C4B0122C3F830226A4B01220D
:100B2000C3F83422684B0122C3F83822664B0122F5
:100B3000C3F83C22644B0122C3F84022624B0122DD
:100B4000C3F84422604B0122C3F848225E4B0122C5
:100B5000C3F84C225C4B0122C3F850225A4B0122AD
:100B6000C3F85422584B0122C3F85822564B012295
:100B7000C3F85C22544B0122C3F86022524B01227D
:100B8000C3F86422504B0122C3F868224E4B012265
:100B9000C3F86C224C4B0122C3F878224A4B012245
:100BA000C3F87C22484B0122C3F83821464B01226E
:100BB000C3F83C21444B0122C3F84021424B01229F
:100BC000C3F84421404B0122C3F848213E4B012287
:100BD000C3F84C213C4B0122C3F850213A4B01226F
:100BE000C3F85421384B0122C3F85821364B012257
:100BF000C3F85C21344B0122C3F86021324B01223F
:100C0000C3F86421304B0122C3F868212E4B012226
:100C1000C3F86C212C4B0122C3F870212A4B01220E
:100C2000C3F87421284B0122C3F87821264B0122F6
:100C3000C3F87C21234B4FF48642C3F80021214B9B
:100C400040F20222C3F804211E4B01229A621F4B7C
:100C50001B68184640F066FE17A3D3E9002340F056
:100C6000D3FB02460B46104619464FF00002184BC4
:100C700040F040FB02460B46124C1046194640F02D
:100C80000CFE03462363114B1B68184640F04AFED6
:100C900009A3D3E9002340F0B7FB02460B461046F8
:100CA00019464FF000020B4B40F024FB02460B4666
:100CB00012E000BFAFF300800000000065CDCD4121
:100CC00000C00F4000C0092000C002400800001012
:100CD0000000344000004540AB4C1046194640F03F
:100CE000DCFD03466363A94B1B68184640F01AFEFF
:100CF000A1A3D3E9002340F087FB02460B46104630
:100D000019464FF00002A24B40F0F4FA02460B469F
:100D10009D4C1046194640F0C0FD0346A3639B4B13
:100D20001B68184640F0FEFD93A3D3E9002340F072
:100D30006BFB02460B46104619464FF00002954BDE
:100D400040F0D8FA02460B468F4C1046194640F048
:100D5000A4FD0346E3638D4B1B68184640F0E2FD9B
:100D600085A3D3E9002340F04FFB02460B46104613
:100D700019464FF00002874B40F0BCFA02460B4682
:100D80001046194640F089FD03467F4A023313643A
:100D90007E4B1B68184640F0C5FD77A3D3E90023BE
:100DA00040F032FB02460B46104619464FF0000257
:100DB000794B40F09FFA02460B461046194640F028
:100DC0006CFD0346704A01335364704B1B68184630
:100DD00040F0A8FD68A3D3E9002340F015FB0246CC
:100DE0000B46104619464FF000026C4B40F082FA59
:100DF00002460B46644C1046194640F04EFD034631
:100E0000A364624B1B68184640F08CFD5AA3D3E9DB
:100E1000002340F0F9FA02460B46104619464FF0FF
:100E200000025E4B40F066FA02460B46564C1046F6
:100E3000194640F032FD0346E364544B1B681846E4
:100E400040F070FD4CA3D3E9002340F0DDFA0246E8
:100E50000B46104619464FF00002504B40F04AFA3C
:100E600002460B46484C1046194640F016FD034614
:100E70002365464B1B68184640F054FD3EA3D3E95A
:100E8000002340F0C1FA02460B46104619464FF0C7
:100E90000002434B40F02EFA02460B463A4C1046F5
:100EA000194640F0FAFC03466365374B02229A6507
:100EB0006420FFF7EBFB344B40F283121A62C82028
:100EC000FFF7E4FB304B40F203121A622E4B012273
:100ED0005A6200237B6002E07B6801337B607B68A1
:100EE0007F2BF9D9294B1B68184640F01BFD22A324
:100EF000D3E9002340F088FA02460B461046194613
:100F00001FA3D3E9002340F0F5F902460B46104633
:100F1000194640F0C2FC03461B4A1B0953621A4B98
:100F200083221A621F4B1B68BB60174B00221A6298
:100F3000154B1D4AC3F80021FFF7BCFC0346FB60BC
:100F40001A4B1B78012B03D0184B1B78002B08D1B0
:100F50000020FFF73BFC0120FFF738FC16F024FED1
:100F600001E016F035FEFB681846FFF7D7FC00BF1E
:100F70001437BD4690BD00BF0000000065CDCD41D7
:100F8000000000008084CE4000C00920080000104E
:100F9000004053400000344000001C40008051409D
:100FA00000002C40002002A000430800687B0010D5
:100FB00080B500AFFFF762F916F02CFC16F0B6FD15
:100FC00016F02AFEFFF7E0FC0123184680BD80B42E
:100FD00083B000AF786039607B683A681A6000BF00
:100FE0000C37BD4680BC704780B485B000AFF86058
:100FF000B9607A60BB689A017B681A43FB685A60E3
:1010000000BF1437BD4680BC704780B483B000AFCA
:10101000786039607B683A689A6000BF0C37BD46DB
:1010200080BC704780B483B000AF78607B68DB68B9
:1010300018460C37BD4680BC704780B483B000AF03
:10104000786039607B683A681A6100BF0C37BD462A
:1010500080BC704780B483B000AF78607B680022AA
:101060009A6100BF0C37BD4680BC704780B483B026
:1010700000AF78607B68D3F8603F18460C37BD46F8
:1010800080BC704780B483B000AF786039607B6803
:101090003A68C3F8682F00BF0C37BD4680BC704764
:1010A00080B584B000AF7860244B1B68FB60786823
:1010B000FFF7D0FFFB68224AA2FB0323DB0B5A1E7B
:1010C0007B685A61FB681F4AA2FB03239A0C1346F4
:1010D0001B019B1A1C4AA2FB03239B090133BB6023
:1010E000FB68184AA2FB03239A0C1346DB009B1AE9
:1010F000DB009B1A144AA2FB03239B0901331B024A
:10110000BA681343BB60FB680E4AA2FB03239A0C28
:1011100013469B001344DA00D31A0B4AA2FB0323A5
:101120009B0901331B04BA681343BB60B968786834
:10113000FFF783FF00BF1037BD4680BD00000010E1
:10114000819F5E1683DE1B43D34D621080B584B051
:1011500000AF786039607868FFF788FFF860FA6858
:101160003B6813403A689A4200D0F4E700BF396800
:101170007868FFF787FF00BF1037BD4680BD80B598
:1011800086B000AFF8607A601A460B467B81134642
:101190007B7200237B617B7ADB00012202FA03F37E
:1011A000013B3B614FF08061F868FFF76BFF7B7A92
:1011B000012B04D10321F868FFF709FF0BE07B7ACC
:1011C000022B04D10421F868FFF701FF03E0052199
:1011D000F868FFF7FCFE7B891A460021F868FFF7E4
:1011E00003FF00237B6112E07A687B6913441A686D
:1011F0003B6913401946F868FFF707FF4FF080611D
:10120000F868FFF7A3FF7B7A7A6913447B617A69F8
:101210003B6A9A42E8D37B6918461837BD4680BDC1
:1012200080B582B000AF78600B467B80062178687D
:10123000FFF728FF7B88002219467868FFF7D4FE65
:1012400006217868FFF7C3FE4FF080517868FFF7FA
:101250007DFF00BF0837BD4680BD80B586B000AFBA
:10126000F8607B600B467B8113463B8197F820300A
:10127000DB00012202FA03F3013B3B614FF0806186
:10128000F868FFF7FFFE3B897A891946F868FFF78F
:10129000ABFE97F82030012B04D10821F868FFF746
:1012A00096FE0CE097F82030022B04D10921F86853
:1012B000FFF78DFE03E00A21F868FFF788FE0023A0
:1012C0007B6124E07A687B69134419683B69DA43DF
:1012D00078687B6903440A401A60F868FFF7A2FE49
:1012E00002463B6902EA03017A687B6913441A6883
:1012F00078687B6903440A431A604FF08061F8689C
:10130000FFF724FF97F820307A6913447B617A69EC
:101310007B6A9A42D6D37B6918461837BD4680BD92
:1013200080B58AB002AFF8607B600B467B811346C4
:101330003B810023FB617B8903F03F03BB61BB69F9
:10134000C3F140037B6126E07A69FB6A9A4201D9C6
:10135000FB6A7B61BB6999B27A68FB691A4497F8AA
:1013600028007B6900930346F868FFF708FF3B8974
:101370001946F868FFF754FFFA697B691344FB616B
:10138000FA6A7B69D31AFB623B8901333B810023F4
:10139000BB6140237B61FB6A002BD5D1012318463A
:1013A0002037BD4680BD80B58AB002AFF8607B6053
:1013B0000B467B8113463B810023FB617B8903F055
:1013C0003F03BB61BB69C3F140037B6123E07A69E2
:1013D000FB6A9A4201D9FB6A7B61BB6999B27A6860
:1013E000FB69D0183A897B69019397F828300093FC
:1013F0000346F868FFF731FFFA697B691344FB6124
:10140000FA6A7B69D31AFB623B8901333B81002373
:10141000BB6140237B61FB6A002BD8D101231846B6
:101420002037BD4680BD80B485B000AF78607B6852
:1014300001331B78FB81FB891B021AB27B681B7886
:101440001BB213431BB2FB81FB8918461437BD4600
:1014500080BC704780B485B000AF78607B68033390
:101460001B78FB60FB681B027A6802321278134318
:10147000FB60FB681B027A68013212781343FB6041
:10148000FB681B027A6812781343FB60FB681846FE
:101490001437BD4680BC704780B483B000AF78601D
:1014A0000B467B807B685A1C7A607A88D2B21A70AD
:1014B0007B881B0A7B807B685A1C7A607A88D2B250
:1014C0001A7000BF0C37BD4680BC704780B483B033
:1014D00000AF786039607B685A1C7A603A68D2B293
:1014E0001A703B681B0A3B607B685A1C7A603A683A
:1014F000D2B21A703B681B0A3B607B685A1C7A6048
:101500003A68D2B21A703B681B0A3B607B685A1C6F
:101510007A603A68D2B21A7000BF0C37BD4680BC00
:10152000704780B487B000AFF860B9607A60FB683C
:101530007B61BB683B617B68002B0DD03A69531C13
:101540003B617B69591C796112781A707B68013B99
:101550007B607B68002BF1D100BF1C37BD4680BC8F
:10156000704780B487B000AFF860B9607A60FB68FC
:101570007B617B695A1C7A61BA68D2B21A707B6847
:10158000013B7B607B68002BF3D100BF00BF1C37A1
:10159000BD4680BC704780B489B000AFF860B960C8
:1015A0007A60FB68FB61BB68BB6100237B61FB6900
:1015B0005A1CFA611B781946BB695A1CBA611B7820
:1015C000CB1A7B617B68013B7B607B68002B02D080
:1015D0007B69002BEBD07B6918462437BD4680BC65
:1015E000704780B483B000AF7860396002E07B68F8
:1015F00001337B607B681B78002B05D07B681B78F0
:101600001A463B689342F2D17B681B7818460C3728
:10161000BD4680BC704780B483B000AF0346FB7109
:10162000FB79002B01D0002300E0002318460C3783
:10163000BD4680BC704780B483B000AF0346FB71E9
:10164000FB79002B01D0002300E0002318460C3763
:10165000BD4680BC704780B586B000AF78607B68BF
:101660001B687B617B695A1C7A611B787B827B8A51
:10167000DBB21846FFF7CFFF0346002B15D07B697E
:101680005A1C7A611B787B747B7C1846FFF7D3FF6A
:101690000346002B02D14FF0FF331DE07B8A1B0273
:1016A0009AB27B7C9BB213447B827B8A002B0DD049
:1016B0007B8A40F2B511184603F09EFA03467B82FE
:1016C0007B8A002B02D14FF0FF3305E07B8AFB6061
:1016D0007B687A691A60FB6818461837BD4680BD7A
:1016E00080B586B000AFF860B9607A6040F2B5119D
:1016F000F86803F049FA0346FB82FB8AFF2B14D9F2
:101700007B68012B01D800231EE0FB8A1B0A99B2DB
:10171000BB685A1CBA60CAB21A70BB685A1CBA605D
:10172000FA8AD2B21A7002230EE0FB8A002B02D092
:101730007B68002B01D1002306E0BB685A1CBA600D
:10174000FA8AD2B21A70012318461837BD4680BDF6
:1017500080B584B000AF78600023FB737B68DB78D2
:10176000002B2CD07B6858787B6803F134017B68B0
:101770001A6B012303F0D0FE0346002B1DD17B68BA
:101780000022DA707B681A6B7B685B6AD21A7B680E
:10179000DB699A4213D27B689B78022B0FD17B685E
:1017A00058787B6803F134017B681A6B7B68DB69CE
:1017B0001A44012303F0B0FE01E00123FB73FB7B1D
:1017C00018461037BD4680BD80B584B000AF786044
:1017D00039600023FB737B681B6B3A689A421BD00D
:1017E0007868FFF7B5FF0346FB73FB7B002B13D133
:1017F0007B6858787B6803F1340101233A6803F071
:101800002FFE0346002B04D04FF0FF333B60012333
:10181000FB737B683A681A63FB7B18461037BD463A
:1018200080BDFFFF80B584B000AF78607868FFF7B7
:101830008FFF0346FB73FB7B002B58D17B681B7823
:10184000032B48D17B681B79012B44D17B6834334F
:101850004FF4007200211846FFF783FE7B68343393
:1018600003F5FF734AF655211846FFF715FE7B680E
:10187000343321491846FFF729FE7B68343303F5DA
:10188000F2731E491846FFF721FE7B68343303F5D7
:10189000F4727B685B6919461046FFF717FE7B6898
:1018A000343303F5F6727B681B6919461046FFF75F
:1018B0000DFE7B681B6A5A1C7B681A637B6858782C
:1018C0007B6803F134017B681A6B012303F024FE6B
:1018D0007B6800221A717B685B7800220021184621
:1018E00003F096FE0346002B01D00123FB73FB7B24
:1018F00018461037BD4680BD525261417272416137
:1019000080B483B000AF786039603B68023B3B60D5
:101910007B689B69023B3A689A4201D3002308E046
:101920007B68DA6A7B685B8919463B6803FB01F3D5
:10193000134418460C37BD4680BC704780B586B04E
:1019400000AF786039607B681B683B613B68012BA6
:1019500004D93B699B693A689A4202D301237B61AF
:101960008FE04FF0FF337B613B691B78032B62D024
:10197000032B7CDC012B02D0022B42D077E03B68AA
:10198000FB60FB685B08FA681344FB603B695A6ABA
:10199000FB685B0A134419463869FFF715FF0346D5
:1019A000002B67D1FB685A1CFA60C3F308033A693D
:1019B000134493F83430BB603B695A6AFB685B0A96
:1019C000134419463869FFF7FFFE0346002B53D135
:1019D000FB68C3F308033A69134493F834301B02DD
:1019E0001A46BB681343BB603B6803F00103002B3E
:1019F00002D0BB681B0902E0BB68C3F30B037B6129
:101A00003FE03B695A6A3B681B0A13441946386930
:101A1000FFF7DAFE0346002B30D13B6903F13402B5
:101A20003B685B0003F4FF7313441846FFF7FBFCAD
:101A300003467B6125E03B695A6A3B68DB09134436
:101A400019463869FFF7C0FE0346002B18D13B69E1
:101A500003F134023B689B0003F4FE731344184601
:101A6000FFF7F8FC034623F070437B6109E0012394
:101A70007B6106E000BF04E000BF02E000BF00E0C1
:101A800000BF7B6918461837BD4680BD90B589B048
:101A900000AFF860B9607A600223FB77BB68012B66
:101AA00040F2D280FB689B69BA689A4280F0CC8091
:101AB000FB681B78032B00F09680032B00F3CD808E
:101AC000012B02D0022B6ED0C7E0BB68BB61BB69A3
:101AD0005B08BA691344BB61FB685A6ABB695B0A5D
:101AE00013441946F868FFF76FFE0346FB77FB7F48
:101AF000002B40F0AB80FB6803F13402BB69591C3A
:101B0000B961C3F3080313447B61BB6803F00103AD
:101B1000002B0DD07B691B785BB203F00F035AB228
:101B20007B68DBB21B015BB213435BB2DBB201E04B
:101B30007B68DBB27A691370FB680122DA70FB689C
:101B40005A6ABB695B0A13441946F868FFF73CFE02
:101B50000346FB77FB7F002B7AD1FB6803F134024D
:101B6000BB69C3F3080313447B61BB6803F0010343
:101B7000002B03D07B681B09DBB20EE07B691B786E
:101B80005BB223F00F035AB27B681B0A5BB203F00F
:101B90000F035BB213435BB2DBB27A691370FB686D
:101BA0000122DA7059E0FB685A6ABB681B0A1344C9
:101BB0001946F868FFF708FE0346FB77FB7F002B0A
:101BC00048D1FB6803F13402BB685B0003F4FF7388
:101BD00013447A6892B211461846FFF75DFCFB6821
:101BE0000122DA7039E0FB685A6ABB68DB091344EA
:101BF0001946F868FFF7E8FD0346FB77FB7F002BEB
:101C00002AD17B6823F07044FB6803F13402BB687F
:101C10009B0003F4FE7313441846FFF71BFC0346B6
:101C200003F0704323437B60FB6803F13402BB681D
:101C30009B0003F4FE73134479681846FFF746FCD3
:101C4000FB680122DA7008E000BF06E000BF04E094
:101C500000BF02E000BF00E000BFFB7F1846243752
:101C6000BD4690BD80B588B000AFF860B9607A60BD
:101C70000023FB77FB681B68BB61BB68012B04D9A1
:101C8000BB699B69BA689A4201D302234BE07B6827
:101C9000002B0CD04FF0FF327968B869FFF7F6FEE1
:101CA0000346FB77FB7F002B01D0FB7F3BE0B9684D
:101CB000F868FFF743FE78617B69002B31D07B69C0
:101CC000012B01D102232EE07B69B3F1FF3F01D14B
:101CD000012328E00022B968B869FFF7D7FE034660
:101CE000FB77FB7F002B01D0FB7F1CE0BB695A69AF
:101CF000BB699B69023B9A420BD2BB695B695A1C68
:101D0000BB695A61BB691B7943F00103DAB2BB6955
:101D10001A717B69BB60BB699B69BA689A42C6D37A
:101D200000E000BF002318462037BD4680BD80B5C7
:101D300088B000AF786039607B681B683B613B68A6
:101D4000002B0DD13B691B69BB61BB69002B04D023
:101D50003B699B69BA699A421BD30123BB6118E0B6
:101D600039687868FFF7EAFDF860FB68012B01D855
:101D70000123A9E0FB68B3F1FF3F01D1FB68A3E0B9
:101D80003B699B69FA689A4201D2FB689CE03B6818
:101D9000BB613B695B69002B01D1002394E0002308
:101DA000FB61BA693B689A4229D1BB690133FB6187
:101DB0003B699B69FA699A4201D30223FB61F96985
:101DC0007868FFF7BBFDF860FB68012B03D0FB6868
:101DD000B3F1FF3F01D1FB6876E0FB68002B0ED02A
:101DE0003B691B69FB60FB68012B06D93B699B695A
:101DF000FA689A4201D2FB68BB610023FB61FB6970
:101E0000002B29D1BB69FB61FB690133FB613B6995
:101E10009B69FA699A4207D30223FB61FA69BB699D
:101E20009A4201D900234FE0F9697868FFF786FDEF
:101E3000F860FB68002B0ED0FB68012B03D0FB6819
:101E4000B3F1FF3F01D1FB683EE0FA69BB699A42FA
:101E5000DAD1002338E000BF4FF0FF32F96938696A
:101E6000FFF714FE0346FB75FB7D002B09D13B6891
:101E7000002B06D0FA6939683869FFF707FE034678
:101E8000FB75FB7D002B16D13B69FA691A613B6932
:101E90005A693B699B69023B9A4204D83B695B697A
:101EA0005A1E3B695A613B691B7943F00103DAB260
:101EB0003B691A7107E0FB7D012B02D14FF0FF3324
:101EC00000E00123FB61FB6918462037BD4680BD59
:101ED00080B586B000AF786039607868FFF738FC6D
:101EE0000346002B01D0012336E039687868FFF7FC
:101EF00007FD38617B683A691A637B6834334FF4B5
:101F0000007200211846FFF72CFB7B683433FB601E
:101F10000123BB6000237B6103E07A69BB68134443
:101F20007B617B685B891A467B6993420BD27B6835
:101F300058783A697B691A44BB68F96803F0ECFA8F
:101F40000346002BE9D07B685B891A467B69934284
:101F500014BF01230023DBB218461837BD4680BDED
:101F600080B586B000AF786039607B681B683B61E4
:101F70003B68B3F5001F04D23B6803F01F03002B3E
:101F800001D0022363E07B683A681A617B689B6832
:101F90007B617B69002B06D13B691B78022B02D940
:101FA0003B699B6A7B617B69002B0CD13B685B09B9
:101FB0003A691289934201D3022348E03B699A6A45
:101FC0007B689A6129E03B695B895B02FB6019E0F1
:101FD0007B6879691846FFF7B1FC78617B69B3F1DA
:101FE000FF3F01D1012332E07B69012B04D93B691A
:101FF0009B697A699A4201D3022328E03A68FB6818
:10200000D31A3B603A68FB689A42E1D27969386931
:10201000FFF776FC02467B689A617B687A695A61B1
:102020007B689B69002B01D1022310E07B689A69D1
:102030003B685B0A1A447B689A613B6903F134028E
:102040003B68C3F308031A447B68DA61002318462F
:102050001837BD4680BD80B586B000AF7860396066
:102060007B681B683B617B681B692033FB60FB68F6
:10207000B3F5001F02D37B6800229A617B689B69DD
:10208000002B01D1042378E0FB68C3F30803002B85
:1020900066D17B689B695A1C7B689A617B685B6927
:1020A000002B0AD1FB685B093A691289934257D326
:1020B0007B6800229A6104235FE0FB685B0A3A694F
:1020C0005289013A1340002B4AD17A687B685B69D8
:1020D00019461046FFF732FC78617B69012B01D865
:1020E00002234AE07B69B3F1FF3F01D1012344E0C1
:1020F0003B699B697A699A4228D33B68002B04D1DB
:102100007B6800229A61042337E07A687B685B6908
:1021100019461046FFF70BFE78617B69002B01D151
:1021200007232AE07B69012B01D1022325E07B698B
:10213000B3F1FF3F01D101231FE079693869FFF74F
:10214000C7FE0346002B01D0012316E07B687A69A5
:102150005A6179693869FFF7D3FB02467B689A6157
:102160007B68FA681A613B6903F13402FB68C3F3C8
:1021700008031A447B68DA61002318461837BD4605
:1021800080BD80B586B000AF786039607B681B6821
:10219000FB6000217868FFF7E3FE0346FB75FB7DDB
:1021A000002B2BD100233B617B689B691946F868A3
:1021B000FFF70AFB0346FB75FB7D002B1DD17B68F7
:1021C000DB691B78E52B04D07B68DB691B78002B6F
:1021D00007D13B6901333B613A693B689A4202D1BE
:1021E0000CE000233B6101217868FFF734FF0346D0
:1021F000FB75FB7D002BD7D000E000BFFB7D042BDF
:1022000001D10723FB75FB7D18461837BD4680BDFD
:1022100080B584B000AF786039603B681A331846E7
:10222000FFF701F90346FB607B681B78032B09D19C
:102230003B6814331846FFF7F6F803461B04FA68A8
:102240001343FB60FB6818461037BD4680BD80B560
:1022500084B000AFF860B9607A60BB681A337A68FE
:1022600092B211461846FFF717F9FB681B78032B4B
:1022700009D1BB6803F114027B681B0C9BB21946A1
:102280001046FFF709F900BF1037BD4680BDFFFFBC
:1022900090B587B000AF786039603B681A33184654
:1022A000FFF7C1F80346002B01D0002358E03B683C
:1022B0001B7803F03F035A1E13465B0013449B0038
:1022C00013447B610123FB8100233B6132E0264AFA
:1022D0003B6913441B781A463B6813441846FFF7C2
:1022E000A2F80346BB81FB89002B19D07B69FE2B2A
:1022F00011D8BB89184602F0ABFC04467B695A1C16
:102300007A615B007A6813441B88184602F0A0FCCF
:1023100003469C4201D0002322E0BB89FB8106E0FA
:10232000BB894FF6FF72934201D0002318E03B694E
:1023300001333B613B690C2BC9D93B681B7803F027
:102340004003002B0BD0FB89002B08D07B695B007E
:102350007A6813441B88002B01D0002300E001237E
:1023600018461C37BD4690BDA81F050080B586B035
:1023700000AF786039603B681A331846FFF753F8AE
:102380000346002B01D000234DE03B681B7823F06F
:1023900040035A1E13465B0013449B0013447B61A9
:1023A0000123FB8100233B6128E0214A3B69134460
:1023B0001B781A463B6813441846FFF734F8034667
:1023C000BB81FB89002B0FD07B69FE2B01D9002339
:1023D00029E0BB89FB817B695A1C7A615B007A68C2
:1023E0001344FA891A8006E0BB894FF6FF729342C4
:1023F00001D0002317E03B6901333B613B690C2BA3
:10240000D3D93B681B7803F04003002B0AD07B69CB
:10241000FE2B01D9002306E07B695B007A68134438
:1024200000221A80012318461837BD4680BD00BF20
:10243000A81F050080B588B000AFF860B9601146EC
:102440001A460B46FB711346BB71BB680D33BA7954
:102450001A70BB680B330F221A70BB680C33002252
:102460001A70BB681A3300211846FFF715F8FB797C
:102470005A1E13465B0013449B001344FB61002368
:10248000FB820023BB61FB8A4FF6FF72934207D0A9
:10249000FB695A1CFA615B00FA6813441B88FB82D3
:1024A000174ABB6913441B781A46BB681344FA8A5F
:1024B00011461846FEF7F0FFFB8A002B02D14FF6BB
:1024C000FF73FB82BB690133BB61BB690C2BDAD99B
:1024D000FB8A4FF6FF72934206D0FB695B00FA68F5
:1024E00013441B88002B03D1FB7943F04003FB719D
:1024F000BB68FA791A7000BF2037BD4680BD00BFA7
:10250000A81F050080B58CB000AFF860B9607A6094
:102510003B600B22B968F868FFF703F83B68052BAE
:102520002BD93B68FB6122E07B689A1C7A601B8890
:102530007B840023BB6217E0FB695A007B8C03F0AD
:1025400001031344FB617B8C5B087B84FB6903F410
:102550008033002B05D0FB6983F4883383F021039B
:10256000FB61BB6A0133BB62BB6A0F2BE4D97B689A
:102570001B88002BD8D1FB693B600723BB623B68FB
:10258000DBB203F00F03DBB2303387F82F3097F85C
:102590002F30392B04D997F82F30073387F82F3095
:1025A000BB6A5A1EBA6207F13002134497F82F2013
:1025B00003F81C2C3B681B093B603B68002BDED1F9
:1025C00007F11402BB6A13447E221A7000237B6257
:1025D00014E0FA687B6A13441B781846FFF71BF86F
:1025E0000346002B07D0BB6A013B7A6A9A4210D09F
:1025F0007B6A01337B627B6A01337B627A6ABB6AE6
:102600009A4207D2FA687B6A13441B78202BE0D1E8
:1026100000E000BFBB6A072B08D8BB6A5A1CBA622D
:1026200007F13002134413F81C1C00E020217B6AE0
:102630005A1C7A62FA6813440A461A707B6A072B9E
:10264000E8D900BF00BF3037BD4680BD80B485B03B
:1026500000AF78600023FB730B23BB60FB7BDAB217
:102660005208DB011343DAB27B68591C79601B788E
:102670001344FB73BB68013BBB60BB68002BEDD10F
:10268000FB7B18461437BD4680BC704780B586B0CA
:1026900000AF786039600423FB757B681B683B6181
:1026A000FF237B75FF233B7581E07B689B6919469F
:1026B0003869FFF789F80346FB75FB7D002B7CD159
:1026C0007B68DB691B78BB75BB7D002B02D10423C3
:1026D000FB7577E07B68DB690B331B7803F03F0306
:1026E000FB737B68FA7B9A71BB7DE52B0ED0BB7DBB
:1026F0002E2B0BD0FB7B23F02003082B0CBF0123D8
:102700000023DBB21A463B68934202D0FF237B755D
:1027100044E0FB7B0F2B2FD1BB7D03F04003002B4C
:102720000DD07B68DB695B7B3B75BB7D23F0400391
:10273000BB75BB7D7B757B681A697B68DA62BA7D85
:102740007B7D9A4215D17B68DB690D331B783A7D1E
:102750009A420ED13B69DA687B68DB6919461046FC
:10276000FFF704FE0346002B03D07B7D013BDBB269
:1027700000E0FF237B7511E07B7D002B09D17B6896
:10278000DB691846FFF762FF03461A463B7D93421A
:1027900015D07B684FF0FF32DA6210E000217868D4
:1027A000FFF759FC0346FB75FB7D002B09D17B68C5
:1027B0009B69002B7FF479AF04E000BF02E000BF0B
:1027C00000E000BFFB7D002B02D07B6800229A61F5
:1027D000FB7D18461837BD4680BD80B586B000AF7A
:1027E00078607B681B683B6100217868FFF7B8FB65
:1027F0000346FB75FB7D002B01D0FB7DA9E0FF2389
:102800003B753B7D7B757B684FF0FF32DA627B68FE
:102810009B6919463869FEF7D7FF0346FB75FB7DB8
:10282000002B40F090807B68DB691B78BB75BB7D1B
:10283000002B02D10423FB758AE07B68DB690B3334
:102840001B7803F03F03FB737B68FA7B9A71BB7DB7
:10285000E52B07D0FB7B03F00803002B09D0FB7BA3
:102860000F2B06D0FF237B757B684FF0FF32DA62B7
:102870005EE0FB7B0F2B36D17B6893F82B3003F0A7
:102880004003002B54D1BB7D03F04003002B0DD03F
:102890007B68DB695B7B3B75BB7D23F04003BB75CD
:1028A000BB7D7B757B681A697B68DA62BA7D7B7D4C
:1028B0009A4215D17B68DB690D331B783A7D9A42C9
:1028C0000ED13B69DA687B68DB6919461046FFF771
:1028D000DFFC0346002B03D07B7D013BDBB200E035
:1028E000FF237B7524E07B7D002B09D17B68DB69AE
:1028F0001846FFF7ABFE03461A463B7D934224D0B1
:102900007B6893F82B3003F00103002B0AD17B681E
:10291000D8697B6820330B221946FEF73CFE03463C
:10292000002B14D0FF237B757B684FF0FF32DA62F7
:1029300000217868FFF78FFB0346FB75FB7D002BBA
:102940003FF465AF04E000BF02E000BF00E000BF5D
:10295000FB7D18461837BD4680BDFFFF80B58CB0A3
:1029600000AF78607B681B68FB617B6893F82B3055
:1029700003F0A003002B01D00623E0E000237B62DC
:1029800002E07B6A01337B62FB69DA687B6A5B0089
:1029900013441B88002BF4D17B6803F1200107F15D
:1029A0000C030C221846FEF7BCFDFB7D03F001036F
:1029B000002B32D07B68402283F82B200123BB629E
:1029C00016E07B6803F12000FB69DA6807F10C016F
:1029D000BB6AFFF797FD7868FFF7FFFE034687F8AD
:1029E0002F3097F82F30002B06D1BB6A0133BB6222
:1029F000BB6A632BE5D900E000BFBB6A642B01D141
:102A000007239CE097F82F30042B02D097F82F3043
:102A100095E0FA7D7B6883F82B20FB7D03F00203B1
:102A2000002B07D07B6A0C33474AA2FB03239B0889
:102A3000013300E001233B62396A7868FFF7A1FBAC
:102A4000034687F82F3097F82F30002B48D13B6A88
:102A5000013B3B623B6A002B42D07B681A693B6AB0
:102A60005B01D31A19467868FFF77AFA034687F8AC
:102A70002F3097F82F30002B32D17B682033184647
:102A8000FFF7E4FD0346FB767B689B691946F8690E
:102A9000FEF79AFE034687F82F3097F82F30002B69
:102AA0001DD1FB69D8687B68D9693B6ADAB2FB7EC5
:102AB000FFF7C0FCFB690122DA7000217868FFF79C
:102AC000CAFA034687F82F3097F82F30002B07D12A
:102AD0003B6A013B3B623B6A002BD5D100E000BF63
:102AE00097F82F30002B28D17B689B691946F8692D
:102AF000FEF76AFE034687F82F3097F82F30002B39
:102B00001BD17B68DB69202200211846FEF729FDD6
:102B10007B68D8697B6820330B221946FEF701FDDC
:102B20007B6893F82B207B68DB690C3302F018027A
:102B3000D2B21A70FB690122DA7097F82F3018466A
:102B40003037BD4680BD00BF4FECC44E80B586B067
:102B500000AF78607B681B683B617B681B69FB602A
:102B60007B68DB6AB3F1FF3F07D07B68DB6A1946FD
:102B70007868FFF7F5F9034600E00023FB75FB7D5D
:102B8000002B28D17B689B6919463869FEF71CFE2B
:102B90000346FB75FB7D002B15D17B68DB69E522C5
:102BA0001A703B690122DA707B681B69FA689A42E5
:102BB0000BD900217868FFF74EFA0346FB75FB7DC1
:102BC000002BDFD002E000BF00E000BFFB7D042B44
:102BD00001D10223FB75FB7D18461837BD4680BD29
:102BE00080B586B000AF786039607B681B68BB60D9
:102BF0003B6800229A757B689B69002B00F001817D
:102C00007B68DB6AB3F1FF3F4ED00023BB8100231A
:102C10003B613B697B6134E0BB68DA687B69591CC6
:102C200079615B0013441B88FB81BB89002B0AD1AF
:102C3000FB89B3F5584F06D3FB89B3F5604F02D239
:102C4000FB89BB811DE0BB891A04FB8942EA0300B2
:102C50003B6910333A681344991D3B69C3F1FF0384
:102C60001A46FEF73DFD0346FB81FB89002B02D18E
:102C700000233B610DE0FB893A6913443B6100236B
:102C8000BB81BB68DA687B695B0013441B88002B3F
:102C9000C2D1BB89002B01D000233B613A683B695C
:102CA0001344163300221A7000233B613B697B6199
:102CB00026E07B68DA697B69591C796113441B78CB
:102CC000FB81FB89202B00D11AE0FB89052B01D168
:102CD000E523FB817B69092B09D13B690B2B06D8C6
:102CE0003B695A1C3A613A6813442E225A723B6976
:102CF0005A1C3A61FA89D1B23A6813440A465A72A8
:102D00007B690A2BD5D93A683B6913440933002201
:102D10001A703B689B7D002B50D13B69002B07D17B
:102D20003B695A1C3A613A6813443F229A7536E06F
:102D300000233B613B697B612AE03A687B6913446D
:102D400009331B78FB81FB89402B13D9FB895A2B54
:102D500010D87B68DB690C331B781A467B69082B1B
:102D600001D9102300E008231340002B02D0FB8977
:102D70002033FB81FB89D9B23A683B69134416338F
:102D80000A461A707B6901337B613B6901333B6101
:102D90003A687B69134409331B78002BCDD13A681C
:102DA0003B691344163300221A707B68DB690C33CD
:102DB0001B78002B02D13B6800225A727B68DB69CA
:102DC000DA7A3B681A727B68DB691C331846FEF7B7
:102DD00041FB02463B681A607B68DB691633184684
:102DE000FEF721FB03461A463B68DA807B68DB6905
:102DF00018331846FEF717FB03461A463B689A80BD
:102E000000E000BF1837BD4680BDFFFF80B58AB027
:102E100000AF786039603B681B68BB607B681B68EB
:102E2000DB683B6100237B6107F108031846FEF76E
:102E300012FCF860FB68B3F1FF3F01D10623B7E154
:102E4000FB68B3F5803F09D3FB68190C7B695A1CFA
:102E50007A615B003A6913448AB21A80FB68BB84CA
:102E6000BB8C1F2B23D9BB8C2F2B20D0BB8C5C2B76
:102E70001DD0BB8C7F2B09D8BB8C1946A548FEF70B
:102E8000B0FB0346002B01D0062391E17B69FE2BAA
:102E900001D906238CE17B695A1C7A615B003A698F
:102EA0001344BA8C1A80BFE7BB680133BB60BB68B0
:102EB0001B782F2BF8D0BB681B785C2BF4D0BA683A
:102EC0003B681A60BB8C1F2B01D8042300E0002351
:102ED00087F8263011E07B6903F10043013B5B007A
:102EE0003A6913441B88BB84BB8C202B02D0BB8C5B
:102EF0002E2B06D17B69013B7B617B69002BEAD1DC
:102F000000E000BF7B695B003A69134400221A802D
:102F10007B69002B01D106234AE10023BB6102E05B
:102F2000BB690133BB61BB695B003A6913441B8811
:102F3000202BF5D0BB69002B06D1BB695B003A6939
:102F400013441B882E2B09D197F8263043F0030336
:102F500087F8263002E07B69013B7B617B69002BAF
:102F600009D07B6903F10043013B5B003A691344DC
:102F70001B882E2BEFD17B6820330B222021184693
:102F8000FEF7EFFA002387F8273000233B6208237F
:102F9000FB61BB695A1CBA615B003A6913441B8828
:102FA000BB84BB8C002B00F0B280BB8C202B06D0E6
:102FB000BB8C2E2B0AD1BA697B699A4206D097F84E
:102FC000263043F0030387F826309FE03A6AFB6916
:102FD0009A4203D2BA697B699A4224D1FB690B2BCE
:102FE00006D197F8263043F0030387F8263098E09F
:102FF000BA697B699A4205D097F8263043F00303FB
:1030000087F82630BA697B699A4200F289807B6929
:10301000BB6108233B620B23FB6197F827309B00C1
:1030200087F8273072E0BB8C7F2B18D997F82630B1
:1030300043F0020387F82630BB8C40F2B5111846E6
:1030400001F0A2FD0346BB84BB8C03F08003002B80
:1030500005D0BB8C03F07F032F4AD35CBB84BB8CB1
:10306000FF2B1AD9FB69013B3A6A9A4208D397F8B9
:10307000263043F0030387F82630FB693B6245E0C6
:10308000BB8C1B0A99B23B6A5A1C3A62C9B27A6875
:1030900013440A4683F820202EE0BB8C002B07D077
:1030A000BB8C19461D48FEF79CFA0346002B08D03E
:1030B0005F23BB8497F8263043F0030387F826305C
:1030C0001AE0BB8C402B08D9BB8C5A2B05D897F83B
:1030D000273043F0020387F82730BB8C602B0BD9D5
:1030E000BB8C7A2B08D897F8273043F0010387F878
:1030F0002730BB8C203BBB843B6A5A1C3A62BA8C9B
:10310000D1B27A6813440A4683F8202041E700BF11
:1031100007E000BF38200500B81F05004420050067
:1031200000BF7B6893F82030E52B03D17B68052234
:1031300083F82020FB69082B04D197F827309B00E7
:1031400087F8273097F8273003F00C030C2B05D0B5
:1031500097F8273003F00303032B05D197F82630A7
:1031600043F0020387F8263097F8263003F0020375
:10317000002B17D197F8273003F00103002B05D05F
:1031800097F8263043F0100387F8263097F8273059
:1031900003F00403002B05D097F8263043F0080312
:1031A00087F826307B6897F8262083F82B200023A9
:1031B00018462837BD4680BD80B586B000AF786020
:1031C00039607B681B683B6102E03B6801333B6010
:1031D0003B681B782F2BF8D03B681B785C2BF4D016
:1031E0007B6800229A603B681B781F2B0AD87B689B
:1031F000802283F82B2000217868FEF7B1FE034679
:10320000FB7543E03B4619467868FFF7FFFD034630
:10321000FB75FB7D002B34D17868FFF7DEFA03469F
:10322000FB757B6893F82B30FB73FB7D002B0AD07A
:10323000FB7D042B27D1FB7B03F00403002B22D161
:103240000523FB751FE0FB7B03F00403002B1CD15F
:103250007B689B7903F01003002B02D10523FB75DB
:1032600014E03B6903F134027B681B69C3F3080374
:10327000134419463869FEF7CBFF02467B689A6013
:10328000C0E700BF02E000BF00E000BFFB7D1846C2
:103290001837BD4680BD80B489B000AF78604FF06C
:1032A000FF337B617B681B683B613B69FB613B696A
:1032B000002B01D17B692DE0FB695A1CFA611B7858
:1032C000FB73FB7B1F2B02D9FB7B3A2BF4D1FB7BDF
:1032D0003A2B1CD10123BB613B691B782F2B0CD9E6
:1032E0003B691B78392B08D83B690233FA699A424B
:1032F00003D13B691B78303BBB61BB69002B04DC0D
:10330000BB697B617B68FA691A607B6902E0002314
:103310007B617B6918462437BD4680BC7047FFFF40
:1033200080B582B000AF786039607B680022DA70C7
:103330007B684FF0FF321A6339687868FEF744FA09
:103340000346002B01D0042338E07B68343303F5B7
:10335000FF731846FEF767F803461A464AF65523E8
:103360009A4201D0032329E07B6893F83430E92B9B
:1033700009D07B6893F83430EB2B04D07B6893F84A
:103380003430E82B19D17B683433363303220D49AE
:103390001846FEF700F90346002B01D100230DE08B
:1033A0007B6834335233052207491846FEF7F3F899
:1033B0000346002B01D1002300E002231846083702
:1033C000BD4680BD4C2005005020050080B596B05C
:1033D00000AFF860B9601346FB71BB6800221A6049
:1033E000F868FFF758FFF863FB6B002B01DA0B233B
:1033F0003BE2A84AFB6B52F82330BB63BB6B002B4C
:1034000001D10C2331E2BB68BA6B1A60FB7923F05F
:103410000103FB71BB6B1B78002B1AD0BB6B5B7875
:10342000184602F009F8034687F8373097F8373026
:1034300003F00103002B0CD1FB79002B07D097F888
:10344000373003F00403002B01D00A230DE20023E0
:103450000BE2BB6B00221A70FB6BDAB2BB6B5A70CB
:10346000BB6B5B78184601F0FFFE034687F83730E8
:1034700097F8373003F00103002B01D00323F4E168
:10348000FB79002B07D097F8373003F00403002BAB
:1034900001D00A23E9E100233B65396DB86BFFF7E2
:1034A0003FFF034687F8573097F85730022B4BD130
:1034B00000233B641FE0BB6B03F134023B6C1B0138
:1034C00003F5DF7313443B633B6B04331B78002B22
:1034D00006D03B6B08331846FDF7BCFF024600E000
:1034E00000223B6C9B0007F158010B4443F8442C2D
:1034F0003B6C01333B643B6C032BDCD900233B6406
:103500003B6C002B02D03B6C013B3B643B6C9B0053
:1035100007F15802134453F8443C3B653B6D002BC4
:1035200005D0396DB86BFFF7FBFE034600E00323BF
:1035300087F8573097F85730012B05D93B6C01338A
:103540003B643B6C032BE1D997F85730042B01D136
:1035500001238AE197F85730012B01D90D2384E12B
:10356000BB6B34330B331846FDF75DFF0346B3F5F1
:10357000007F01D00D2378E1BB6B3433163318463E
:10358000FDF751FF0346FB64FB6C002B06D1BB6BC0
:10359000343324331846FDF75DFFF864BB6BFA6CD7
:1035A000DA61BB6B93F84420BB6B9A70BB6B9B7862
:1035B000012B05D0BB6B9B78022B01D00D2354E16E
:1035C000BB6B9B781A46FB6C02FB03F3FB64BB6B83
:1035D00093F841309AB2BB6B5A81BB6B5B89002B6D
:1035E00008D0BB6B5B891A46BB6B5B89013B134000
:1035F000002B01D00D2338E1BB6B34331133184657
:10360000FDF711FF03461A46BB6B1A81BB6B1B8982
:1036100003F00F039BB2002B01D00D2325E1BB6B00
:10362000343313331846FDF7FEFE0346BB64BB6C10
:10363000002B06D1BB6B343320331846FDF70AFF4D
:10364000B864BB6B34330E331846FDF7ECFE03460B
:10365000FB85FB8D002B01D10D2306E1FA8DFB6C60
:103660001344BA6B1289120992B21344BB62BA6C4A
:10367000BB6A9A4201D20D23F7E0BA6CBB6AD31A37
:10368000BA6B5289B3FBF2F37B627B6A002B03D1E6
:103690000D23EAE018AA0010002387F857307B6A50
:1036A000744A934202D8032387F857307B6A4FF657
:1036B000F572934202D8022387F857307B6A40F6AE
:1036C000F572934202D8012387F8573097F85730A4
:1036D000002B01D10D23C8E07B6A9A1CBB6B9A6159
:1036E000BB6B3A6D1A62FA8D3B6D1A44BB6B5A6222
:1036F0003A6DBB6A1A44BB6BDA6297F85730032BFA
:103700001ED1BB6B34332A331846FDF78CFE0346BB
:10371000002B01D00D23A8E0BB6B1B89002B01D02F
:103720000D23A2E0BB6B34332C331846FDF792FE19
:103730000246BB6B9A62BB6B9B699B007B641FE07C
:10374000BB6B1B89002B01D10D238EE0BB6B5A6A2A
:10375000FB6C1A44BB6B9A6297F85730022B03D16B
:10376000BB6B9B695B000AE0BB6B9A6913465B000D
:1037700013445A08BB6B9B6903F0010313447B6439
:10378000BB6BDA697B6C03F2FF135B0A9A4201D2CE
:103790000D236AE0BB6B4FF0FF325A61BB6B5A6975
:1037A000BB6B1A61BB6B80221A7197F85730032BE1
:1037B00049D1BB6B343330331846FDF734FE034632
:1037C000012B40D13B6D01331946B86BFDF7FCFF6F
:1037D0000346002B37D1BB6B00221A71BB6B34330D
:1037E00003F5FF731846FDF71EFE03461A464AF618
:1037F00055239A4227D1BB6B34331846FDF72AFE76
:1038000003461D4A93421ED1BB6B343303F5F2735A
:103810001846FDF71FFE0346184A934213D1BB6BAF
:10382000343303F5F4731846FDF714FE0246BB6B00
:103830005A61BB6B343303F5F6731846FDF70AFE85
:103840000246BB6B1A61BB6B97F857201A700C4B82
:103850001B8801339AB20A4B1A80094B1A88BB6B3A
:10386000DA80BB6B074ADA60002318465837BD463A
:1038700080BD00BFF5FFFF0F52526141727241617E
:103880001CAA001020AA001080B584B000AF786098
:1038900039600923FB737B68002B1CD07B681B6895
:1038A000002B18D07B681B681B78002B13D07B681B
:1038B0009A887B681B68DB889A420CD17B681B68FE
:1038C0005B78184601F0B8FD034603F00103002BB6
:1038D00001D10023FB73FB7B002B02D17B681B68AB
:1038E00000E000233A681360FB7B18461037BD46A2
:1038F00080BDFFFF80B588B000AFF860B9601346A7
:10390000FB71BB683B6107F110031846FFF7C3FC6E
:10391000F861FB69002B01DA0B2325E0144AFB69EF
:1039200052F82330BB61BB69002B02D0BB69002277
:103930001A70FB68002B02D0FB6800221A70FA682C
:103940000B49FB6941F82320FB79002B01D10023AF
:103950000AE007F10C0107F1080300221846FFF7FF
:1039600035FD0346FB75FB7D18462037BD4680BDFF
:1039700018AA001090B599B000AFF860B96013466E
:10398000FB71FB68002B01D1092372E1FB7903F085
:103990003F03FB71FA7907F1100107F1080318469C
:1039A000FFF714FD034687F85F3097F85F30002B70
:1039B00040F056813B697B61BA6807F114031146F8
:1039C0001846FFF7F9FB034687F85F3097F85F303A
:1039D000002B07D197F83F305BB2002B02DA0623A9
:1039E00087F85F30FB7903F01C03002B73D097F846
:1039F0005F30002B10D097F85F30042B07D107F110
:103A000014031846FEF7AAFF034687F85F30FB79D8
:103A100043F00803FB7110E0BB7E03F01103002BA1
:103A200003D0072387F85F3007E0FB7903F0040336
:103A3000002B02D0082387F85F3097F85F30002B07
:103A400063D1FB7903F00803002B5ED03B693A6B2E
:103A500011461846FEF7DCFB38653B6B03F10E049C
:103A600031F04AFB034619462046FDF72FFD3B6B1C
:103A70000B3320221A703B69396B00221846FEF77F
:103A8000E6FB3B6B1C3300211846FDF71FFD3B692D
:103A90000122DA703B6D002B37D03B691B6BFB6456
:103AA00007F114030022396D1846FEF7DBF80346D0
:103AB00087F85F3097F85F30002B26D13B69F96CAF
:103AC0001846FDF781FE034687F85F303B693A6D83
:103AD000013A1A6119E097F85F30002B15D1BB7ECF
:103AE00003F01003002B03D0042387F85F300CE0B1
:103AF000FB7903F00203002B07D0BB7E03F0010328
:103B0000002B02D0072387F85F3097F85F30002B37
:103B10000FD1FB7903F00803002B03D0FB7943F0AE
:103B20004003FB713B691A6BFB681A623A6BFB68D6
:103B30005A6297F85F30002B40F092803B693A6BF5
:103B400011461846FEF764FB0246FB689A603B6B21
:103B50001C331846FDF77EFC0246FB68DA603A69C2
:103B6000FB681A603B69DA88FB689A80FB68FA791F
:103B70001A74FB6800225A74FB680022DA61FB6841
:103B800000225A61FB6828334FF400720021184666
:103B9000FDF7E7FCFB7903F02003002B60D0FB6806
:103BA000DB68002B5CD0FB68DA68FB685A613B6914
:103BB0005B895B02BB64FB689B68BB65FB68DB6879
:103BC0007B6516E0FB68B96D1846FDF7B7FEB86572
:103BD000BB6D012B02D8022387F85F30BB6DB3F1B8
:103BE000FF3F02D1012387F85F307A6DBB6CD31A97
:103BF0007B6597F85F30002B03D17A6DBB6C9A42DE
:103C0000E0D8FB68BA6D9A6197F85F30002B27D136
:103C10007B6DC3F30803002B22D03B69B96D1846B6
:103C2000FDF76EFE78647B6C002B03D1022387F8CE
:103C30005F3015E07B6D5A0A7B6C1A44FB68DA61D1
:103C40003B695878FB6803F12801FB68DA690123B6
:103C500001F006FC0346002B02D0012387F85F30F9
:103C600097F85F30002B02D0FB6800221A6097F8AB
:103C70005F3018466437BD4690BD80B58EB000AF4A
:103C8000F860B9607A603B60BB687B623B68002289
:103C90001A60FB6807F1140211461846FFF7F4FD9D
:103CA000034687F8373097F83730002B07D1FB6889
:103CB0005B7C87F8373097F83730002B02D097F8C5
:103CC000373009E1FB681B7C03F00103002B01D1B5
:103CD000072301E1FB68DA68FB685B69D31A3B6282
:103CE0007A683B6A9A4240F2F2803B6A7B60EEE07F
:103CF000FB685B69C3F30803002B40F0BA80FB68E4
:103D00005B695B0A7A695289013A1340FB61FB697E
:103D1000002B23D1FB685B69002B03D1FB689B68F8
:103D20003B6307E0FA68FB689B6919461046FDF79C
:103D300005FE38633B6B012B04D8FB6802225A74E2
:103D40000223C9E03B6BB3F1FF3F04D1FB680122C2
:103D50005A740123C0E0FB683A6B9A617A69FB6888
:103D60009B6919461046FDF7CBFDB861BB69002B76
:103D700004D1FB6802225A740223ADE0BA69FB69E0
:103D80001344BB617B685B0ABB62BB6A002B39D002
:103D9000FA69BB6A13447A695289934205D97B69EF
:103DA0005B891A46FB69D31ABB627B695878BB6A88
:103DB000BA69796A01F054FB0346002B04D0FB6812
:103DC00001225A74012387E0FB681B7C5BB2002B45
:103DD00014DAFB68DA69BB69D31ABA6A9A420DD958
:103DE000FB68DA69BB69D31A5B027A6AD018FB6890
:103DF00028334FF400721946FDF793FBBB6A5B0250
:103E0000FB6250E0FB68DB69BA699A422ED0FB681E
:103E10001B7C5BB2002B18DA7B695878FB6803F1D6
:103E20002801FB68DA69012301F076FB0346002BC9
:103E300004D0FB6801225A7401234DE0FB681B7C0F
:103E400003F07F03DAB2FB681A747B695878FB6869
:103E500003F128010123BA6901F002FB0346002B9C
:103E600004D0FB6801225A74012335E0FB68BA696B
:103E7000DA61FB685B69C3F30803C3F50073FB6297
:103E8000FA6A7B689A4201D97B68FB62FB6803F19E
:103E90002802FB685B69C3F308031344FA6A1946F6
:103EA000786AFDF73EFB7A68FB6AD31A7B603B6851
:103EB0001A68FB6A1A443B681A607A6AFB6A134400
:103EC0007B62FB685A69FB6A1A44FB685A617B682B
:103ED000002B7FF40DAF002318463837BD4680BD58
:103EE00080B58CB000AFF860B9607A603B60BB68A9
:103EF000FB613B6800221A60FB6807F11002114663
:103F00001846FFF7C1FC034687F82F3097F82F308B
:103F1000002B07D1FB685B7C87F82F3097F82F3098
:103F2000002B02D097F82F303FE1FB681B7C03F099
:103F30000203002B01D1072337E1FB685A697B6834
:103F40001A44FB685B699A4280F02181FB685B69D7
:103F5000DB437B601BE1FB685B69C3F30803002B59
:103F600040F0D780FB685B695B0A3A695289013A85
:103F70001340BB61BB69002B37D1FB685B69002B29
:103F80000CD1FB689B68BB62BB6A002B0ED1FB683F
:103F900000211846FDF7CBFEB86207E0FA68FB681F
:103FA0009B6919461046FDF7C2FEB862BB6A002B3A
:103FB00000F0F280BB6A012B04D1FB6802225A7424
:103FC0000223F2E0BB6AB3F1FF3F04D1FB68012298
:103FD0005A740123E9E0FB68BA6A9A61FB689B683E
:103FE000002B02D1FB68BA6A9A60FB681B7C5BB24B
:103FF000002B18DA3B695878FB6803F12801FB684D
:10400000DA69012301F088FA0346002B04D0FB682B
:1040100001225A740123C8E0FB681B7C03F07F0374
:10402000DAB2FB681A743A69FB689B691946104654
:10403000FDF766FC78617B69002B04D1FB680222E6
:104040005A740223B1E07A69BB6913447B617B68CF
:104050005B0A3B623B6A002B3CD0BA693B6A134463
:104060003A695289934205D93B695B891A46BB6913
:10407000D31A3B623B6958783B6A7A69F96901F067
:104080004BFA0346002B04D0FB6801225A7401232B
:104090008BE0FB68DA697B69D31A3A6A9A4215D9D0
:1040A000FB6803F12800FB68DA697B69D31A5B02BD
:1040B000FA6913444FF400721946FDF732FAFB68AF
:1040C0001B7C03F07F03DAB2FB681A743B6A5B0265
:1040D0007B623FE0FB68DB697A699A4216D0FB6835
:1040E0005A69FB68DB689A4210D23B695878FB68D2
:1040F00003F1280101237A6901F0B2F90346002B8C
:1041000004D0FB6801225A7401234EE0FB687A69EF
:10411000DA61FB685B69C3F30803C3F500737B6274
:104120007A6A7B689A4201D97B687B62FB6803F1FB
:104130002802FB685B69C3F3080313447A6AF969D0
:104140001846FDF7EEF9FB681B7C63F07F03DAB2DB
:10415000FB681A747A687B6AD31A7B603B681A68BA
:104160007B6A1A443B681A60FA697B6A1344FB61F4
:10417000FB685A697B6A1A44FB685A61FB68DA6813
:10418000FB685B699A4238BF1A46FB68DA607B6855
:10419000002B7FF4E0AE00E000BFFB681B7C43F027
:1041A0004003DAB2FB681A74002318463037BD4664
:1041B00080BD80B586B000AF78607B6807F10802EB
:1041C00011461846FFF760FB0346FB75FB7D002B8D
:1041D00068D17B681B7C03F04003002B62D07B68B6
:1041E0001B7C5BB2002B15DABB6858787B6803F147
:1041F00028017B68DA69012301F08EF90346002B60
:1042000001D001234FE07B681B7C03F07F03DAB20F
:104210007B681A7430F070FF3861BA687B681B6A7B
:1042200019461046FDF7D0FA0346FB75FB7D002BBF
:1042300038D17B685B6AFB60FB680B331A78FB68DC
:104240000B3342F02002D2B21A707B6818687B6888
:104250009B681A46F968FDF7FAFFFB6803F11C0238
:104260007B68DB6819461046FDF730F9FB681633AA
:1042700039691846FDF72AF9FB6812330021184600
:10428000FDF70AF9BB680122DA70BB681846FDF732
:10429000C9FA0346FB757B681B7C23F04003DAB246
:1042A0007B681A74FB7D18461837BD4680BD80B503
:1042B00084B000AF78607868FFF77BFF0346FB733C
:1042C000FB7B002B0ED17B6807F1080211461846D4
:1042D000FFF7DAFA0346FB73FB7B002B02D17B6806
:1042E00000221A60FB7B18461037BD4680BD80B5A2
:1042F00088B000AF786039607B6807F1080211462A
:104300001846FFF7C1FA0346FB77FB7F002B02D16B
:104310007B685B7CFB77FB7F002B01D0FB7F0FE191
:104320007B68DB683A689A4208D97B681B7C03F09B
:104330000203002B02D17B68DB683B607B685B6912
:104340003B6100237B617B687A695A613B68002B83
:1043500000F0A780BB685B895B02FB603B69002BB8
:104360001BD03B685A1EFB68B2FBF3F23B69591E37
:10437000FB68B1FBF3F39A420FD33B695A1EFB680B
:104380005B421A407B685A617B685B693A68D31A62
:104390003B607B689B69BB6122E07B689B68BB617B
:1043A000BB69002B19D17B6800211846FDF7BFFCC3
:1043B000B861BB69012B04D17B6802225A740223C5
:1043C000BEE0BB69B3F1FF3F04D17B6801225A74A0
:1043D0000123B5E07B68BA699A607B68BA699A6123
:1043E000BB69002B5DD03AE03A68FB68D31A3B60AA
:1043F0007B685A69FB681A447B685A617B681B7C3E
:1044000003F00203002B0BD07B68B9691846FDF757
:104410008EFCB861BB69002B08D100233B6022E011
:104420007B68B9691846FDF789FAB861BB69B3F1D1
:10443000FF3F04D17B6801225A74012380E0BB69ED
:10444000012B04D9BB689B69BA699A4204D37B6883
:1044500002225A74022373E07B68BA699A613A684F
:10446000FB689A42C0D87B685A693B681A447B68EB
:104470005A613B68C3F30803002B12D0BB68B969CB
:104480001846FDF73DFA78617B69002B04D17B6803
:1044900002225A74022353E03B685B0A7A69134490
:1044A0007B617B685A697B68DB689A420AD97B68C2
:1044B0005A697B68DA607B681B7C43F04003DAB2A0
:1044C0007B681A747B685B69C3F30803002B36D0E2
:1044D0007B68DB697A699A4231D07B681B7C5BB26E
:1044E000002B18DABB6858787B6803F128017B68D9
:1044F000DA69012301F010F80346002B04D07B6831
:1045000001225A7401231BE07B681B7C03F07F03AC
:10451000DAB27B681A74BB6858787B6803F12801AB
:1045200001237A6900F09CFF0346002B04D07B68CE
:1045300001225A74012303E07B687A69DA61FB7F08
:1045400018462037BD4680BD80B584B000AF786086
:1045500039607B68002B01D109234AE007F108018B
:104560003B4600221846FEF731FF0346FB73FB7BF8
:10457000002B37D1BA687B681A603B6819467868A7
:10458000FEF71AFE0346FB73FB7B002B25D17B68ED
:1045900093F82B305BB2002B12DB7B689B7903F026
:1045A0001003002B0AD0BA687B68DB6919461046F5
:1045B000FDF72EFE02467B689A6001E00523FB733F
:1045C000FB7B002B09D1BB68DA887B689A800021CD
:1045D0007868FDF7C5FC0346FB73FB7B042B01D118
:1045E0000523FB73FB7B002B02D07B6800221A6043
:1045F000FB7B18461037BD4680BD80B584B000AF48
:1046000078607B6807F1080211461846FFF73CF90D
:104610000346FB73FB7B002B02D17B6800221A60F0
:10462000FB7B18461037BD4680BD80B584B000AF17
:10463000786039607B6807F1080211461846FFF779
:1046400023F90346FB73FB7B002B26D13B68002B31
:1046500006D100217868FDF783FC0346FB731CE05C
:1046600000217868FEF712F80346FB73FB7B042BEE
:1046700001D10023FB73FB7B002B0ED139687868D6
:10468000FEF7AEFA00217868FDF7E5FC0346FB7300
:10469000FB7B042B01D10023FB73FB7B18461037F7
:1046A000BD4680BD80B590B000AF7860396007F13D
:1046B0000C013B1D00221846FEF788FE034687F8D2
:1046C0003F3097F83F30002B1FD17A6807F10C0379
:1046D00011461846FEF770FD034687F83F3097F8FD
:1046E0003F30002B11D197F837305BB2002B03DA43
:1046F000062387F83F3008E03B68002B05D007F120
:104700000C0339681846FEF76BFA97F83F301846E5
:104710004037BD4680BD80B59EB000AF78600023B5
:104720003B6707F10C013B1D02221846FEF74EFEC7
:10473000034687F8773097F87730002B40F0838076
:10474000FB683B647A6807F1400311461846FEF7A0
:1047500033FD034687F8773097F87730002B72D116
:1047600097F86B305BB2002B03DA062387F87730BB
:1047700008E097F8463003F00103002B02D007232E
:1047800087F8773097F87730002B34D1FB68FA6DD3
:1047900011461846FDF73CFD386797F8463003F0A0
:1047A0001003002B27D0FB683B613B6FBB6107F117
:1047B000100300211846FDF7D3FB034687F8773036
:1047C00097F87730002B16D107F110030021184617
:1047D000FDF75CFF034687F8773097F87730002BBA
:1047E00002D1072387F8773097F87730042B02D16E
:1047F000002387F8773097F87730002B23D107F123
:1048000040031846FEF7A2F9034687F8773097F879
:104810007730002B0CD13B6F002B09D007F1400300
:104820000022396F1846FDF71DFA034687F87730E6
:1048300097F87730002B06D1FB681846FCF7F2FF9B
:10484000034687F8773097F8773018467837BD46B3
:1048500080BD90B5A7B000AF786039603B46184680
:10486000FEF719FD07F128013B1D02221846FEF74D
:10487000ADFD034687F8973097F89730002B40F04E
:10488000DC80BB6AFB657A6807F15C031146184659
:10489000FEF792FC034687F8973097F89730002B85
:1048A00008D197F8873003F0A003002B02D006232D
:1048B00087F8973097F89730002B40F0BE80B96F9B
:1048C00007F1080320221846FCF72BFE07F15C01D4
:1048D00007F12C0330221846FCF723FE3A6807F153
:1048E0002C0311461846FEF767FC034687F89730FD
:1048F00097F89730002B0CD17A6B7B6E9A4205D1DA
:10490000FA6BFB6E9A4201D1042300E0082387F87A
:10491000973097F89730042B78D107F12C0318467D
:10492000FEF71CF8034687F8973097F89730002B6E
:104930006CD1BB6CC7F89030D7F8903003F10D0004
:1049400007F108030D3313221946FCF7EAFDD7F8E7
:1049500090300B33FA7C1A70D7F890300B331B78F9
:1049600003F01003002B0AD1D7F890300B331A78DC
:10497000D7F890300B3342F02002D2B21A70BB6AE3
:104980000122DA70D7F890300B331B7803F0100354
:10499000002B3BD07A6E7B6B9A4237D0BC6ABB6AE5
:1049A000D7F890101846FDF733FC03461946204609
:1049B000FCF7A6FFC7F88C00D7F88C30002B03D18A
:1049C000022387F8973021E0BB6AD7F88C1018468D
:1049D000FCF7FAFE034687F89730BB6A343320337E
:1049E000C7F8903097F89730002B0FD1D7F8903058
:1049F00001331B782E2B09D1BB6A7A6BD7F8901044
:104A00001846FDF724FCBB6A0122DA7097F897304C
:104A1000002B12D107F15C031846FEF797F8034606
:104A200087F8973097F89730002B06D1BB6A184665
:104A3000FCF7F8FE034687F8973097F8973018464A
:104A40009C37BD4690BD80B596B000AFF860B960A8
:104A50007A6007F1140107F10C0300221846FEF7F3
:104A6000B5FC034687F8573097F85730002B56D1DE
:104A7000BB68002B53D07B69BB6100233B6207F10D
:104A8000180300211846FDF76BFA034687F85730E4
:104A900097F85730002B38D107F118030121184639
:104AA000FDF7F4FD034687F8573097F85730002B91
:104AB0002BD10023FB64FB6C3B6510E07A6B3B6DF4
:104AC000591C396513441B78A7F84A30FB6C5A1CF3
:104AD000FA64BA681344B7F84A20D2B21A703B6D30
:104AE0000A2BEBD9BA68FB6C134400221A70FB6CDA
:104AF000002B09D0FB6C013BFB64BA68FB6C1344D0
:104B00001B78202BEED000E000BF97F85730042B25
:104B100005D1BB6800221A70002387F8573097F838
:104B20005730002B29D17B68002B26D07A697B690E
:104B30001B6A19461046FCF747FE034687F85730B4
:104B400097F85730002B18D17B691B78032B04D0C2
:104B5000042B05D16423FB6404E04323FB6401E0E0
:104B60002723FB647B6903F13402FB6C1344184672
:104B7000FCF770FC02467B681A6097F857301846BD
:104B80005837BD4680BDFFFF80B485B000AF786068
:104B90000B467B800023FB81164BBB607B687F2B21
:104BA00002D87B68FB811FE07B68B3F5803F1BD296
:104BB0007B8840F2B512934216D10023FB8102E0BC
:104BC000FB890133FB81FB897F2B08D8FB895B00C4
:104BD000BA6813441B881A467B689342F0D1FB895C
:104BE00080339BB2DBB2FB81FB8918461437BD468C
:104BF00080BC70475820050080B485B000AF0346E4
:104C00000A46FB801346BB800023FB810F4BBB6031
:104C1000FB887F2B02D8FB88FB8110E0BB8840F229
:104C2000B51293420BD1FB88FF2B08D8FB8803F108
:104C30000043803B5B00BA6813441B88FB81FB89FF
:104C400018461437BD4680BC704700BF5820050089
:104C500080B487B000AF78607B68B3F5803F7DD2C9
:104C60007B687B827B8AB3F5805F01D23E4B00E09C
:104C70003E4B7B617B699A1C7A611B883B823B8A35
:104C8000002B69D07A8A3B8A9A4265D37B699A1C49
:104C90007A611B88FB81FB891B0ABB81FB89DBB224
:104CA000FB817A8A398AFB890B449A424ADABB89AA
:104CB000082B50D801A252F823F000BFE14C0100AC
:104CC000F34C0100094D0100114D0100194D010087
:104CD000214D0100294D0100314D0100394D0100E8
:104CE0007A8A3B8AD31A5B007A6913441B887B82D9
:104CF00027E07A8A3B8AD31A9BB203F001039BB266
:104D00007A8AD31A7B821CE07B8A103B7B8218E074
:104D10007B8A203B7B8214E07B8A303B7B8210E0E5
:104D20007B8A1A3B7B820CE07B8A08337B8208E01B
:104D30007B8A503B7B8204E07B8AA3F5E3537B8232
:104D400000BF08E0BB89002B94D1FB895B007A6926
:104D500013447B618EE700BF7B8A7B607B681846CB
:104D60001C37BD4680BC7047582105004C23050008
:104D700080B483B000AF78600B46FB70FB78012BEA
:104D800008D10D4BD3F8C4200B497B681343C1F8FD
:104D9000C4300BE0FB78002B08D1074BD3F8C420BC
:104DA0007B68DB4304491340C1F8C43000BF0C37B3
:104DB000BD4680BC704700BF00C00F4080B483B0C8
:104DC00000AF0346FB71094AFB79136000BF084B33
:104DD0001B6803F01003002BF9D1044B1B68DBB2F6
:104DE00018460C37BD4680BC704700BF08C00A405B
:104DF0000CC00A4080B485B000AF78603960334B96
:104E00001B68324A43F00F0313600023FB6006E087
:104E10002F4B4FF6FF721A60FB680133FB60FB6893
:104E2000072BF5D93B68103B3B601EE03B68023B1B
:104E30003B6000BF274B1B6803F00403002BF9D035
:104E4000234B1B687B81224B4FF6FF721A607B89D4
:104E50001B0A99B27B685A1C7A60CAB21A707B68C6
:104E60005A1C7A607A89D2B21A703B68012BDDD85D
:104E70000023FB601AE000BF164B1B6803F004031D
:104E8000002BF9D0124B1B687B817B891B0A99B2DE
:104E90007B685A1C7A60CAB21A707B685A1C7A60A6
:104EA0007A89D2B21A70FB680133FB60FB68072B6A
:104EB000E1D9064B1A6805494FF6F77313400B60AA
:104EC00000BF1437BD4680BC704700BF00C00A4019
:104ED00008C00A400CC00A4080B485B000AF7860BA
:104EE0003960334B1B68324A43F00F0313600023D1
:104EF000FB6015E07B685A1C7A601B787B817B899C
:104F00001B021AB27B68591C79601B781BB21343D1
:104F10001BB27B81274A7B891360FB680133FB60EE
:104F2000FB68072BE6D93B68103B3B601EE03B6803
:104F3000023B3B607B685A1C7A601B787B817B89D3
:104F40001B021AB27B68591C79601B781BB2134391
:104F50001BB27B8100BF184B1B6803F00403002BBE
:104F6000F9D0144B1B68134A7B8913603B68012BF3
:104F7000DDD80023FB600BE000BF0F4B1B6803F084
:104F80000403002BF9D00B4B1B68FB680133FB605B
:104F9000FB68072BF0D9064B1A6805494FF6F773E3
:104FA00013400B6000BF1437BD4680BC704700BF84
:104FB00000C00A4008C00A400CC00A4080B584B056
:104FC00000AF78600C4A7B681360FF20FFF7F6FEA5
:104FD0000346FB73FB7BFF2B03D0074B1B68002BA7
:104FE000F3D1FB7BFF2B0CBF01230023DBB2184660
:104FF0001037BD4680BD00BF24AC001080B500AFA7
:10500000034B00221A70FF20FFF7D8FE00BF80BDBF
:105010003880092080B500AF094B00221A70FF20AC
:10502000FFF7CCFE4FF4FA70FFF7C8FF0346002BE2
:1050300001D0012302E0FFF7E1FF0023184680BD05
:105040003C80092080B400AF154B1B68144A43F420
:1050500080131360134B02221A60134B07221A604D
:10506000124B02221A60124B1422C3F88020104BFC
:105070001422C3F8A0200E4B1422C3F890200C4B2E
:105080001422C3F884200B4B1B680A4A43F4807334
:105090001360094B00221A7000BFBD4680BC7047E8
:1050A000C4C00F4010C00A4000C00A4004C00A40FB
:1050B00000C00240208009203880092080B500AF60
:1050C000FFF7A8FFFFF79AFF00BF80BD80B584B04F
:1050D00000AF78603960114BC8221A60FF20FFF7DB
:1050E0006DFE0346FB73FB7BFF2B03D10B4B1B6851
:1050F000002BF3D1FB7BFE2B01D000230AE03968A3
:105100007868FFF777FEFF20FFF758FEFF20FFF7D4
:1051100055FE012318461037BD4680BD20AC001057
:1051200080B584B000AF78600B46FB704FF4FA7026
:10513000FFF744FF0346002B01D1002320E0FB785A
:105140001846FFF73BFEFB78FD2B01D1012317E04A
:105150004FF400717868FFF7BFFEFF20FFF72EFEC7
:10516000FF20FFF72BFEFF20FFF728FE0346FB730F
:10517000FB7B03F01F03052B0CBF01230023DBB2D5
:1051800018461037BD4680BD80B584B000AF0346D9
:105190003960FB7197F90730002B0EDAFB7903F0C9
:1051A0007F03FB7100213720FFF7EEFF0346BB733F
:1051B000BB7B012B01D9BB7B51E0FB790C2B08D0C9
:1051C000FFF71CFFFFF726FF0346002B01D1FF234B
:1051D00045E0FB7943F04003DBB21846FFF7EEFDF4
:1051E0003B681B0EDBB21846FFF7E8FD3B681B0C63
:1051F000DBB21846FFF7E2FD3B681B0ADBB218463C
:10520000FFF7DCFD3B68DBB21846FFF7D7FD012353
:10521000FB73FB79002B01D19523FB73FB79082BE2
:1052200001D18723FB73FB7B1846FFF7C7FDFB7992
:105230000C2B02D1FF20FFF7C1FD0A23FB73FF20D7
:10524000FFF7BCFD0346BB7397F90E30002B05DA60
:10525000FB7B013BFB73FB7B002BF0D1BB7B184638
:105260001037BD4680BDFFFF90B585B000AF034647
:10527000FB71FB79002B01D00123D0E0FFF7E2FEA8
:10528000694B1B78DBB203F00203002B03D0664BA3
:105290001B78DBB2C3E0654B1B68DBB2634A43F4A7
:1052A000745313600A23FB7305E0FF20FFF786FDAC
:1052B000FB7B013BFB73FB7B002BF6D100237B7355
:1052C00000210020FFF760FF0346012B40F087809C
:1052D000574B4FF47A721A604FF4D5710820FFF7DC
:1052E00053FF0346012B4FD10023FB730DE0FC7BE2
:1052F000FF20FFF763FD03461A4607F1100323441E
:1053000003F8082CFB7B0133FB73FB7B032BEED9EB
:10531000BB7A012B63D1FB7AAA2B60D100BF444B2F
:105320001B68002B07D04FF08041A920FFF72CFF0E
:105330000346002BF3D13E4B1B68002B4FD00021BE
:105340003A20FFF721FF0346002B48D10023FB73CF
:105350000DE0FC7BFF20FFF731FD03461A4607F105
:105360001003234403F8082CFB7B0133FB73FB7B06
:10537000032BEED93B7A03F04003002B01D00C2322
:1053800000E004237B732AE00021A920FFF7FCFE44
:105390000346012B04D802237B73A923BB7303E0CC
:1053A00001237B730123BB7300BF214B1B68002BC0
:1053B00007D0BB7B00211846FFF7E6FE0346002B13
:1053C000F3D11B4B1B68002B07D04FF4007110204A
:1053D000FFF7DAFE0346002B01D000237B73154A4A
:1053E0007B7B1370FFF70AFE7B7B002B0FD00F4BEC
:1053F0001B68DBB20D4A43F4745313600A4B1B78ED
:10540000DBB223F00103DAB2074B1A7004E0FFF7B6
:1054100055FE054B01221A70034B1B78DBB2184670
:105420001437BD4690BD00BF0C00001000C00A40FC
:1054300020AC001028AC001080B483B000AF03464D
:10544000FB71FB79002B01D0012302E0034B1B7899
:10545000DBB218460C37BD4680BC70470C0000100C
:1054600080B586B000AFB9607A603B600346FB73DD
:10547000FB7B002B02D13B68002B01D1042343E0CE
:10548000234B1B78DBB203F00103002B01D0032375
:105490003AE0204B1B7803F00803002B02D17B6815
:1054A0005B027B603B68012B01D9122300E01123D2
:1054B000FB75FB7D79681846FFF766FE0346002BF7
:1054C0001AD14FF40071B868FFF700FE0346002BB5
:1054D0000AD0BB6803F50073BB603B68013B3B60CF
:1054E0003B68002BEDD100E000BFFB7D122B03D108
:1054F00000210C20FFF748FEFFF780FD3B68002BE2
:1055000014BF01230023DBB218461837BD4680BD07
:105510000C00001028AC001080B584B000AFB9605A
:105520007A603B600346FB73FB7B002B02D13B6838
:10553000002B01D1042363E0334B1B78DBB203F073
:105540000103002B01D003235AE02F4B1B78DBB261
:1055500003F00403002B01D0022351E02B4B1B78F6
:1055600003F00803002B02D17B685B027B603B6881
:10557000012B10D179681820FFF706FE0346002B97
:1055800036D1FE21B868FFF7CBFD0346002B2FD0A4
:1055900000233B602CE01D4B1B7803F00603002B1F
:1055A00003D039689720FFF7EFFD79681920FFF7DE
:1055B000EBFD0346002B1BD1FC21B868FFF7B0FDC3
:1055C0000346002B0AD0BB6803F50073BB603B6841
:1055D000013B3B603B68002BEED100E000BFFD21AA
:1055E0000020FFF79DFD0346002B01D101233B6006
:1055F000FFF704FD3B68002B14BF01230023DBB23F
:1056000018461037BD4680BD0C00001028AC0010B5
:1056100090B58DB000AF03463A60FB710B46BB718D
:105620003B68BB62FB79002B01D0042331E2AE4B17
:105630001B78DBB203F00103002B01D0032328E227
:10564000012387F82F30BB79362B00F2058201A2A7
:1056500052F823F03157010045570100595A010013
:10566000F1570100F1580100595A0100595A01003F
:10567000595A0100595A0100595A0100595A01005A
:10568000595A0100595A0100595A0100595A01004A
:10569000595A0100595A0100595A0100595A01003A
:1056A000595A0100595A0100595A0100595A01002A
:1056B000595A0100595A0100595A0100595A01001A
:1056C000595A0100595A0100595A0100595A01000A
:1056D000595A0100595A0100595A0100595A0100FA
:1056E000595A0100595A0100595A0100595A0100EA
:1056F000595A0100595A0100595A0100595A0100DA
:10570000595A0100595A0100595A0100595A0100C9
:10571000595A0100595A0100595A0100975901007C
:10572000A7590100CB590100EF5901002F5A010080
:10573000FFF770FC0346002B00F09281002387F8EE
:105740002F308DE100210920FFF71EFD0346002BBD
:1057500040F0888107F1080310211846FFF7B6FCD6
:105760000346002B00F07E813B7A9B09DBB2012BC4
:1057700011D17B7C1A463B7C1B0213441A46FB7BEF
:105780001B0403F47C1313440133BB61BB699A020D
:105790003B681A6028E07B7B03F00F03DAB2BB7C26
:1057A000DB09DBB21344DAB27B7C5B00DBB203F0D3
:1057B0000603DBB21344DBB2023387F82E303B7CA6
:1057C0009B09DBB21A46FB7B9B001A44BB7B9B0206
:1057D00003F4406313440133BB6197F82E30093B57
:1057E000BA699A403B681A60002387F82F3039E184
:1057F0003E4B1B7803F00403002B31D000218D2099
:10580000FFF7C2FC0346002B40F02E81FF20FFF77C
:10581000D5FA07F1080310211846FFF757FC034695
:10582000002B00F02181302387F82E3007E0FF2085
:10583000FFF7C4FA97F82E30013B87F82E3097F81F
:105840002E30002BF3D1BB7C1B09DBB21A46102390
:1058500003FA02F23B681A60002387F82F3003E155
:1058600000210920FFF790FC0346002B40F0FC804C
:1058700007F1080310211846FFF728FC0346002B08
:1058800000F0F280194B1B7803F00203002B12D0BA
:10589000BB7C5B0003F07E03FA7CD209D2B21344D6
:1058A0005A1C7B7D9B09DBB2013B02FA03F31A46CB
:1058B0003B681A6013E0BB7C9B109BB203F01F0394
:1058C0000133FA7CD20002F01802F97C4909C9B20E
:1058D0000A44013202FB03F31A463B681A600023B4
:1058E00087F82F30C0E000BF0C00001028AC00107B
:1058F0006A4B1B7803F00603002B00F0B78007F11A
:105900000802FB7933211846FFF782FE0346002B7D
:1059100040F0AE803B7A9B09DBB2002B05D1BB7C0B
:1059200003F04003002B00F0A5803B68FB61FB699E
:105930001B687B62FB695B683B62584B1B7803F01A
:105940000803002B05D17B6A5B027B623B6A5B022A
:105950003B62796A2020FFF717FC0346002B40F0DA
:105960008B80396A2120FFF70FFC0346002B40F0A3
:10597000838000212620FFF707FC0346002B7BD104
:1059800047F23050FFF71AFB0346002B74D0002378
:1059900087F82F3070E0414B1A78BB6A1A700023E9
:1059A00087F82F3071E000210920FFF7EDFB034657
:1059B000002B63D11021B86AFFF788FB0346002B48
:1059C0005CD0002387F82F3058E000210A20FFF731
:1059D000DBFB0346002B53D11021B86AFFF776FB9F
:1059E0000346002B4CD0002387F82F3048E00021DD
:1059F0003A20FFF7C9FB0346002B43D1042387F865
:105A00002E300CE0BC6A631CBB62FF20FFF7D6F9A6
:105A10000346237097F82E30013B87F82E3097F815
:105A20002E30002BEED1002387F82F302AE0002102
:105A30008D20FFF7A9FB0346002B25D1FF20FFF7A0
:105A4000BDF94021B86AFFF741FB0346002B1BD08C
:105A5000002387F82F3017E0042387F82F3014E055
:105A600000BF12E000BF10E000BF0EE000BF0CE07E
:105A700000BF0AE000BF08E000BF06E000BF04E08E
:105A800000BF02E000BF00E000BFFFF7B7FA97F8E1
:105A90002F3018463437BD4690BD00BF28AC0010EB
:105AA00080B485B000AF7860344B1B68FB60344B2A
:105AB0001B68BB60314B1B68FA689A42F4D1304BCB
:105AC0001B68BA689A42EFD12E4B1B6803F0100393
:105AD000002B17D07B680022DA717B6800229A7154
